:020000040800F2
:10000000000002208D4E0008E90E0008EB0E0008EB
:10001000ED0E0008EF0E0008F10E000800000000D1
:10002000000000000000000000000000F30E0008C7
:10003000F50E000800000000F70E0008F90E000899
:10004000DD4E0008DD4E0008DD4E0008DD4E0008E4
:10005000DD4E0008DD4E0008DD4E0008DD4E0008D4
:10006000DD4E0008DD4E0008DD4E0008010F0008DF
:10007000DD4E0008DD4E0008DD4E0008DD4E0008B4
:10008000DD4E0008DD4E0008DD4E0008DD4E0008A4
:10009000DD4E0008DD4E0008DD4E0008DD4E000894
:1000A000DD4E0008DD4E0008110F0008DD4E00088F
:1000B000DD4E0008DD4E0008DD4E0008DD4E000874
:1000C000DD4E0008DD4E0008DD4E0008DD4E000864
:1000D000DD4E0008210F0008DD4E0008DD4E00084F
:1000E000DD4E0008DD4E0008DD4E0008DD4E000844
:1000F000DD4E0008DD4E0008DD4E0008DD4E000834
:10010000DD4E0008DD4E0008DD4E0008DD4E000823
:10011000DD4E0008DD4E0008DD4E0008DD4E000813
:10012000DD4E0008DD4E0008DD4E0008DD4E000803
:10013000DD4E0008DD4E0008DD4E0008DD4E0008F3
:10014000DD4E0008DD4E0008DD4E0008DD4E0008E3
:10015000DD4E0008DD4E0008DD4E0008DD4E0008D3
:10016000DD4E0008DD4E0008DD4E0008DD4E0008C3
:10017000DD4E0008DD4E0008DD4E0008DD4E0008B3
:10018000DD4E0008DD4E0008DD4E0008DD4E0008A3
:10019000DD4E000800000000DD4E0008DD4E0008C6
:1001A000DD4E0008DD4E0008DD4E0008DD4E000883
:1001B000DD4E0008DD4E0008DD4E0008DD4E000873
:1001C000DD4E0008DD4E0008DD4E0008DD4E000863
:0801D000DD4E0008DD4E0008C1
:1001E00001F0FF01102A2BDB10F0070F08D010F8E8
:1001F000013B013A8B422DD010F0070F42B3F6D1EC
:10020000F0B441EA012141EA014122F007047FF004
:1002100000070023F0E80256083C85EA010586EA5B
:10022000010685FA47F5A3FA87F586FA47F6A5FA97
:1002300087F68EB9EED1F0BC01F0FF0102F00702A3
:1002400032B110F8013B013A83EA010313B1F8D14E
:100250000020704701387047002D06BF354603382F
:10026000073815F0010F07D1013015F4807F02BF68
:10027000013015F4C03F0130F0BC0138704700BFB9
:10028000034613F8012B002AFBD1181A01387047D6
:1002900081F0004102E000BF83F0004330B54FEA37
:1002A00041044FEA430594EA050F08BF90EA020FA4
:1002B0001FBF54EA000C55EA020C7FEA645C7FEA37
:1002C000655C00F0E2804FEA5454D4EB5555B8BF5A
:1002D0006D420CDD2C4480EA020281EA030382EACB
:1002E000000083EA010180EA020281EA0303362D5D
:1002F00088BF30BD11F0004F4FEA01314FF4801C30
:100300004CEA113102D0404261EB410113F0004F41
:100310004FEA03334CEA133302D0524263EB4303F8
:1003200094EA050F00F0A780A4F10104D5F1200E96
:100330000DDB02FA0EFC22FA05F2801841F10001F1
:1003400003FA0EF2801843FA05F359410EE0A5F1C5
:1003500020050EF1200E012A03FA0EFC28BF4CF0F6
:10036000020C43FA05F3C01851EBE37101F00045AC
:1003700007D54FF0000EDCF1000C7EEB00006EEBB9
:100380000101B1F5801F1BD3B1F5001F0CD3490843
:100390005FEA30004FEA3C0C04F101044FEA44529A
:1003A00012F5800F80F09A80BCF1004F08BF5FEA21
:1003B000500C50F1000041EB045141EA050130BD01
:1003C0005FEA4C0C404141EB0101013C28BFB1F513
:1003D000801FE9D291F0000F04BF01460020B1FA5E
:1003E00081F308BF2033A3F10B03B3F120020CDA31
:1003F0000C3208DD02F1140CC2F10C0201FA0CF00F
:1004000021FA02F10CE002F11402D8BFC2F1200C73
:1004100001FA02F120FA0CFCDCBF41EA0C01904029
:10042000E41AA2BF01EB0451294330BD6FEA040472
:100430001F3C1CDA0C340EDC04F11404C4F120025D
:1004400020FA04F001FA02F340EA030021FA04F36F
:1004500045EA030130BDC4F10C04C4F1200220FAC6
:1004600002F001FA04F340EA0300294630BD21FA04
:1004700004F0294630BD94F0000F83F4801306BFCA
:1004800081F480110134013D4EE77FEA645C18BFBE
:100490007FEA655C29D094EA050F08BF90EA020F55
:1004A00005D054EA000C04BF1946104630BD91EA4D
:1004B000030F1EBF0021002030BD5FEA545C05D150
:1004C0004000494128BF41F0004130BD14F580048F
:1004D0003CBF01F5801130BD01F0004545F0FE4103
:1004E00041F470014FF0000030BD7FEA645C1ABF38
:1004F000194610467FEA655C1CBF0B46024650EA6F
:10050000013406BF52EA033591EA030F41F400219A
:1005100030BD00BF90F0000F04BF0021704730B520
:100520004FF4806404F132044FF000054FF00001F5
:1005300050E700BF90F0000F04BF0021704730B5B6
:100540004FF4806404F1320410F0004548BF40428B
:100550004FF000013EE700BF42004FEAE2014FEAE0
:1005600031014FEA02701FBF12F07F4393F07F4FBB
:1005700081F06051704732F07F4208BF704793F0BE
:100580007F4F04BF41F40021704730B54FF46074D1
:1005900001F0004521F000411CE700BF50EA0102D4
:1005A00008BF704730B54FF000050AE050EA01027D
:1005B00008BF704730B511F0004502D5404261EBED
:1005C00041014FF4806404F132045FEA915C3FF42E
:1005D000D8AE4FF003025FEADC0C18BF03325FEACB
:1005E000DC0C18BF033202EBDC02C2F1200300FA7C
:1005F00003FC20FA02F001FA03FE40EA0E0021FAA1
:1006000002F11444BDE600BF70B54FF0FF0C4CF48E
:10061000E06C1CEA11541DBF1CEA135594EA0C0F40
:1006200095EA0C0F00F0DEF82C4481EA030621EA7B
:100630004C5123EA4C5350EA013518BF52EA0335B6
:1006400041F4801143F4801338D0A0FB02CE4FF068
:100650000005E1FB02E506F00042E0FB03E54FF098
:100660000006E1FB03569CF0000F18BF4EF0010E90
:10067000A4F1FF04B6F5007F64F5407404D25FEA8C
:100680004E0E6D4146EB060642EAC62141EA55513F
:100690004FEAC52040EA5E504FEACE2EB4F1FD0C81
:1006A00088BFBCF5E06F1ED8BEF1004F08BF5FEAFF
:1006B000500E50F1000041EB045170BD06F00046B1
:1006C00046EA010140EA020081EA0301B4EB5C045E
:1006D000C2BFD4EB0C0541EA045170BD41F4801156
:1006E0004FF0000E013C00F3AB8014F1360FDEBF7B
:1006F000002001F0004170BDC4F10004203C35DA57
:100700000C341BDC04F11404C4F1200500FA05F3D9
:1007100020FA04F001FA05F240EA020001F000427A
:1007200021F0004110EBD37021FA04F642EB0601F0
:100730005EEA430E08BF20EAD37070BDC4F10C041A
:10074000C4F1200500FA04F320FA05F001FA04F2DE
:1007500040EA020001F0004110EBD37041F10001CA
:100760005EEA430E08BF20EAD37070BDC4F12005D5
:1007700000FA05F24EEA020E20FA04F301FA05F23D
:1007800043EA020321FA04F001F0004121FA04F2E5
:1007900020EA020000EBD3705EEA430E08BF20EAB5
:1007A000D37070BD94F0000F0FD101F000464000EF
:1007B00041EB010111F4801F08BF013CF7D041EA71
:1007C000060195F0000F18BF704703F00046520075
:1007D00043EB030313F4801F08BF013DF7D043EA46
:1007E0000603704794EA0C0F0CEA135518BF95EAFC
:1007F0000C0F0CD050EA410618BF52EA4306D1D183
:1008000081EA030101F000414FF0000070BD50EAA1
:10081000410606BF1046194652EA430619D094EA2B
:100820000C0F02D150EA013613D195EA0C0F05D115
:1008300052EA03361CBF104619460AD181EA030169
:1008400001F0004141F0FE4141F470014FF0000021
:1008500070BD41F0FE4141F4780170BD70B54FF0BC
:10086000FF0C4CF4E06C1CEA11541DBF1CEA13553C
:1008700094EA0C0F95EA0C0F00F0A7F8A4EB05041E
:1008800081EA030E52EA03354FEA013100F0888015
:100890004FEA03334FF0805545EA131343EA1263DE
:1008A0004FEA022245EA111545EA10654FEA002693
:1008B0000EF000419D4208BF964244F1FD0404F54C
:1008C000407402D25B084FEA3202B61A65EB0305A8
:1008D0005B084FEA32024FF480104FF4002CB6EB65
:1008E000020E75EB030E22BFB61A754640EA0C00E5
:1008F0005B084FEA3202B6EB020E75EB030E22BF25
:10090000B61A754640EA5C005B084FEA3202B6EB65
:10091000020E75EB030E22BFB61A754640EA9C0024
:100920005B084FEA3202B6EB020E75EB030E22BFF4
:10093000B61A754640EADC0055EA060E18D04FEAB2
:10094000051545EA16754FEA06164FEAC30343EA52
:1009500052734FEAC2025FEA1C1CC0D111F4801F1F
:100960000BD141EA00014FF000004FF0004CB6E718
:1009700011F4801F04BF01430020B4F1FD0C88BFB7
:10098000BCF5E06F3FF6AFAEB5EB030C04BFB6EBC2
:10099000020C5FEA500C50F1000041EB045170BDB5
:1009A0000EF0004E4EEA113114EB5C04C2BFD4EBE2
:1009B0000C0541EA045170BD41F480114FF0000E66
:1009C000013C90E645EA060E8DE60CEA135594EAE2
:1009D0000C0F08BF95EA0C0F3FF43BAF94EA0C0FE5
:1009E0000AD150EA01347FF434AF95EA0C0F7FF45A
:1009F00025AF104619462CE795EA0C0F06D152EAAE
:100A000003353FF4FDAE1046194622E750EA410691
:100A100018BF52EA43067FF4C5AE50EA41047FF4A2
:100A20000DAF52EA43057FF4EBAE12E74FF0FF3C07
:100A300006E000BF4FF0010C02E000BF4FF0010CD8
:100A40004DF804CD4FEA410C7FEA6C5C4FEA430C51
:100A500018BF7FEA6C5C1BD001B050EA410C0CBFA0
:100A600052EA430C91EA030F02BF90EA020F002002
:100A7000704710F1000F91EA030F58BF994208BF69
:100A800090422CBFD8176FEAE37040F00100704726
:100A90004FEA410C7FEA6C5C02D150EA013C07D17D
:100AA0004FEA430C7FEA6C5CD6D152EA033CD3D0C8
:100AB0005DF8040B704700BF8446104662468C46C2
:100AC0001946634600E000BF01B5FFF7B7FF0028F5
:100AD00048BF10F1000F01BD4DF808EDFFF7F4FF1E
:100AE0000CBF012000205DF808FB00BF4DF808EDA9
:100AF000FFF7EAFF34BF012000205DF808FB00BFCC
:100B00004DF808EDFFF7E0FF94BF012000205DF8ED
:100B100008FB00BF4DF808EDFFF7CEFF94BF0120A2
:100B200000205DF808FB00BF4DF808EDFFF7C4FF9B
:100B300034BF012000205DF808FB00BF4FEA410CE4
:100B40007FEA6C5C02D150EA013C0AD14FEA430CC7
:100B50007FEA6C5C02D152EA033C02D14FF0000004
:100B600070474FF0010070474FEA410212F5001242
:100B700015D211D56FF47873B3EB625212D94FEAE4
:100B8000C12343F0004343EA505311F0004F23FACE
:100B900002F018BF404270474FF00000704750EA23
:100BA000013005D111F0004008BF6FF000407047E0
:100BB0004FF00000704700BF53B94AB9002908BF81
:100BC00000281CBF4FF0FF314FF0FF3000F00CB891
:100BD000ADF1080C6DE904CE06F0D0FEDDF804E0BE
:100BE000DDE9022304B07047704700BF0348044B9F
:100BF000834202D0034B03B118477047D401002051
:100C0000D4010020000000000548064B1B1AD90F34
:100C100001EBA301491002D0034B03B11847704701
:100C2000D4010020D40100200000000010B5064CC3
:100C3000237843B9FFF7DAFF044B13B10448AFF34D
:100C400000800123237010BDD401002000000000AB
:100C5000387C000808B5054B1BB105490548AFF3C2
:100C60000080BDE80840FFF7CFBF00BF00000000D4
:100C7000D8010020387C000872B6FEE700B595B0B8
:100C80003822002106A804F05BFE002301930293A2
:100C90000393049305934FF4007001F067FA022365
:100CA00006934FF48072099240220A920D930E939C
:100CB00001220F920822109211931293042313938E
:100CC00006A800F0DBF978B90F2301930323029300
:100CD0008023039300210491059101A800F084FC76
:100CE00020B915B05DF804FBFFF7C6FFFFF7C4FF9E
:100CF00010B500F061F9FFF7C1FF00F01DF804F036
:100D0000A3F800F06FF803F00FFE03F089FE074C24
:100D1000074A0321204602F0BFFE01220549204672
:100D200003F0D8FC04F06CF8FCE700BFF4010020ED
:100D3000A94C0008C803002070B58AB000240594AF
:100D40000694079408940994244BDA6C42F0040248
:100D5000DA64DA6C02F004020192019ADA6C42F071
:100D60002002DA64DA6C02F020020292029ADA6C53
:100D700042F00102DA64DA6C02F001020392039A93
:100D8000DA6C42F00202DA64DB6C03F002030493D3
:100D9000049B134E22464FF40051304600F0F0FF02
:100DA000224620214FF0904000F0EAFF4FF400531C
:100DB00005930125069502230793089405A930465B
:100DC00000F0F4FE2023059306950795089405A9E5
:100DD0004FF0904000F0EAFE0AB070BD00100240F3
:100DE0000008004808B51748174B0360174B4360CD
:100DF00000238360C36003610C2242618361C3618D
:100E000003624362836203F085FB70B900210D48E1
:100E100003F0CEFC60B900210A4803F0EEFC50B9A3
:100E2000084803F0A6FC48B908BDFFF725FFEDE729
:100E3000FFF722FFEFE7FFF71FFFF1E7FFF71CFFC8
:100E4000F2E700BFF40100200038014020A10700B4
:100E500010B59CB0044600211791189119911A9170
:100E60001B91542202A804F06BFD22681B4B9A428E
:100E700001D01CB010BD01230293039302A800F01F
:100E8000D9FC40BB164B1A6E42F480421A661A6EA9
:100E900002F480420092009ADA6C42F00402DA64B2
:100EA000DB6C03F004030193019B302317930223AF
:100EB0001893002419941A9407231B9317A909481F
:100EC00000F074FE22462146252001F031FA25204B
:100ED00001F03EFACDE7FFF7CFFED3E7003801403F
:100EE0000010024000080048FEE7FEE7FEE7FEE7CC
:100EF000FEE770477047704708B500F06DF808BD11
:100F000008B5024801F0CFF808BD00BFC4020020B8
:100F100008B5024801F026FC08BD00BF24030020EC
:100F200008B5024802F030FE08BD00BFF401002001
:100F300000B583B00B4B1A6E42F001021A661A6EAE
:100F400002F001020092009A9A6D42F080529A6576
:100F50009B6D03F080530193019B01F08DF903B069
:100F60005DF804FB00100240104B1B680BB9012018
:100F7000704710B504464FF47A70B0FBF3F30C4A97
:100F80001068B0FBF3F001F0E7F968B90F2C01D954
:100F900001200AE0002221464FF0FF3001F0C8F99D
:100FA000044B1C60002000E0012010BD0000002068
:100FB000080000200400002010B5032001F0A6F96D
:100FC0000F20FFF7D1FF10B10124204610BD0446C9
:100FD000FFF7AEFFF9E70000034A13680349096809
:100FE0000B441360704700BFC002002000000020C7
:100FF000014B1868704700BFC002002038B5044696
:10100000FFF7F6FF0546B4F1FF3F02D0044B1B6823
:101010001C44FFF7EDFF401BA042FAD338BD00BFD0
:1010200000000020124BDA6802F00302DB68C3F311
:1010300003130133032A11D00E48B0FBF3F00C4B1D
:10104000DB68C3F3062303FB00F0094BDB68C3F343
:10105000416301335B00B0FBF3F070470648B0FB1F
:10106000F3F0034BDB68C3F3062303FB00F0ECE76C
:10107000001002400024F40000366E01002800F049
:101080004F8270B582B00446036813F0010F37D069
:10109000A44A936803F00C03D26802F003020C2BFD
:1010A00023D0082B23D06368B3F5803F4ED0B3F52F
:1010B000A02F51D09B4B1A6822F480321A601A6814
:1010C00022F480221A606368002B52D0FFF790FF51
:1010D0000546944B1B6813F4003F11D1FFF788FFBE
:1010E000401B6428F5D9032023E2032AD9D18D4B74
:1010F0001B6813F4003F03D06368002B00F01282DA
:10110000236813F0020F5DD0864A936803F00C0346
:10111000D26802F003020C2B3AD0042B3AD0E368D9
:10112000002B75D07F4A136843F480731360FFF778
:101130005FFF05467B4B1B6813F4806F5FD1FFF7A1
:1011400057FF401B0228F5D90320F2E1754A1368C6
:1011500043F480331360B6E703F18043A3F53C33D7
:101160001A6842F480221A601A6842F480321A60C7
:10117000A9E7FFF73DFF05466A4B1B6813F4003FE4
:10118000BED0FFF735FF401B6428F5D90320D0E11E
:10119000022AC2D1634B1B6813F4806F03D0E3684B
:1011A000002B00F0C1815F4A536823F0FE432169A0
:1011B00043EA016353605C4B1868FFF7D5FE0028D3
:1011C00040F0B481236813F0080F4CD063699BB3DF
:1011D000544AD2F8943043F00103C2F89430FFF738
:1011E00007FF05464F4BD3F8943013F0020F3AD166
:1011F000FFF7FEFE401B0228F4D9032099E1494A7B
:10120000536823F0FE43216943EA01635360D9E741
:10121000444A136823F480731360FFF7E9FE054620
:10122000404B1B6813F4806FCCD0FFF7E1FE401BEE
:101230000228F5D903207CE13A4AD2F8943023F011
:101240000103C2F89430FFF7D3FE0546354BD3F8BF
:10125000943013F0020F06D0FFF7CAFE401B02289D
:10126000F4D9032065E1236813F0040F00F08180B6
:101270002C4B9B6D13F0805F36D12A4B9A6D42F058
:1012800080529A659B6D03F080530193019B012569
:10129000264B1B6813F4807F28D0A368012B39D01C
:1012A000052B45D01F4BD3F8902022F00102C3F844
:1012B0009020D3F8902022F00402C3F89020A36875
:1012C000002B43D0FFF794FE0646164BD3F8903020
:1012D00013F0020F4CD1FFF78BFE801B41F28833D5
:1012E0009842F2D9032024E10025D1E70F4A136880
:1012F00043F480731360FFF77BFE06460B4B1B68BD
:1013000013F4807FC9D1FFF773FE801B0228F5D943
:1013100003200EE1034AD2F8903043F00103C2F8F3
:101320009030CCE700100240040000200070004024
:10133000884BD3F8902042F00402C3F89020D3F8F1
:10134000902042F00102C3F89020B8E7FFF750FE6A
:101350000646804BD3F8903013F0020F08D0FFF709
:1013600047FE801B41F288339842F2D90320E0E027
:10137000E5B9236813F0200F35D0A369E3B1754AAE
:10138000D2F8983043F00103C2F89830FFF730FEEE
:101390000546704BD3F8983013F0020F23D1FFF7B6
:1013A00027FE401B0228F4D90320C2E0694A936D4E
:1013B00023F080539365DCE7664AD2F8983023F037
:1013C0000103C2F89830FFF713FE0546614BD3F8CE
:1013D000983013F0020F06D0FFF70AFE401B0228D8
:1013E000F4D90320A5E0E369002B00F0A180594A5D
:1013F000926802F00C020C2A64D0022B13D0554ADA
:10140000136823F080731360FFF7F2FD0446514B1D
:101410001B6813F0007F4ED0FFF7EAFD001B022887
:10142000F5D9032085E04B4A136823F080731360DD
:10143000FFF7DEFD0546474B1B6813F0007F06D023
:10144000FFF7D6FD401B0228F5D9032071E0414A81
:10145000D36841491940236A606A013843EA00139E
:10146000A06A43EA0023206B4008013843EA405356
:10147000606B4008013843EA4063E06A43EAC063B6
:101480001943D160136843F080731360D36843F04D
:101490008073D360FFF7ACFD04462E4B1B6813F03E
:1014A000007F06D1FFF7A4FD001B0228F5D9032019
:1014B0003FE000203DE0274AD168284B0B40D36035
:1014C000002036E0012B36D0224BDB6803F003010D
:1014D000226A914231D103F0F002616A0139B2EB24
:1014E000011F2CD103F4FE42A16AB2EB012F28D1D7
:1014F00003F07842E16AB2EBC16F24D103F4C0017A
:10150000226B5208013AB1EB425F1ED103F0C06377
:10151000626B5208013AB3EB426F18D1002008E029
:1015200001207047012004E0012002E0012000E0DA
:10153000002002B070BD0120FBE70120F9E7012087
:10154000F7E70120F5E70120F3E70120F1E70120AB
:10155000EFE700BF001002400C809F01FCFFEEFE91
:101560001E4B9B6803F00C03042B33D01B4B9B6872
:1015700003F00C03082B2FD0184B9B6803F00C03CF
:101580000C2B01D000207047144BDA6802F00302E4
:10159000DB68C3F303130133032A11D01048B0FBF7
:1015A000F3F00E4BDB68C3F3062303FB00F00B4B99
:1015B000DB68C3F3416301335B00B0FBF3F07047BA
:1015C0000848B0FBF3F0054BDB68C3F3062303FBCD
:1015D00000F0ECE7024870470248704700100240F4
:1015E0000024F40000366E01002800F0E680F8B513
:1015F0000C460546744B1B6803F00F038B420BD25D
:10160000714A136823F00F030B431360136803F050
:101610000F038B4240F0D3802E6816F001065FD096
:101620006B68032B2FD0022B4DD0684B1B6813F433
:10163000806F00F0C680FFF793FF654B98424DD94D
:10164000624A936823F0F00343F08003936080269E
:101650005E4A936823F0030369680B439360FFF7C6
:10166000C7FC0746594B9B6803F00C036A68B3EB51
:10167000820F35D0FFF7BCFCC01B41F28833984283
:10168000F0D9032078E0514B1B6813F0007F01D1A3
:10169000012071E0FFF7C6FC4D4B98421AD94B4B25
:1016A0009B6813F0F00F05D02E6816F00206CFD01D
:1016B000AB688BB9454A936823F0F00343F080038D
:1016C00093608026C4E7414B1B6813F4003FB2D1FE
:1016D000012051E00026BBE70026B9E70026B7E766
:1016E0002B6813F0020F48D013F0040F04D0374AD0
:1016F000936843F4E06393602B6813F0080F06D0FF
:10170000324A936823F47C5343F4E06393602F4A96
:10171000936823F0F003A9680B4393602A4B1B687E
:1017200003F00F03A34230D82B6813F0040F06D048
:10173000264A936823F4E063E9680B4393602B68BF
:1017400013F0080F07D0214A936823F460532969E6
:1017500043EAC1039360FFF703FF1C4B9B68C3F38D
:1017600003131C4AD35C03F01F03D8401A4B1860C4
:101770001A4B1868FFF7F8FBF8BD802ECED1134A3C
:10178000936823F0F0039360C8E70F4A136823F0CF
:101790000F0323431360FFF72BFC06460A4B1B681D
:1017A00003F00F03A342BFD0FFF722FC801B41F2DE
:1017B00088339842F2D90320DEE7012070470120E8
:1017C000DAE70120D8E700BF002002400010024005
:1017D00000B4C404807C000808000020040000203D
:1017E000014B1868704700BF0800002008B5FFF7DC
:1017F000F7FF054B9B68C3F30223044AD35C03F055
:101800001F03D84008BD00BF00100240787C0008CC
:1018100008B5FFF7E5FF054B9B68C3F3C223044AF5
:10182000D35C03F01F03D84008BD00BF0010024086
:10183000787C0008F0B583B00446036813F4002FE9
:101840006ED0354B9B6D13F0805F1ED1324B9A6D7D
:1018500042F080529A659B6D03F080530193019B87
:1018600001262E4A136843F480731360FFF7C0FB10
:1018700005462A4B1B6813F4807F08D1FFF7B8FB9D
:10188000401B0228F5D9032502E00026E9E70025E0
:1018900045BB214BD3F8903013F4407315D0226D23
:1018A0009A4212D01C4AD2F8903023F44073D2F8F6
:1018B000901041F48031C2F89010D2F8901021F4C9
:1018C0008031C2F89010C2F8903013F0010F10D19F
:1018D00045B9114AD2F8903023F44073216D0B437F
:1018E000C2F89030EEB10C4A936D23F080539365AB
:1018F00017E0FFF77DFB0746074BD3F8903013F056
:10190000020FE5D1FFF774FBC01B41F28833984208
:10191000F2D90325DCE700BF001002400070004050
:101920000025236813F0010F08D09F4AD2F88830B1
:1019300023F0030361680B43C2F88830236813F077
:10194000020F08D0984AD2F8883023F00C03A1681F
:101950000B43C2F88830236813F0040F08D0924A72
:10196000D2F8883023F03003E1680B43C2F88830A6
:10197000236813F0080F08D08B4AD2F8883023F080
:10198000C00321690B43C2F88830236813F0100F9D
:1019900008D0854AD2F8883023F4407361690B433C
:1019A000C2F88830236813F0200F08D07E4AD2F89E
:1019B000883023F44063A1690B43C2F88830236860
:1019C00013F0400F08D0784AD2F8883023F44053FF
:1019D000E1690B43C2F88830236813F0800F08D008
:1019E000714AD2F8883023F44043216A0B43C2F88D
:1019F0008830236813F4807F08D06B4AD2F888308F
:101A000023F44033616A0B43C2F88830236813F42F
:101A1000003F08D0644AD2F89C3023F00303A16A47
:101A20000B43C2F89C30236813F4007F08D05E4A51
:101A3000D2F8883023F44023E16A0B43C2F888309F
:101A4000236813F4806F0CD0574AD2F8883023F4FF
:101A50004013216B0B43C2F88830236BB3F5801F12
:101A600079D0236813F4006F0CD04F4AD2F8883035
:101A700023F44003616B0B43C2F88830636BB3F50A
:101A8000800F6DD0236813F4805F0CD0464AD2F8E3
:101A9000883023F04073A16B0B43C2F88830A36BEE
:101AA000B3F1807F61D0236813F4005F0CD03E4A0D
:101AB000D2F8883023F04063E16B0B43C2F88830E2
:101AC000E36BB3F1006F55D0236813F4804F0CD053
:101AD000354AD2F8883023F04063216C0B43C2F8BA
:101AE0008830236CB3F1006F49D0236813F4004FA2
:101AF0000CD02D4AD2F8883023F04053616C0B4350
:101B0000C2F88830636CB3F1805F3DD0236813F472
:101B1000803F0CD0244AD2F8883023F04043A16C97
:101B20000B43C2F88830A36CB3F1804F31D02368E7
:101B300013F4802F0CD01C4AD2F89C3023F44013AD
:101B4000E16C0B43C2F89C30E36CB3F5001F25D069
:101B5000284603B0F0BDD36843F48013D36080E718
:101B6000D36843F48013D3608CE7D36843F48013C5
:101B7000D36098E7D36843F48013D360A4E7D368B5
:101B800043F48013D360B0E7D36843F48033D36069
:101B9000BCE7D36843F48033D360C8E7D36843F429
:101BA0008013D360D4E700BF00100240F0B583B0CB
:101BB000002362E085685E000324B44025EA040542
:101BC000CC68B4402C438460456825EA0C054C6819
:101BD000C4F300149C402C4344605FE0DD080835EA
:101BE00050F8254003F0070C4FEA8C0C4FF00F0E15
:101BF0000EFA0CFE24EA0E0E0C6904FA0CF444EA08
:101C00000E0440F8254060E0052400E0002404FABA
:101C10000EF42C430CF1020C554D45F82C40554C5C
:101C2000A568D44325EA02064F6817F4801F01D047
:101C300042EA05064F4DAE60ED6804EA05064F68BE
:101C400017F4001F01D042EA05064A4DEE606D68A8
:101C500004EA05064F6817F4003F01D042EA050682
:101C6000444D6E602D682C404E6816F4803F01D0C4
:101C700042EA05043F4A146001330A6832FA03F469
:101C800074D04FF0010C0CFA03FC1CEA0202F3D0F2
:101C90004C6804F00304013C012C8BD94C6804F01F
:101CA0000304032C0CD0C4685D004FF0030C0CFA45
:101CB00005FC24EA0C0C8C68AC4044EA0C04C460BB
:101CC0004C6804F00304022C88D004684FEA430EE9
:101CD0004FF0030C0CFA0EFC24EA0C0C4C6804F0D8
:101CE000030404FA0EF444EA0C0404604C6814F48F
:101CF000403FC1D0204C256E45F001052566246E7D
:101D000004F001040194019C4FEA930C0CF10205CC
:101D1000174C54F8255003F0030E4FEA8E0E0F2493
:101D200004FA0EF425EA0405B0F1904F3FF46EAFCB
:101D3000124CA04212D004F58064A04210D004F5E9
:101D40008064A0420ED004F58064A0420CD004F55B
:101D50008064A0423FF458AF062458E7012456E7B8
:101D6000022454E7032452E7042450E703B0F0BDF3
:101D7000000001400004014000100240000400483F
:101D80000AB18161704781627047436901EA0302C9
:101D900021EA030141EA02418161704730B4C46C19
:101DA000056D6560446D14B1846DC56D6560446CEE
:101DB00004F01F0C012404FA0CF4056C6C60046838
:101DC00063608368102B05D0036899600368DA604C
:101DD00030BC704703689A600368D960F8E7000078
:101DE00003680C4A934213D80B49DBB2083B0B4AF9
:101DF000A2FB0323426C22F003020A448264084AD5
:101E0000C264C3F30413012202FA03F303657047AB
:101E10000449EAE70704024000080240CDCCCCCCDC
:101E200080080240200802400379074A1A449200C1
:101E30004265064A8265013B03F01F03012202FA54
:101E400003F3C365704700BF3F82001040090240A2
:101E500000285BD010B5044601682D4B99423DD84F
:101E60002C4B0B442C4AA2FB03231B099B0043640D
:101E70002A4B0364022384F825300A6822F4FF42C7
:101E800022F07002A368E06803432069034360699D
:101E90000343A0690343E0690343206A03431343F8
:101EA0000B602046FFF79CFFA368B3F5804F20D05E
:101EB000A36C22791A60E36C226D5A606368013B5F
:101EC000032B19D900236365A365E3650020E06354
:101ED000012384F8253084F8240010BD104B0B44F6
:101EE0000D4AA2FB03231B099B0043640D4B0364B3
:101EF000C0E700236360DBE72046FFF795FF636DD3
:101F000000221A60A36DE26D5A60DFE7012070477E
:101F100007040240F8FFFDBFCDCCCCCC000002404E
:101F2000F8FBFDBF0004024038B5044690F82400D9
:101F3000012841D0012084F8240094F82500C0B283
:101F4000012804D0002384F82430022038BD022068
:101F500084F825000020E0632568286820F001004F
:101F600028602046FFF71AFF236BD3B1226813685D
:101F700043F00E031360A36C1A6812F4803F03D081
:101F80001A6842F480721A60636D1BB11A6842F4D9
:101F900080721A602268136843F001031360002006
:101FA000D4E72268136823F00403136022681368DF
:101FB00043F00A031360DEE70220C7E7034690F808
:101FC0002520D2B2022A09D00422C26301200122B4
:101FD00083F82520002283F82420704701680A68CE
:101FE00022F00E020A60816C0A6822F480720A6094
:101FF00001680A6822F001020A60426C02F01F01C7
:10200000006C01228A404260DA6C196D51605A6D91
:1020100042B1116821F4807111609A6DD96D5160DF
:102020000020D4E70020D2E708B590F82530DBB2D5
:10203000022B09D00423C363012380F8253000223A
:1020400080F82420184608BD0268136823F00E03A8
:1020500013600268136823F001031360826C136835
:1020600023F480731360436C03F01F02016C01239F
:1020700093404B60C36C026D5A60436D33B11A6874
:1020800022F480721A60836DC26D5A60012380F859
:102090002530002380F82430836B13B1984700204B
:1020A000D1E70020CFE738B5036C196804682568CC
:1020B000436C03F01F0304229A400A4215D015F026
:1020C000040F12D0236813F0200F03D1236823F0EC
:1020D00004032360436C03F01F02016C042393404C
:1020E0004B60036B03B1984738BD02229A400A4205
:1020F0001CD015F0020F19D0236813F0200F06D161
:10210000236823F00A032360012380F82530436C01
:1021100003F01F02016C022393404B60002380F800
:102120002430C36A002BDFD09847DDE7082202FA8B
:1021300003F30B42D8D015F0080FD5D0236823F055
:102140000E032360436C03F01F03016C012202FAAB
:1021500003F34B60C26380F82520002380F824300D
:10216000436B002BC0D09847BEE70000002836D153
:102170003E4B1B6803F4C063B3F5806F08D03B4A45
:10218000D2F8803023F48073C2F88030002070478A
:10219000364AD2F8803023F48073C2F88030136856
:1021A00023F4C06343F400731360314B1B68322285
:1021B00002FB03F32F4AA2FB03239B0C013300E035
:1021C000013B2A4A526912F4806F01D0002BF7D1EB
:1021D000264B5B6913F4806F44D100207047B0F543
:1021E000007F08D0214A136823F4C06343F480635E
:1021F0001360002070471D4B1B6803F4C063B3F5E8
:10220000806F08D0194AD2F8803043F48073C2F846
:10221000803000207047154AD2F8803043F4807334
:10222000C2F88030136823F4C06343F40073136072
:102230000F4B1B68322202FB03F30E4AA2FB03235F
:102240009B0C013300E0013B084A526912F4806F95
:1022500001D0002BF7D1054B5B6913F4806F03D1DC
:102260000020704703207047032070470070004033
:102270000800002083DE1B43024A936843F4804336
:102280009360704700700040002807DB00F01F02D9
:10229000400901239340024A42F82030704700BFB2
:1022A00000E100E0002808DB0901C9B200F160404C
:1022B00000F5614080F80013704700F00F0009013D
:1022C000C9B2014B1954704714ED00E000B500F09D
:1022D0000700C0F1070CBCF1040F28BF4FF0040C3D
:1022E000031D062B0FD9C31E4FF0FF3E0EFA0CF054
:1022F00021EA000199400EFA03FE22EA0E0241EAA9
:1023000002005DF804FB0023EEE70000074AD368F3
:1023100023F4E0631B041B0C000200F4E0600343A1
:1023200043F0BF6343F40033D360704700ED00E037
:1023300010B50446054BD868C0F30220FFF7C6FF6E
:1023400001462046FFF7AEFF10BD00BF00ED00E0E4
:1023500008B5FFF799FF08BD0138B0F1807F0BD2B7
:102360004FF0E0235861054AF02182F82310002045
:10237000986107221A6170470120704700ED00E064
:1023800030B4026A036A23F001030362446883697C
:1023900023F4803323F073030D681D4322F00202FF
:1023A0008B681343204A904213D002F5006290429A
:1023B0000FD002F5406290420BD002F5806290424D
:1023C00007D002F58062904203D002F5006290428D
:1023D00005D123F00803CA681A4322F00403124A05
:1023E000904213D002F5006290420FD002F5406295
:1023F00090420BD002F58062904207D002F58062D5
:10240000904203D002F50062904205D124F440745A
:102410004A6922438C691443446085614A68426377
:10242000036230BC704700BF002C014030B4036A27
:10243000026A22F4807202624468C26922F4803225
:1024400022F073020D68154323F400738A6843EA8F
:1024500002231C4A904207D002F50062904203D04A
:1024600002F5E052904206D123F40063CA6843EAC1
:10247000022323F48063134A904213D002F50062D2
:1024800090420FD002F5406290420BD002F580627C
:10249000904207D002F58062904203D002F50062BC
:1024A000904207D124F440524C6942EA04128C69EC
:1024B00042EA04144460C5614A68C263036230BCE6
:1024C000704700BF002C014030B4036A026A22F456
:1024D000805202624468C26922F0807222F4E642AD
:1024E0000D6842EA052223F400538D6843EA053360
:1024F0001B4DA84207D005F50065A84203D005F59D
:10250000E055A84206D123F40043CD6843EA0533E1
:1025100023F48043124DA84213D005F50065A8426C
:102520000FD005F54065A8420BD005F58065A8429F
:1025300007D005F58065A84203D005F50065A842DF
:1025400007D124F4404C4C694CEA841C8C694CEA59
:1025500084144460C2614A680264036230BC7047FC
:10256000002C014030B4036A026A22F48032026215
:102570004468026D22F4803222F070020D68154327
:1025800023F400338A6843EA0243114A904213D08D
:1025900002F5006290420FD002F5406290420BD0EB
:1025A00002F58062904207D002F58062904203D02B
:1025B00002F50062904204D124F480344A6944EA6E
:1025C0000224446005654A688264036230BC704737
:1025D000002C014030B4036A026A22F480120262C5
:1025E0004468026D22F0807222F4E0420D6842EAF3
:1025F000052223F400138D6843EA0553114DA842C8
:1026000013D005F50065A8420FD005F54065A84236
:102610000BD005F58065A84207D005F58065A84276
:1026200003D005F50065A84204D124F480244D6947
:1026300044EA8524446002654A68C264036230BC8F
:10264000704700BF002C014010B4036A046A24F0F4
:1026500001040462846924F0F00C4CEA021223F0B5
:102660000A030B43826103625DF8044B704710B4A8
:10267000036A046A24F010040462846924F4704C30
:102680004CEA023223F0A00343EA011382610362A1
:102690005DF8044B7047836823F4401323F0700304
:1026A0000B4343F0070383607047704770477047E0
:1026B000704710B5846A636A83420ED0A36A83426E
:1026C00014D0E36A83421AD0236B834220D0204681
:1026D00002F0B2FB0023237710BD01232377C369E7
:1026E000002BF4D1012384F83E30F0E70223237756
:1026F000C369002BEBD1012384F83F30E7E70423C3
:102700002377C369002BE2D1012384F84030DEE750
:1027100008232377C369002BD9D1012384F84130E2
:10272000D5E7704710B5846A636A83420BD0A36A09
:10273000834210D0E36A834210D0236B834204D1DA
:102740000823237701E0012323772046FFF7E9FFE1
:102750000023237710BD02232377F6E70423237792
:10276000F3E7704770B505460368DE681C6914F02E
:10277000020F10D016F0020F0DD06FF002021A6196
:102780000123037703689B6913F0030F7CD0FFF7E5
:102790008FFF00232B7714F0040F12D016F0040FD4
:1027A0000FD02B686FF004021A6102232B772B687D
:1027B0009B6913F4407F6DD02846FFF779FF002313
:1027C0002B7714F0080F12D016F0080F0FD02B68DB
:1027D0006FF008021A6104232B772B68DB6913F072
:1027E000030F5ED02846FFF763FF00232B7714F01A
:1027F000100F12D016F0100F0FD02B686FF01002D0
:102800001A6108232B772B68DB6913F4407F4FD0C4
:102810002846FFF74DFF00232B7714F0010F02D05D
:1028200016F0010F4BD114F4025F02D016F0800FA6
:102830004DD114F4807F02D016F0800F4FD114F0E8
:10284000400F02D016F0400F51D114F0200F02D0EB
:1028500016F0200F53D114F4801F02D016F4801FFD
:1028600055D114F4001F02D016F4001F57D114F4F0
:10287000800F02D016F4800F59D114F4000F02D04B
:1028800016F4000F5BD170BDFFF711FF284602F070
:10289000D3FA7EE72846FFF70AFF284602F0CCFA73
:1028A0008DE72846FFF703FF284602F0C5FA9CE7AC
:1028B0002846FFF7FCFE284602F0BEFAABE72B687D
:1028C0006FF001021A612846FFF7F0FEABE72B68B4
:1028D0006FF402521A61284600F0DBFDA9E72B686D
:1028E0006FF480721A61284600F0D4FDA7E72B68C8
:1028F0006FF040021A612846FFF733FFA5E72B6807
:102900006FF020021A61284600F0C2FDA3E72B6891
:102910006FF480121A61284600F0BDFDA1E72B6814
:102920006FF400121A61284600F0B6FD9FE72B688D
:102930006FF480021A61284600F0AFFD9DE72B6816
:102940006FF400021A61284600F0A8FD9BE770476B
:1029500010B5846A636A83420CD0A36A834213D0A1
:10296000E36A834216D0236B834219D0012384F893
:102970003D3003E00123237784F83E302046FFF703
:10298000E6FF0023237710BD02232377012384F879
:102990003F30F3E704232377012384F84030EDE749
:1029A00008232377012384F84130E7E703683A4A94
:1029B000904216D0B0F1804F13D0A2F594329042DD
:1029C0000FD002F5806290420BD002F580629042F7
:1029D00007D002F59432904203D002F5E0529042C3
:1029E00003D123F070034A6813432B4A904222D04C
:1029F000B0F1804F1FD0A2F5943290421BD002F567
:102A00008062904217D002F58062904213D002F5A6
:102A1000943290420FD002F5406290420BD002F502
:102A20008062904207D002F58062904203D002F5A6
:102A30000062904203D123F44073CA68134323F029
:102A400080034A69134303608B68C3620B68836227
:102A5000114B984213D003F5006398420FD003F551
:102A6000406398420BD003F58063984207D003F58A
:102A70008063984203D003F50063984201D10B694B
:102A8000036301234361036913F0010F03D003695A
:102A900023F0010303617047002C014060B310B5BF
:102AA000044690F83D3013B3022384F83D302146AC
:102AB00051F8040BFFF77AFF012384F8483084F8BB
:102AC0003E3084F83F3084F8403084F8413084F858
:102AD000423084F8433084F8443084F8453084F838
:102AE000463084F8473084F83D30002010BD80F82F
:102AF0003C3001F0B1FED7E70120704760B310B55C
:102B0000044690F83D3013B3022384F83D3021464B
:102B100051F8040BFFF74AFF012384F8483084F88A
:102B20003E3084F83F3084F8403084F8413084F8F7
:102B3000423084F8433084F8443084F8453084F8D7
:102B4000463084F8473084F83D30002010BD80F8CE
:102B50003C30FFF7AAFDD7E70120704730B4036A85
:102B6000026A22F0100202624468826922F08072D6
:102B700022F4E6420D6842EA052223F020038D6824
:102B800043EA05131B4DA84207D005F50065A8428E
:102B900003D005F5E055A84206D123F08003CD68A7
:102BA00043EA051323F04003124DA84213D005F564
:102BB0000065A8420FD005F54065A8420BD005F589
:102BC0008065A84207D005F58065A84203D005F5C9
:102BD0000065A84207D124F4406C4C694CEA840C8F
:102BE0008C694CEA8404446082614A6882630362AF
:102BF00030BC7047002C014038B590F83C30012BB8
:102C000000F0958004460D46012380F83C30142ADC
:102C100000F28880DFE802F00B8686861F868686B3
:102C200034868686488686865D868686710000683C
:102C3000FFF7A6FB2268936943F0080393612268BB
:102C4000936923F0040393612268936929690B4314
:102C50009361002067E00068FFF780FF22689369B6
:102C600043F4006393612268936923F48063936162
:102C700022689369296943EA01239361002052E0A5
:102C80000068FFF7D3FB2268D36943F00803D361E0
:102C90002268D36923F00403D3612268D3692969C8
:102CA0000B43D36100203EE00068FFF70DFC226873
:102CB000D36943F40063D3612268D36923F480634A
:102CC000D3612268D369296943EA0123D3610020D3
:102CD00029E00068FFF746FC2268136D43F0080303
:102CE00013652268136D23F0040313652268136DC6
:102CF00029690B431365002015E00068FFF76AFCA3
:102D00002268136D43F4006313652268136D23F486
:102D1000806313652268136D296943EA01231365F3
:102D2000002000E00120002384F83C3038BD022060
:102D3000FCE710B4846824F47F4C42EA03220A437F
:102D400042EA0C0282605DF8044B704790F83C3018
:102D5000012B00F09B8010B50446012380F83C3025
:102D6000022380F83D3002689068494B034093602D
:102D70000B68702B61D031D8502B78D00CD9602BD8
:102D80002AD1CA6849682068FFF771FC6021206871
:102D9000FFF781FC002038E0402B0AD1CA6849685F
:102DA0002068FFF751FC40212068FFF774FC0020E9
:102DB0002BE067D8202B07D003D9302B04D001207B
:102DC00023E00BB1102B05D119462068FFF763FCF7
:102DD00000201AE0012018E0012016E0B3F5005FA2
:102DE00038D00ED92B4A9342EED015D92A4A9342B5
:102DF000EAD010329342E7D0203A9342E4D0012047
:102E000003E0B3F5805F3FD10020012384F83D301B
:102E1000002384F83C3010BD203A9342D4D004D92A
:102E20001E4A9342D0D00120EFE7B3F5801FCBD0EC
:102E3000B3F1101FC8D00120E7E7CB684A68896862
:102E40002068FFF776FF2268936843F0770393606A
:102E50000020DAE7CB684A6889682068FFF769FFD5
:102E60002268936843F4804393600020CDE7CA68EA
:102E700049682068FFF7E8FB50212068FFF70BFC4A
:102E80000020C2E70120C0E70120BEE70220704712
:102E90008800CEFF400010006000100030001000DD
:102EA00001F01F014FF0010C0CFA01FC036A23EA48
:102EB0000C030362036A8A401343036270470000F5
:102EC00038B505460C461146102C41D8DFE804F011
:102ED0000940404020404040284040403040404071
:102EE000380090F83E00C0B2022814BF0020012034
:102EF000002840F06781102C78D8DFE804F03177A3
:102F00007777577777775F777777677777776F0018
:102F100090F83F00C0B2022814BF00200120E7E76C
:102F200090F84000C0B2022814BF00200120DFE763
:102F300090F84100C0B2022814BF00200120D7E75A
:102F400090F84200C0B2022814BF00200120CFE751
:102F500090F84300C0B2022814BF00200120C7E748
:102F600095F83E20D2B2012A14BF00220122002A85
:102F700000F02A81002900F02981002B00F028812F
:102F8000102C00F2EF80DFE814F03900ED00ED00C6
:102F9000ED009D00ED00ED00ED00B600ED00ED0050
:102FA000ED00CF00ED00ED00ED00E80095F83F20CA
:102FB000D2B2012A14BF00220122D8E795F840209E
:102FC000D2B2012A14BF00220122D0E795F8412095
:102FD000D2B2012A14BF00220122C8E795F842208C
:102FE000D2B2012A14BF00220122C0E795F8432083
:102FF000D2B2012A14BF00220122B8E7022285F8CA
:103000003E206A6A7A48D0626A6A7A4810636A6ABD
:10301000794850632A683432686AFEF785FF0028D1
:1030200040F0DA802A68D36843F40073D360012249
:1030300021462868FFF734FF2B68704A934213D06B
:1030400002F5006293420FD002F5406293420BD02A
:1030500002F58062934207D002F58062934203D06A
:1030600002F50062934203D15A6C42F400425A6462
:103070002B68624A934200F09780B3F1804F00F0D2
:103080009380A2F59432934200F08E8002F5806224
:10309000934200F0898002F58062934200F08480C0
:1030A00002F5943293427FD002F5406293427BD086
:1030B00002F58052934277D01A6842F001021A60FA
:1030C000002082E0022285F83F20AA6A4848D062A8
:1030D000AA6A48481063AA6A474850632A68383287
:1030E000A86AFEF721FF002878D12A68D36843F444
:1030F0008063D3609BE7022285F84020EA6A3C485F
:10310000D062EA6A3B481063EA6A3B4850632A6827
:103110003C32E86AFEF708FF002861D12A68D368CC
:1031200043F40063D36082E7022285F841202A6BD2
:103130002F48D0622A6B2F4810632A6B2E485063A9
:103140002A684032286BFEF7EFFE00284AD12A6831
:10315000D36843F48053D36069E7022385F8423093
:10316000012032E0022285F843200C2C32D801A243
:1031700052F824F003300008D5310008D53100089A
:10318000D5310008CB300008D5310008D531000812
:10319000D5310008FD300008D5310008D5310008D0
:1031A000D53100082F3100089968154A0A40062ACF
:1031B0001AD0B2F5803F19D01A6842F001021A60A5
:1031C000002002E0022000E0012038BD0120FCE7E1
:1031D0000120FAE70120F8E70120F6E70120F4E7F3
:1031E0000120F2E70120F0E70020EEE70020ECE705
:1031F000B32600082527000851290008002C0140AB
:103200000700010038B505460C460C2900F29180F4
:10321000DFE801F0078F8F8F4F8F8F8F588F8F8F41
:1032200061000268D36823F40073D360406AFEF73C
:10323000FBFE002221462868FFF732FE2B683E4A3B
:10324000934213D002F5006293420FD002F5406220
:1032500093420BD002F58062934207D002F5806260
:10326000934203D002F5006293420DD1196A41F2F4
:103270001112114208D1196A44F24442114203D199
:103280005A6C22F400425A642B68196A41F21112F6
:10329000114208D1196A44F24442114203D11A681A
:1032A00022F001021A60FCB9012385F83E300020AB
:1032B00040E00268D36823F48063D360806AFEF73D
:1032C000B3FEB6E70268D36823F40063D360C06A34
:1032D000FEF7AAFEADE70268D36823F48053D360FB
:1032E000006BFEF7A1FEA4E7043C0C2C1CD8DFE821
:1032F00004F0071B1B1B0C1B1B1B111B1B1B1600AD
:10330000012385F83F30002014E0012385F8403088
:1033100000200FE0012385F8413000200AE001235E
:1033200085F84230002005E0012385F84330002075
:1033300000E0012038BD00BF002C014090F83C2087
:10334000012A4CD030B40346012280F83C200222EE
:1033500080F83D20006842688468224DA84207D06A
:1033600005F50065A84203D005F5E055A84203D154
:1033700022F470024D682A4322F0007222F070029B
:103380000D682A4342601A68164882421AD0B2F188
:10339000804F17D0A0F59430824213D000F58060A2
:1033A00082420FD000F5806082420BD000F594304D
:1033B000824207D000F54060824203D000F5805081
:1033C000824204D124F08004896821439160012263
:1033D00083F83D20002083F83C0030BC7047022079
:1033E000704700BF002C014090F83C30012B4AD0C0
:1033F00010B40246012380F83C30CB6823F44073BC
:103400008868034323F480634868034323F400631C
:103410000868034323F480530869034323F40053EB
:103420004869034323F48043086B034323F4702368
:10343000886943EA004323F08053C8690343106856
:10344000124CA04207D004F50064A04203D004F55A
:10345000E054A04210D123F470038C6A43EA045371
:1034600023F080730C6A234323F000734C6A2343D8
:1034700023F00053C96A0B434364002082F83C00E8
:103480005DF8044B70470220704700BF002C0140DC
:103490007047704770477047704770477047704774
:1034A0007047704770477047704770477047704764
:1034B000026852E8003F23F4907342E8003100298B
:1034C000F6D1026802F1080353E8003F23F080536D
:1034D00023F00103083242E800310029F1D1C36E24
:1034E000012B06D02023C0F88C300023C36643672D
:1034F0007047026852E8003F23F0100342E80031B1
:103500000029F6D1EEE708B5806A0023A0F85E3006
:10351000A0F85630D0F8A430984708BD08B5026826
:1035200052E8003F23F0400342E800310029F6D181
:103530002023C0F8883000238367D0F8983098475C
:1035400008BD000008B5B0F86030D0F88C20222A01
:1035500005D00268936943F00803936108BD0268CF
:10356000516ADBB2826D0B401370836D013383654A
:10357000B0F85E309BB2013B9BB2A0F85E30B0F871
:103580005E309BB2002BE9D1026852E8003F23F481
:10359000907342E800310029F6D1026802F1080375
:1035A00053E8003F23F00103083242E800310029CC
:1035B000F3D12023C0F88C300023436703670368EE
:1035C000174A93420CD05B6813F4000F08D00268CE
:1035D00052E8003F23F0806342E800310029F6D131
:1035E000C36E012B03D0D0F8A0309847B6E7002374
:1035F000C366026852E8003F23F0100342E800313E
:103600000029F6D10368DA6912F0100F01D01022F8
:103610001A62D0F8C030B0F85C1098479EE700BF3F
:103620000080004008B5B0F86020D0F88C30222B24
:1036300005D00268936943F00803936108BD0368ED
:103640005B6A816D13400B80836D02338365B0F834
:103650005E309BB2013B9BB2A0F85E30B0F85E30AA
:103660009BB2002BEAD1026852E8003F23F490732A
:1036700042E800310029F6D1026802F1080353E85C
:10368000003F23F00103083242E800310029F3D162
:103690002023C0F88C300023436703670368174A70
:1036A00093420CD05B6813F4000F08D0026852E814
:1036B000003F23F0806342E800310029F6D1C36E59
:1036C000012B03D0D0F8A0309847B7E70023C3669A
:1036D000026852E8003F23F0100342E8003100295D
:1036E000F6D10368DA6912F0100F01D010221A62C5
:1036F000D0F8C030B0F85C1098479FE700800040D9
:103700002DE9F843B0F860600368DD69D3F80090F4
:10371000D3F80880D0F88C20222A05D09A6942F08C
:1037200008029A61BDE8F8830446B0F868700EE0BC
:10373000D4F8903033B1D4F8A43020469847002311
:10374000C4F89030B4F85E309BB2002B47D0002F05
:1037500000F0958015F0200F00F091802368596AE1
:10376000F3B2A26D0B401370A36D0133A365B4F8DF
:103770005E309BB2013B9BB2A4F85E302368DD69EA
:1037800015F0070FDED015F0010F09D019F4807F76
:1037900006D001221A62D4F890301343C4F8903056
:1037A00015F0020F0BD018F0010F08D02368022289
:1037B0001A62D4F8903043F00403C4F8903015F046
:1037C000040FB5D018F0010FB2D0236804221A629A
:1037D000D4F8903043F00203C4F89030A8E7226890
:1037E00052E8003F23F4807342E800310029F6D10B
:1037F000226802F1080353E8003F23F0805323F0CE
:103800000103083242E800310029F1D12023C4F835
:103810008C3000236367236723682A4A934203D0CE
:103820005B6813F4000F07D1E36E012B0ED0D4F8C0
:10383000A030204698478AE7226852E8003F23F0EC
:10384000806342E800310029F6D1EDE70023E3660A
:10385000226852E8003F23F0100342E800310029BB
:10386000F6D12368DA6912F0100F01D010221A6223
:10387000D4F8C030B4F85C102046984767E7B4F835
:103880005E309BB2002B3FF44DAFB4F868209A42F3
:103890007FF648AF226802F1080353E8003F23F0A7
:1038A0008053083242E800310029F3D1064B6367A8
:1038B000226852E8003F43F0200342E8003100292B
:1038C000F6D12FE700800040453500082DE9F84388
:1038D000B0F860600368DD69D3F80090D3F8088021
:1038E000D0F88C20222A05D09A6942F008029A6109
:1038F000BDE8F8830446B0F868700EE0D4F8903064
:1039000033B1D4F8A430204698470023C4F890304F
:10391000B4F85E309BB2002B46D0002F00F09480AC
:1039200015F0200F00F0908023685B6AA26D334091
:103930001380A36D0233A365B4F85E309BB2013BE4
:103940009BB2A4F85E302368DD6915F0070FDFD065
:1039500015F0010F09D019F4807F06D001221A62F8
:10396000D4F890301343C4F8903015F0020F0BD008
:1039700018F0010F08D0236802221A62D4F89030A0
:1039800043F00403C4F8903015F0040FB6D018F0DB
:10399000010FB3D0236804221A62D4F8903043F0A8
:1039A0000203C4F89030A9E7226852E8003F23F4EC
:1039B000807342E800310029F6D1226802F1080341
:1039C00053E8003F23F0805323F00103083242E81C
:1039D00000310029F1D12023C4F88C300023636723
:1039E000236723682A4A934203D05B6813F4000FCD
:1039F00007D1E36E012B0ED0D4F8A03020469847B3
:103A00008BE7226852E8003F23F0806342E80031F0
:103A10000029F6D1EDE70023E366226852E8003F73
:103A200023F0100342E800310029F6D12368DA6957
:103A300012F0100F01D010221A62D4F8C030B4F87E
:103A40005C102046984768E7B4F85E309BB2002BC4
:103A50003FF44EAFB4F868209A427FF649AF22682F
:103A600002F1080353E8003F23F08053083242E894
:103A700000310029F3D1074B6367226852E8003F09
:103A800043F0200342E800310029F6D130E700BFBF
:103A90000080004025360008A2B110B4D0F888306C
:103AA000202B17D0D0F88830002B62D10B2958D0AA
:103AB0000C295AD0D0F8903043F04003C0F8903031
:103AC00001205DE0D0F8903043F04003C0F8903022
:103AD000012070470C293CD8DFE801F0070B0F13D9
:103AE000171B1F23272B2F333700C0F894200846BD
:103AF00046E0C0F89820002042E0C0F89C2000205A
:103B00003EE0C0F8A02000203AE0C0F8A420002049
:103B100036E0C0F8A820002032E0C0F8AC20002039
:103B20002EE0C0F8B02000202AE0C0F8B420002029
:103B300026E0C0F8B820002022E0C0F8BC20002019
:103B40001EE0C0F8C42000201AE0C0F8C820002001
:103B500016E0D0F8903043F04003C0F890300120D8
:103B60000EE0C0F8C42000200AE0C0F8C820002001
:103B700006E0D0F8903043F04003C0F890300120C8
:103B80005DF8044B7047000070B504460268D369C5
:103B90001068916840F60F0C13EA0C0F0DD113F06A
:103BA000200F10D010F0200F02D111F0805F0AD04A
:103BB000636F0BB12046984770BD9A4D0D4030D1D0
:103BC000994E30422DD1E56E012D00F0C78013F4DF
:103BD000801F03D011F4800F40F0678113F0800F35
:103BE00007D010F0800F40F0688111F4000F40F012
:103BF000648113F0400F03D010F0400F40F0648157
:103C000013F4000F03D010F0804F40F0618113F0E7
:103C1000807FD1D00028CFDAD4F8B830204698473A
:103C2000CAE713F0010F09D010F4807F06D00126F7
:103C30001662D4F890203243C4F8902013F0020F9B
:103C40000BD011F0010F08D0226802261662D4F8BA
:103C5000902042F00402C4F8902013F0040F0BD01F
:103C600011F0010F08D0226804261662D4F89020C3
:103C700042F00202C4F8902013F0080F0BD010F0AD
:103C8000200F00D13DB1226808251562D4F890209C
:103C90002A43C4F8902013F4006F0CD010F0806F0A
:103CA00009D022684FF400651562D4F8902042F0E4
:103CB0002002C4F89020D4F89020002A3FF47CAF72
:103CC00013F0200F09D010F0200F02D111F0805F07
:103CD00003D0636F0BB120469847D4F89020236837
:103CE0009B6813F0400F02D112F0280F2ED020460F
:103CF000FFF7DEFB23689B6813F0400F21D022689A
:103D000002F1080353E8003F23F04003083242E881
:103D100000310029F3D1D4F880306BB1434A9A6363
:103D2000D4F88000FEF780F900283FF445AFD4F8BE
:103D30008000836B98473FE7D4F8A430204698472B
:103D40003AE7D4F8A4302046984735E7D4F8A430B1
:103D5000204698470023C4F890302DE713F0100F49
:103D60003FF435AF10F0100F3FF431AF1023136262
:103D700023689B6813F0400F5AD0D4F88020136852
:103D80005B689BB2002B3FF417AFB4F85C1099420C
:103D90007FF612AFA4F85E3013681B6813F0200F93
:103DA00032D1226852E8003F23F4807342E80031A8
:103DB0000029F6D1226802F1080353E8003F23F0FE
:103DC0000103083242E800310029F3D1226802F1F0
:103DD000080353E8003F23F04003083242E8003173
:103DE0000029F3D12023C4F88C300023E366226835
:103DF00052E8003F23F0100342E800310029F6D1D9
:103E0000D4F88000FEF7DAF802232367D4F8C02044
:103E1000B4F85C10B4F85E309BB2C91A89B220467F
:103E20009047C9E601000010200100040735000892
:103E3000B4F85C10B4F85E309BB2C91A89B2B4F819
:103E40005E309BB2002B3FF4B7AE00293FF4B4AE16
:103E5000226852E8003F23F4907342E800300028C3
:103E6000F6D1226802F1080353E8003F23F08053A3
:103E700023F00103083242E800300028F1D120236A
:103E8000C4F88C300023E3666367226852E8003F81
:103E900023F0100342E800300028F6D10223236704
:103EA000D4F8C0302046984786E64FF4801313625A
:103EB000D4F8B430204698477EE6A36F002B3FF439
:103EC0007BAE2046984777E62046FFF727FB73E650
:103ED000D4F8BC30204698476EE600BF124BC0F8BD
:103EE0009430124BC0F89830114BC0F89C30114BF5
:103EF000C0F8A030104BC0F8A430104BC0F8A83068
:103F00000F4BC0F8AC300F4BC0F8B0300E4BC0F8C0
:103F1000B4300E4BC0F8B8300D4BC0F8BC300D4B70
:103F2000C0F8C030704700BFA13400089F340008BB
:103F3000A5340008A3340008A7340008A9340008F9
:103F4000AB340008AD3400086D4700086F47000827
:103F500071470008AF34000870B5044601688368F3
:103F60000269134342691343C26913430868964ABE
:103F700002401A430A602268536823F44053E16800
:103F80000B435360A1692268904B9A4201D0236A87
:103F90001943936823F06E4323F430630B4393601B
:103FA0002268D36A23F00F03616A0B43D36223684C
:103FB000874A934210D0874A934221D0864A93423F
:103FC00037D0864A93425CD0854A93426BD07F4A71
:103FD00093427DD010223AE002F55842D2F8882070
:103FE00002F00302032A09D8DFE802F00204870680
:103FF00001222CE004222AE0082228E0102226E0F8
:1040000002F5E632D2F8882002F00C020C2A0ED813
:10401000DFE802F0070D0D0D090D0D0D750D0D0DED
:104020000B00002213E0042211E008220FE010220E
:104030000DE002F5E432D2F8882002F03002202AA6
:104040005FD01AD8002A5ED0102A5ED104225F49C0
:104050008B4276D0E069B0F5004F00F0C980082AA5
:1040600000F23481DFE812F0F7001901F5003201A7
:104070001C013201320132011F01302A47D10822CE
:10408000E5E702F5E232D2F8882002F0C002802A89
:104090003FD004D8FAB3402A3FD10422D7E7C02A40
:1040A0003DD10822D3E702F5E032D2F8882002F4AD
:1040B0004072B2F5007F34D005D8A2B3B2F5807F4C
:1040C00033D10422C3E7B2F5407F30D10822BEE7E6
:1040D00002F5C832D2F8882002F44062B2F5006FCF
:1040E00027D005D83AB3B2F5806F26D10422AEE7C7
:1040F000B2F5406F23D10822A9E70222A7E70222E6
:10410000A5E70222A3E70022A1E710229FE71022E1
:104110009DE702229BE7002299E7102297E71022F1
:1041200095E7022293E7002291E710228FE7102201
:104130008DE702228BE7002289E7102287E7102211
:1041400085E7082A00F2B280DFE802F008B03BB051
:1041500038B0B0B005004FF4004004E0FDF746FB76
:10416000002800F0A580626A1E4B33F81220B0FBD5
:10417000F2F3656805EB4501994200F29B80B3EBD1
:10418000053F00F29980002633463146FCF714FDC6
:10419000090241EA106100026B08C0182A46334642
:1041A00041F10001FCF708FDA0F540720E4B9A4268
:1041B00000F284802368D860304665E0FDF7D0F9CE
:1041C000CEE70A48CFE700BFF369FFCF0080004089
:1041D000003801400044004000480040004C0040CE
:1041E00000500040507C0008FFFC0F000024F40049
:1041F000082A65D8DFE802F0072705642A646464AA
:104200000B00354803E0FDF7F1FA00285AD0626A46
:10421000324B33F81230B0FBF3F06268530803EB13
:104220004003B3FBF2F3A3F110014FF6EF7291429A
:104230004AD89AB222F00F02C3F342031343226812
:10424000D360002020E0FDF7E3FADEE7FDF788F910
:10425000DBE7214803E0FDF7C9FA002838D0626A9D
:104260001E4B33F81230B0FBF3F0636800EB5300E1
:10427000B0FBF3F0A0F110024FF6EF739A4229D889
:10428000236880B2D86000200123A4F86A30A4F823
:10429000683000236367A36770BDFDF7B9FADCE7F8
:1042A000FDF75EF9D9E74FF40040D8E70120EBE7CE
:1042B0000020E9E70120E7E70120E5E70120E3E747
:1042C0000120E1E70020DFE70120DDE70120DBE757
:1042D0000020D9E70120D7E70024F400507C000833
:1042E000836A13F0080F06D00268536823F4004372
:1042F000816B0B435360836A13F0010F06D0026891
:10430000536823F40033C16A0B435360836A13F08C
:10431000020F06D00268536823F48033016B0B430D
:104320005360836A13F0040F06D00268536823F4C5
:104330008023416B0B435360836A13F0100F06D048
:104340000268936823F48053C16B0B439360836AC4
:1043500013F0200F06D00268936823F40053016C19
:104360000B439360836A13F0400F0AD002685368CE
:1043700023F48013416C0B435360436CB3F5801FEF
:104380000BD0836A13F0800F06D00268536823F4C1
:104390000023C16C0B43536070470268536823F4D9
:1043A000C003816C0B435360EBE72DE9F8430546EE
:1043B0000E4617469946DDF820802B68DC6936EA00
:1043C00004040CBF01240024BC4236D1B8F1FF3FE5
:1043D000F3D0FCF70DFEA0EB0900404530D8B8F152
:1043E000000F2FD02B681A6812F0040FE5D0802E32
:1043F000E3D0402EE1D0DA6912F0080F11D1DA696A
:1044000012F4006FD9D04FF400621A622846FFF709
:104410004FF82023C5F89030002385F8843003201E
:104420000CE008241C622846FFF742F8C5F89040CB
:10443000002385F88430012000E00020BDE8F883E7
:104440000320FBE70320F9E730B583B004460023DF
:10445000C0F89030FCF7CCFD05462268126812F0D7
:10446000080F10D123681B6813F0040F28D12023F4
:10447000C4F88830C4F88C300020E066206784F8E7
:10448000840003B030BD6FF07E43009303460022EA
:104490004FF400112046FFF788FF0028E2D0226881
:1044A00052E8003F23F0800342E800310029F6D1B2
:1044B0002023C4F88830002384F884300320E0E708
:1044C0006FF07E4300932B4600224FF4800120467C
:1044D000FFF76BFF0028CAD0226852E8003F23F4A0
:1044E000907342E800310029F6D1226802F10803F6
:1044F00053E8003F23F00103083242E8003100296D
:10450000F3D12023C4F88C30002384F884300320B6
:10451000B7E7000000283AD010B50446D0F888303C
:104520000BB32423C4F888302268136823F00103F6
:104530001360A36A3BBB2046FFF70EFD012811D094
:104540002268536823F4904353602268936823F0F1
:104550002A0393602268136843F001031360204626
:10456000FFF772FF10BD80F88430FFF7B7FCD4F876
:10457000C43023B1D4F8C43020469847D1E7054B66
:10458000C4F8C430F6E72046FFF7AAFED3E70120BF
:10459000704700BF510E000810B48165A0F85C2080
:1045A000A0F85E20002343678368B3F5805F06D0E0
:1045B000A3B9036973B9FF23A0F8603014E003695D
:1045C00023B940F2FF13A0F860300DE0FF23A0F8FC
:1045D000603009E07F23A0F8603005E0B3F1805F30
:1045E0002ED00023A0F860300023C0F890302223A2
:1045F000C0F88C30016801F1080353E8003F43F034
:104600000103083141E80034002CF3D1436EB3F1CB
:10461000005F1FD08368B3F5805F43D0294B4367A9
:104620000369002B44D0026852E8003F43F49073C2
:1046300042E800310029F6D100205DF8044B7047B4
:1046400003691BB97F23A0F86030CDE73F23A0F8B2
:104650006030C9E7B0F868309342DBD88368B3F5BF
:10466000805F19D0184B4367036943B1026852E871
:10467000003F43F4807342E800310029F6D102681C
:1046800002F1080353E8003F43F08053083242E848
:1046900000310029F3D1CFE70369002BE2D10B4BA6
:1046A0004367E1E70369002BB8D1094B4367B7E7DC
:1046B000026852E8003F43F0200342E8003100293D
:1046C000F6D1B9E74535000801370008CD380008B4
:1046D0002536000838B5D0F88C30202B17D1C1B161
:1046E000CAB10023C36603680C4CA3420CD05B68BC
:1046F00013F4000F08D0046854E8003F43F08063CF
:1047000044E80035002DF6D1FFF746FF00E0022017
:1047100038BD0120FCE70120FAE700BF008000401F
:10472000436E2BB90123A0F86A30A0F868307047B7
:1047300030B403689A68C2F342629968490F094D20
:104740006B5CDB00084C615C93FBF1F3A0F86A3012
:10475000AB5CDB00A25C93FBF2F3A0F8683030BCEA
:10476000704700BF707C0008687C00087047704785
:10477000704790F88430012B18D0012380F88430E2
:104780002423C0F8883003681A68196821F00101F1
:10479000196022F000520023436601680A6020225B
:1047A000C0F8882080F8843018467047022070478F
:1047B00038B590F88430012B1DD00446012380F8D1
:1047C00084302423C0F8883003681D681A6822F0FA
:1047D00001021A600268936823F0604319439160F4
:1047E000FFF79EFF23681D602023C4F88830002057
:1047F00084F8840038BD0220FCE738B590F8843096
:10480000012B1DD00446012380F884302423C0F8F6
:10481000883003681D681A6822F001021A60026875
:10482000936823F0606319439160FFF779FF236871
:104830001D602023C4F88830002084F8840038BD2F
:104840000220FCE7034AD2F8883043F47003C2F830
:104850008830704700ED00E002681C4B9A4200D09F
:10486000704710B582B0044603F564431A6E42F4F3
:1048700000621A661B6E03F400630193019B1448E7
:10488000144B03602A234360102383600023C3601A
:10489000802202614FF4807242614FF48062826133
:1048A0002022C2610362FDF7D3FA60B9084B63624C
:1048B0009C62002211461A20FDF73AFD1A20FDF7EE
:1048C00047FD02B010BDFCF7D7F9EFE7002C01401F
:1048D000C40200200800024000B587B00023019305
:1048E000029303930493059302680D4B9A4202D0FE
:1048F00007B05DF804FB03F56443DA6C42F0040290
:10490000DA64DB6C03F004030093009B0123019342
:1049100002230293059301A90248FDF747F9E7E74F
:10492000002C01400008004810B59CB000241894E9
:1049300019941A941B941594169417940E940F942A
:10494000109411941294139414943422214601A8C3
:1049500000F0F6FF3048314B03604460846013235D
:10496000C360046144618461FEF798F8002841D176
:104970004FF48053189318A92748FEF7E7F9002849
:104980003BD12548FEF7BAF8002839D1002315930A
:104990001693179315A92048FEF7D0FC002832D1B2
:1049A00060230E9300220F92109211921292139292
:1049B00014920EA91848FEF71FF938BB0023019383
:1049C00002930393049305934FF4005206920793C6
:1049D000089309934FF000720A920B930C930D9376
:1049E00001A90D48FEF700FD98B90B48FFF774FFC9
:1049F0001CB010BDFCF740F9BAE7FCF73DF9C0E781
:104A0000FCF73AF9C2E7FCF737F9C9E7FCF734F9E4
:104A1000D4E7FCF731F9E8E724030020002C01403B
:104A200008B51248124B0360124B436000238360A9
:104A30000122C260036143618361C361036200F0CC
:104A400075F850B90021094800F0D4F840B90021A8
:104A5000064800F0FDF830B908BDFCF70DF9F1E7A4
:104A6000FCF70AF9F3E7FCF707F9F5E77003002014
:104A7000005400401A061000F0B59FB00446002113
:104A800019911A911B911C911D91542204A800F0B8
:104A900057FF2268224B9A4201D01FB0F0BD40233D
:104AA000049304A8FCF7C6FE002835D11D4CE36C26
:104AB00043F00103E364E36C03F001030193019B02
:104AC000E36C43F00203E364E36C03F0020302933C
:104AD000029B4FF40043199312271A9700251B9548
:104AE0001C9504261D9619A94FF09040FDF75EF81D
:104AF000802319931A971B951C951D9619A90A488E
:104B0000FDF754F8A36D43F40013A365A36D03F4FC
:104B100000130393039BC0E7FCF7AEF8C6E700BFA2
:104B200000540040001002400004004800285FD0FC
:104B300010B5044690F84130002B48D0242384F867
:104B400041302268136823F0010313606368226810
:104B500023F0706313612268936823F40043936029
:104B6000E368012B38D0A368226843F404439360C0
:104B7000E368022B36D02268536823F40063536045
:104B80002268536843F0007343F400435360226883
:104B9000D36823F40043D360236962691343A16996
:104BA000226843EA0123D360E369216A22680B4348
:104BB00013602268136843F00103136000206064EF
:104BC000202384F84130206384F8420010BD80F82F
:104BD0004030FFF751FFB1E7A368226843F4004378
:104BE0009360C5E72268536843F400635360C7E7E6
:104BF00001207047034690F84120D2B2202A23D1E9
:104C000090F84020012A21D0012280F8402024225F
:104C100080F841200068026822F0010202601868F2
:104C2000026822F480520260186802681143016031
:104C300019680A6842F001020A60202283F84120C4
:104C4000002083F840007047022070470220704720
:104C5000034690F84120D2B2202A21D190F840207A
:104C6000012A1FD0012280F84020242280F8412010
:104C70000068026822F0010202601868026822F4EB
:104C8000706242EA0122026019680A6842F0010279
:104C90000A60202283F84120002083F840007047FA
:104CA000022070470220704710B50446124B1B8843
:104CB000124AD25C0A2A0BD001330F4A13800E4BE2
:104CC0001B8801220D4919442046FFF703FD10BD42
:104CD00001330A4A0021D1541378722B03D0064BBA
:104CE00000221A80EBE720214FF09040FDF74DF8AD
:104CF000034B00221A60F2E7C4030020C80300201F
:104D0000F001002008B54FF49273034A00210348D4
:104D1000FEF7D6F808BD00BF0804002024030020D9
:104D200000B58DB000230BE04FF00E0E0DF1300CEE
:104D30000CEB430C2CF830EC4900C9B201339BB2A8
:104D4000072B05D811F0800FEED14FF0060EEDE7DE
:104D500000230DE04FF00E0C03F108010DF1300EB1
:104D60000EEB410121F830CC4000C0B201339BB2C0
:104D7000072B05D810F0800FECD14FF0060CEBE7B5
:104D800000230CE00E2003F110010DF1300C0CEBB0
:104D9000410121F8300C5200D2B201339BB2072BF3
:104DA00004D812F0800FEDD10620ECE7002111E0CD
:104DB00001EB410203EBC2020CA800EB430030F808
:104DC00030CC0E4820F812C001339BB2172BEFD91C
:104DD000013189B2072901D80023F7E7C023B3F5D1
:104DE000927F06D2054A002122F8131001339BB2AC
:104DF000F5E7FFF787FF0DB05DF804FB080400201E
:104E000010B5002408E0E0B202460146FFF788FF33
:104E10006420FCF7F3F802344F2CF4DD08E0E0B234
:104E200002460146FFF77CFF6420FCF7E7F8023CEE
:104E3000002CF4DC10BD000008B500210148FEF78D
:104E4000E1F908BD2403002000B583B00E4B9A6C35
:104E500042F004029A649A6C02F004020092009AF2
:104E60009A6C42F001029A649B6C03F00103019377
:104E7000019B002211460B20FDF75AFA0B20FDF78B
:104E800067FA03B05DF804FB001002400D48854648
:104E9000FFF7D8FC0C480D490D4A002302E0D45816
:104EA000C4500433C4188C42F9D30A4A0A4C002374
:104EB00001E013600432A242FBD300F04DFDFBF78A
:104EC00017FFFEE70000022000000020D4010020B0
:104ED00038800008D4010020A0070020FEE72DE95B
:104EE000F04F85B057EC106BDDE90E9B002F0C46A0
:104EF00090461946B8BF32463B462BF0200ABBBF4E
:104F000007F100431F4600232D23B8BF1646BAF110
:104F1000460F0B7005D0BAF1450F00D101340221C4
:104F200000E0032103AB019302AB009347EC106B4D
:104F30004B46224600F0D0FDBBF1670F054619D164
:104F400018F0010F0ED005EB0408002200233046B4
:104F50003946FBF7C1FD08B1CDF80C803022039B28
:104F6000434521D3039B109A5B1B2846136005B071
:104F7000BDE8F08FBBF1470FE2D0BAF1460F00EB6E
:104F80000408E2D10378302B0AD1002200233046F6
:104F90003946FBF7A1FD18B9C4F10104C9F8004076
:104FA000D9F800309844D0E7591C03911A70D6E71D
:104FB000F7B50029BABF49422D232B2309290270D6
:104FC000437029DD0DF107031D460A271A46B1FB80
:104FD000F7F607FB1614303402F8014C0C46632C2C
:104FE00003F1FF333146F1DC3031941E03F8011C2C
:104FF000411C2346AB420AD30DF109039B1AAC4274
:1050000088BF002302330344181A03B0F0BD13F81D
:10501000016B01F8016FEDE7302330318370C1700F
:10502000031DF1E72DE9F04F8DB00C46DDF85880F7
:1050300016461F46054600F08BFC0368049318468D
:10504000FBF71EF900230A93D8F8003005900733C8
:1050500023F0070303F1080294F818A0D4F800B075
:10506000C8F80020D3E9008929F000430793CDF860
:105070001880C4E91289DDE90601A04B4FF0FF3228
:10508000FBF75CFD70BBDDE906019C4B4FF0FF3286
:10509000FBF736FD30BB0022002340464946FBF7B4
:1050A00025FD10B12D2384F84330954A954BBAF174
:1050B000470F94BF90469846032323612BF00403C7
:1050C00023604FF00009009733460BAA214628467B
:1050D00000F0DAF9013040F096804FF0FF300DB06B
:1050E000BDE8F08F42464B4640464946FBF726FD59
:1050F00040B14B46002BBCBF2D2384F84330824A7D
:10510000824BD4E763685A1C26D1062363604BF4B4
:1051100080620023226003930AABCDE901A309ABAF
:105120000093616849EC108B0DF123032846FFF7CB
:10513000D6FEBAF1670F0999804615D1CB1C3BDB2F
:105140006368994238DC0A9B994255DB23682161E8
:10515000D80745D54B1C42E00AF0DF02472AD6D1DA
:10516000002BD4D10123D1E7BAF1470F07D1C81CD6
:1051700025DB63688B4222DB4FF0670AE3E7BAF175
:10518000650F1FD80139524604F150000991FFF70D
:105190000FFF0A9A1318012A8146236102DC226854
:1051A000D20701D5013323619DF82330002B8AD02B
:1051B0002D2384F8433086E74FF0650AE2E74FF08D
:1051C000450ADFE7BAF1660FBDD1002963680BDD40
:1051D000216113B92268D00702D501330B44236142
:1051E000A1654FF00009DFE713B92268D20701D5A6
:1051F0000233F4E70123F2E70029D4BFC1F1020230
:1052000001221344EBE723685A0507D42369424679
:1052100031462846B84701302BD15EE7BAF1650F19
:1052200040F2DC80D4E9120100220023FBF754FC99
:10523000002833D0364A012331462846B84701308A
:105240003FF44BAFDDE90938434502DB2368D8075B
:105250000FD5DDE9042331462846B84701303FF435
:105260003CAF4FF0000908F1FF3804F11A0AC845B5
:1052700009DC23689B0700F10281E0680B9B9842E0
:10528000B8BF18462BE70123524631462846B84797
:1052900001303FF422AF09F10109E8E7099B002B37
:1052A00038DC1B4A012331462846B84701303FF419
:1052B00014AFDDE9093959EA030302D12368D9079C
:1052C000D7D5DDE9042331462846B84701303FF4FD
:1052D00004AF4FF0000A04F11A0B099B5B425345DF
:1052E00001DC4B4693E701235A4631462846B8472E
:1052F00001303FF4F2AE0AF1010AEEE7FFFFEF7F63
:10530000907C0008947C0008987C00089C7C000835
:10531000A07C0008A36DDDF828A05345A8BF534624
:10532000002B994636DC4FF0000B29EAE97904F1AD
:105330001A02A36D0693A3EB09035B4531DC099BBD
:105340009A453ADC2368DA0737D4099BAAEB0309AC
:10535000069BAAEB03039945A8BF9946B9F1000F34
:1053600033DC4FF0000829EAE97904F11A0B099BB4
:10537000AAEB0303A3EB090343457FF77AAF0123AD
:105380005A4631462846B84701303FF4A6AE08F1E8
:105390000108ECE7424631462846B8470130C2D101
:1053A0009BE60123314628460692B84701303FF478
:1053B00094AE069A0BF1010BBBE7DDE904233146FD
:1053C0002846B8470130C0D187E6069A4B4642448A
:1053D00031462846B8470130C3D17EE6DDF828A023
:1053E000BAF1010F01DCDB0736D501234246314615
:1053F0002846B84701303FF470AEDDE9042331465A
:105400002846B84701303FF468AED4E912010022C3
:1054100000230AF1FF3AFBF75FFBC0B9534608F1DE
:10542000010231462846B84701300CD155E6012328
:105430005A4631462846B84701303FF44EAE08F18F
:105440000108D045F3DB4B4604F15002E0E64FF093
:10545000000804F11A0BF4E701234246E1E70123B7
:105460004A4631462846B84701303FF436AE08F187
:105470000108E3680B995B1A4345F0DCFDE64FF049
:10548000000804F11909F4E72DE9F047164698469B
:105490008A680B69DDF820909342B8BF13463360E9
:1054A00091F8432007460C460AB101333360236864
:1054B000990642BF336802333360256815F006054C
:1054C00006D104F1190AE36832689B1AAB4226DC64
:1054D00094F843302268003B18BF012392062BD476
:1054E00004F1430241463846C84701301ED02368C4
:1054F000226903F00603042B02BFE5683368ED1A46
:10550000A3680CBF25EAE57500259342C4BF9B1A2A
:10551000ED1800261A34B5421AD1002008E0012304
:10552000524641463846C847013003D14FF0FF305C
:10553000BDE8F0870135C6E7E1185A1C302081F834
:105540004300224494F8451082F843100233C7E721
:105550000123224641463846C8470130E6D001368D
:10556000D9E700002DE9FF470F7E0C9E782F91466A
:1055700080460C469A4601F1430207D8622F0AD8AA
:10558000002F00F0DD80582F00F0C38004F14206A8
:1055900084F842703AE0A7F16303152BF6D801A115
:1055A00051F823F0FD550008115600088D550008EC
:1055B0008D5500088D5500088D55000811560008BE
:1055C0008D5500088D5500088D5500088D55000833
:1055D000275700089F560008DF5600088D55000821
:1055E0008D550008495700088D5500089F56000842
:1055F0008D5500088D550008E756000833681A1DC0
:105600001B68326004F1420684F842300123A8E0AE
:1056100031682368081D30601E0601D50D6803E05F
:105620005D06FBD5B1F900506168002D78DA2D20B8
:10563000002984F84300A1602DDA5E486D420A23F8
:105640001646B5FBF3F103FB1157C75D06F8017D64
:105650002F46BB420D46F4D9082B0BD12368DF0738
:1056600008D5236961689942DEBF302306F8013C02
:1056700006F1FF36921B2261CDF800A04B4603AA2B
:1056800021464046FFF700FF01306FD14FF0FF3059
:1056900004B0BDE8F08723F004032360CDE7216860
:1056A0003368080653F8045B02D4490648BFADB21C
:1056B0006F2F4048336014BF0A230823002184F869
:1056C00043106668A660002EBADB216821F0040151
:1056D0002160002DB4D1002EB2D11646BCE723685C
:1056E00043F0200323603448782784F8457023680A
:1056F00031681F0651F8045B02D45F0648BFADB2A3
:105700003160D90744BF43F0200323601DB110234B
:10571000D4E72848E9E7236823F020032360F6E76D
:1057200024480A23CDE7336825686169181D306075
:105730002E061B6801D5196002E06806FBD51980AA
:1057400000232361164697E733681A1D32601E68EE
:10575000626800213046FAF743FD08B1801B6060A3
:1057600063682361002384F8433085E72369324668
:1057700049464046D047013088D023689B0714D45F
:10578000E068039B9842B8BF184681E70123324680
:1057900049464046D04701303FF478AF0135E368D1
:1057A00003995B1AAB42F1DCEAE7002504F1190624
:1057B000F5E700BFA27C0008B37C0008002310B509
:1057C0000446C0E90033C0E9043383608181436645
:1057D000C2818361194608225C3000F0B1F80D4B9C
:1057E00063620D4BA3620D4BE3620D4B23630D4BC4
:1057F00024629C4206D003F16802944202D0D03366
:105800009C4205D104F15800BDE8104000F0C8B832
:1058100010BD00BF85730008A7730008DF73000880
:105820000374000850060020024A0349034800F0B0
:1058300069B800BF0C000020116C00081C0000209B
:1058400041680C4B994210B5044601D001F0E0F9D3
:10585000A168094B994202D0204601F0D9F9E168CC
:10586000064B994204D02046BDE8104001F0D0B963
:1058700010BD00BF50060020B80600202007002001
:1058800010B50B4B0B4C0C4A1A6020460022042129
:10589000FFF794FF04F1680001220921FFF78EFF52
:1058A00004F1D0000222BDE810401221FFF786BFAC
:1058B000880700205006002029580008014800F001
:1058C00070B800BF8D070020014800F06BB800BF22
:1058D0008D07002010B50446FFF7F0FF236A1BB1C7
:1058E000BDE81040FFF7F0BF044B2362044B1B6878
:1058F000002BF5D1FFF7C4FFF2E700BF41580008C5
:10590000880700202DE9F8430746884614460026FC
:10591000D4E90195B9F1010905D52468002CF7D126
:105920003046BDE8F883AB89012B07D9B5F90E30B5
:10593000013303D029463846C04706436835E9E7B6
:1059400002440346934200D1704703F8011BF9E774
:10595000004870475801002070B50D4D0D4C641B78
:10596000A4100026A64209D10B4D0C4C02F064F99C
:10597000641BA4100026A64205D170BD55F8043B57
:1059800098470136EEE755F8043B98470136F2E7B1
:105990003080000830800008308000083480000823
:1059A0007047704770470A44914200F1FF3300D1BD
:1059B000704710B511F8014B03F8014F9142F9D12E
:1059C00010BD2DE9F74F03690C69A34207467EDB42
:1059D000013C01F11408A30000F11405009305EB4C
:1059E0008403019358F8243055F8242001339A4257
:1059F00008EB8409B2FBF3F62ED34FF0000AC4463D
:105A0000AE46D3465CF8043B98B206FB00A0020CFD
:105A10001B0C06FB0323DEF8002080B292B2121AA0
:105A20005A44DEF800004FEA134A9BB2C3EB22430C
:105A300003EB104392B242EA0342E1454EF8042BD5
:105A40004FEA234BDED2009BEB582BB9019B043B62
:105A50009D421A462FD33C61384601F08BFB00284B
:105A600025DB2946002058F8042BD1F800C01FFA86
:105A700082FE1FFA8CF3A3EB0E030344120CC2EB5D
:105A8000234202EB1C429BB243EA0243C14541F868
:105A9000043B4FEA2240E6D255F8242005EB84036C
:105AA00022B9043B9D421A460BD33C610136304675
:105AB00003B0BDE8F08F1268043B002ACBD1013C53
:105AC000C6E71268043B002AEFD1013CEAE7002058
:105AD000EEE70000000000002DE9F04FC76997B025
