:020000040800F2
:10000000000002204D8C0008690F00086B0F0008EB
:100010006D0F00086F0F0008710F0008000000004E
:10002000000000000000000000000000F18800084F
:10003000730F000800000000918900088384000805
:100040009D8C00089D8C00089D8C00089D8C0008EC
:100050009D8C00089D8C00089D8C0008750F000881
:100060009D8C00089D8C00089D8C0008810F000865
:100070009D8C00089D8C00089D8C00089D8C0008BC
:100080009D8C00089D8C00089D8C00089D8C0008AC
:100090009D8C00089D8C00089D8C00089D8C00089C
:1000A0009D8C00089D8C0008910F00089D8C000815
:1000B000A10F00089D8C00089D8C00089D8C0008F5
:1000C0009D8C00089D8C0008B10F00089D8C0008D5
:1000D0009D8C0008C10F00089D8C00089D8C0008B5
:1000E0009D8C00089D8C00089D8C00089D8C00084C
:1000F0009D8C00089D8C00089D8C00089D8C00083C
:100100009D8C00089D8C00089D8C00089D8C00082B
:100110009D8C00089D8C00089D8C00089D8C00081B
:10012000D10F00089D8C00089D8C00089D8C000854
:100130009D8C00089D8C00089D8C00089D8C0008FB
:100140009D8C00089D8C00089D8C00089D8C0008EB
:100150009D8C00089D8C00089D8C00089D8C0008DB
:100160009D8C00089D8C00089D8C00089D8C0008CB
:100170009D8C00089D8C00089D8C00089D8C0008BB
:100180009D8C00089D8C00089D8C00089D8C0008AB
:100190009D8C0008000000009D8C00089D8C0008CC
:1001A0009D8C00089D8C00089D8C00089D8C00088B
:1001B0009D8C00089D8C00089D8C00089D8C00087B
:1001C0009D8C00089D8C00089D8C00089D8C00086B
:0801D0009D8C00089D8C0008C5
:1001E00001F0FF01102A2BDB10F0070F08D010F8E8
:1001F000013B013A8B422DD010F0070F42B3F6D1EC
:10020000F0B441EA012141EA014122F007047FF004
:1002100000070023F0E80256083C85EA010586EA5B
:10022000010685FA47F5A3FA87F586FA47F6A5FA97
:1002300087F68EB9EED1F0BC01F0FF0102F00702A3
:1002400032B110F8013B013A83EA010313B1F8D14E
:100250000020704701387047002D06BF354603382F
:10026000073815F0010F07D1013015F4807F02BF68
:10027000013015F4C03F0130F0BC0138704700BFB9
:10028000034613F8012B002AFBD1181A01387047D6
:1002900081F0004102E000BF83F0004330B54FEA37
:1002A00041044FEA430594EA050F08BF90EA020FA4
:1002B0001FBF54EA000C55EA020C7FEA645C7FEA37
:1002C000655C00F0E2804FEA5454D4EB5555B8BF5A
:1002D0006D420CDD2C4480EA020281EA030382EACB
:1002E000000083EA010180EA020281EA0303362D5D
:1002F00088BF30BD11F0004F4FEA01314FF4801C30
:100300004CEA113102D0404261EB410113F0004F41
:100310004FEA03334CEA133302D0524263EB4303F8
:1003200094EA050F00F0A780A4F10104D5F1200E96
:100330000DDB02FA0EFC22FA05F2801841F10001F1
:1003400003FA0EF2801843FA05F359410EE0A5F1C5
:1003500020050EF1200E012A03FA0EFC28BF4CF0F6
:10036000020C43FA05F3C01851EBE37101F00045AC
:1003700007D54FF0000EDCF1000C7EEB00006EEBB9
:100380000101B1F5801F1BD3B1F5001F0CD3490843
:100390005FEA30004FEA3C0C04F101044FEA44529A
:1003A00012F5800F80F09A80BCF1004F08BF5FEA21
:1003B000500C50F1000041EB045141EA050130BD01
:1003C0005FEA4C0C404141EB0101013C28BFB1F513
:1003D000801FE9D291F0000F04BF01460020B1FA5E
:1003E00081F308BF2033A3F10B03B3F120020CDA31
:1003F0000C3208DD02F1140CC2F10C0201FA0CF00F
:1004000021FA02F10CE002F11402D8BFC2F1200C73
:1004100001FA02F120FA0CFCDCBF41EA0C01904029
:10042000E41AA2BF01EB0451294330BD6FEA040472
:100430001F3C1CDA0C340EDC04F11404C4F120025D
:1004400020FA04F001FA02F340EA030021FA04F36F
:1004500045EA030130BDC4F10C04C4F1200220FAC6
:1004600002F001FA04F340EA0300294630BD21FA04
:1004700004F0294630BD94F0000F83F4801306BFCA
:1004800081F480110134013D4EE77FEA645C18BFBE
:100490007FEA655C29D094EA050F08BF90EA020F55
:1004A00005D054EA000C04BF1946104630BD91EA4D
:1004B000030F1EBF0021002030BD5FEA545C05D150
:1004C0004000494128BF41F0004130BD14F580048F
:1004D0003CBF01F5801130BD01F0004545F0FE4103
:1004E00041F470014FF0000030BD7FEA645C1ABF38
:1004F000194610467FEA655C1CBF0B46024650EA6F
:10050000013406BF52EA033591EA030F41F400219A
:1005100030BD00BF90F0000F04BF0021704730B520
:100520004FF4806404F132044FF000054FF00001F5
:1005300050E700BF90F0000F04BF0021704730B5B6
:100540004FF4806404F1320410F0004548BF40428B
:100550004FF000013EE700BF42004FEAE2014FEAE0
:1005600031014FEA02701FBF12F07F4393F07F4FBB
:1005700081F06051704732F07F4208BF704793F0BE
:100580007F4F04BF41F40021704730B54FF46074D1
:1005900001F0004521F000411CE700BF50EA0102D4
:1005A00008BF704730B54FF000050AE050EA01027D
:1005B00008BF704730B511F0004502D5404261EBED
:1005C00041014FF4806404F132045FEA915C3FF42E
:1005D000D8AE4FF003025FEADC0C18BF03325FEACB
:1005E000DC0C18BF033202EBDC02C2F1200300FA7C
:1005F00003FC20FA02F001FA03FE40EA0E0021FAA1
:1006000002F11444BDE600BF70B54FF0FF0C4CF48E
:10061000E06C1CEA11541DBF1CEA135594EA0C0F40
:1006200095EA0C0F00F0DEF82C4481EA030621EA7B
:100630004C5123EA4C5350EA013518BF52EA0335B6
:1006400041F4801143F4801338D0A0FB02CE4FF068
:100650000005E1FB02E506F00042E0FB03E54FF098
:100660000006E1FB03569CF0000F18BF4EF0010E90
:10067000A4F1FF04B6F5007F64F5407404D25FEA8C
:100680004E0E6D4146EB060642EAC62141EA55513F
:100690004FEAC52040EA5E504FEACE2EB4F1FD0C81
:1006A00088BFBCF5E06F1ED8BEF1004F08BF5FEAFF
:1006B000500E50F1000041EB045170BD06F00046B1
:1006C00046EA010140EA020081EA0301B4EB5C045E
:1006D000C2BFD4EB0C0541EA045170BD41F4801156
:1006E0004FF0000E013C00F3AB8014F1360FDEBF7B
:1006F000002001F0004170BDC4F10004203C35DA57
:100700000C341BDC04F11404C4F1200500FA05F3D9
:1007100020FA04F001FA05F240EA020001F000427A
:1007200021F0004110EBD37021FA04F642EB0601F0
:100730005EEA430E08BF20EAD37070BDC4F10C041A
:10074000C4F1200500FA04F320FA05F001FA04F2DE
:1007500040EA020001F0004110EBD37041F10001CA
:100760005EEA430E08BF20EAD37070BDC4F12005D5
:1007700000FA05F24EEA020E20FA04F301FA05F23D
:1007800043EA020321FA04F001F0004121FA04F2E5
:1007900020EA020000EBD3705EEA430E08BF20EAB5
:1007A000D37070BD94F0000F0FD101F000464000EF
:1007B00041EB010111F4801F08BF013CF7D041EA71
:1007C000060195F0000F18BF704703F00046520075
:1007D00043EB030313F4801F08BF013DF7D043EA46
:1007E0000603704794EA0C0F0CEA135518BF95EAFC
:1007F0000C0F0CD050EA410618BF52EA4306D1D183
:1008000081EA030101F000414FF0000070BD50EAA1
:10081000410606BF1046194652EA430619D094EA2B
:100820000C0F02D150EA013613D195EA0C0F05D115
:1008300052EA03361CBF104619460AD181EA030169
:1008400001F0004141F0FE4141F470014FF0000021
:1008500070BD41F0FE4141F4780170BD70B54FF0BC
:10086000FF0C4CF4E06C1CEA11541DBF1CEA13553C
:1008700094EA0C0F95EA0C0F00F0A7F8A4EB05041E
:1008800081EA030E52EA03354FEA013100F0888015
:100890004FEA03334FF0805545EA131343EA1263DE
:1008A0004FEA022245EA111545EA10654FEA002693
:1008B0000EF000419D4208BF964244F1FD0404F54C
:1008C000407402D25B084FEA3202B61A65EB0305A8
:1008D0005B084FEA32024FF480104FF4002CB6EB65
:1008E000020E75EB030E22BFB61A754640EA0C00E5
:1008F0005B084FEA3202B6EB020E75EB030E22BF25
:10090000B61A754640EA5C005B084FEA3202B6EB65
:10091000020E75EB030E22BFB61A754640EA9C0024
:100920005B084FEA3202B6EB020E75EB030E22BFF4
:10093000B61A754640EADC0055EA060E18D04FEAB2
:10094000051545EA16754FEA06164FEAC30343EA52
:1009500052734FEAC2025FEA1C1CC0D111F4801F1F
:100960000BD141EA00014FF000004FF0004CB6E718
:1009700011F4801F04BF01430020B4F1FD0C88BFB7
:10098000BCF5E06F3FF6AFAEB5EB030C04BFB6EBC2
:10099000020C5FEA500C50F1000041EB045170BDB5
:1009A0000EF0004E4EEA113114EB5C04C2BFD4EBE2
:1009B0000C0541EA045170BD41F480114FF0000E66
:1009C000013C90E645EA060E8DE60CEA135594EAE2
:1009D0000C0F08BF95EA0C0F3FF43BAF94EA0C0FE5
:1009E0000AD150EA01347FF434AF95EA0C0F7FF45A
:1009F00025AF104619462CE795EA0C0F06D152EAAE
:100A000003353FF4FDAE1046194622E750EA410691
:100A100018BF52EA43067FF4C5AE50EA41047FF4A2
:100A20000DAF52EA43057FF4EBAE12E74FF0FF3C07
:100A300006E000BF4FF0010C02E000BF4FF0010CD8
:100A40004DF804CD4FEA410C7FEA6C5C4FEA430C51
:100A500018BF7FEA6C5C1BD001B050EA410C0CBFA0
:100A600052EA430C91EA030F02BF90EA020F002002
:100A7000704710F1000F91EA030F58BF994208BF69
:100A800090422CBFD8176FEAE37040F00100704726
:100A90004FEA410C7FEA6C5C02D150EA013C07D17D
:100AA0004FEA430C7FEA6C5CD6D152EA033CD3D0C8
:100AB0005DF8040B704700BF8446104662468C46C2
:100AC0001946634600E000BF01B5FFF7B7FF0028F5
:100AD00048BF10F1000F01BD4DF808EDFFF7F4FF1E
:100AE0000CBF012000205DF808FB00BF4DF808EDA9
:100AF000FFF7EAFF34BF012000205DF808FB00BFCC
:100B00004DF808EDFFF7E0FF94BF012000205DF8ED
:100B100008FB00BF4DF808EDFFF7CEFF94BF0120A2
:100B200000205DF808FB00BF4DF808EDFFF7C4FF9B
:100B300034BF012000205DF808FB00BF4FEA410CE4
:100B40007FEA6C5C02D150EA013C0AD14FEA430CC7
:100B50007FEA6C5C02D152EA033C02D14FF0000004
:100B600070474FF0010070474FEA410212F5001242
:100B700015D211D56FF47873B3EB625212D94FEAE4
:100B8000C12343F0004343EA505311F0004F23FACE
:100B900002F018BF404270474FF00000704750EA23
:100BA000013005D111F0004008BF6FF000407047E0
:100BB0004FF00000704700BF53B94AB9002908BF81
:100BC00000281CBF4FF0FF314FF0FF3000F00CB891
:100BD000ADF1080C6DE904CE0CF0ECF9DDF804E0A1
:100BE000DDE9022304B07047704700BF0348044B9F
:100BF000834202D0034B03B118477047DC01002049
:100C0000DC010020000000000548064B1B1AD90F2C
:100C100001EBA301491002D0034B03B11847704701
:100C2000DC010020DC0100200000000010B5064CB3
:100C3000237843B9FFF7DAFF044B13B10448AFF34D
:100C400000800123237010BDDC01002000000000A3
:100C500070D2000808B5054B1BB105490548AFF334
:100C60000080BDE80840FFF7CFBF00BF00000000D4
:100C7000E001002070D20008022800D07047064929
:100C80000A780132054B83FB020303EB4303A2EB1B
:100C900043030B70F2E700BFF8010020ABAAAA2AB9
:100CA00008B50368B3F1804F00D008BD00F0CAF961
:100CB000FBE772B6FEE710B594B03822002106A813
:100CC00008F038FD002401940294039404940594E0
:100CD0004FF4007001F02EFA012306934FF4803395
:100CE00007930D9406A800F0EBF970B90F23019358
:100CF000022302938023039300210491059101A80C
:100D000000F094FC18B914B010BDFFF7D2FFFFF744
:100D1000D0FF000008B500F085F9FFF7CCFF00F028
:100D200031F805F075FD00F09DF803F0EFFB03F0DE
:100D300069FC03F093FC0F4C0F4A0321204602F09C
:100D40009DFC01220D49204603F0B6FA00224FF423
:100D500000510B4801F054F8002201214FF090405F
:100D600001F04EF807F09AFB06F0B0F807F0A8FB88
:100D7000FEE700BF94020020155500081C05002066
:100D800000080048F0B58BB0002405940694079441
:100D900008940994314BDA6C42F00402DA64DA6C9C
:100DA00002F004020192019ADA6C42F02002DA6445
:100DB000DA6C02F020020292029ADA6C42F001022E
:100DC000DA64DA6C02F001020392039ADA6C42F000
:100DD0000202DA64DB6C03F002030493049B204EEE
:100DE00022464FF40051304601F00AF822462121F4
:100DF0004FF0904001F004F84FF4005305930125A3
:100E0000069502270797089405A9304600F00EFFC3
:100E100005974FF488130693079405A9304600F010
:100E200005FF059506950794089405A94FF0904095
:100E300000F0FCFE2023059306950795089405A96C
:100E40004FF0904000F0F2FE22460521072001F00D
:100E500053FA072001F060FA0BB0F0BD0010024019
:100E60000008004808B51748174B0360174B43604C
:100E700000238360C36003610C2242618361C3610C
:100E800003624362836203F037F970B900210D48B1
:100E900003F080FA60B900210A4803F0A0FA50B9C3
:100EA000084803F058FA48B908BDFFF702FFEDE71C
:100EB000FFF7FFFEEFE7FFF7FCFEF1E7FFF7F9FEB4
:100EC000F2E700BF940200200038014020A1070093
:100ED00010B59CB0044600211791189119911A91F0
:100EE0001B91542202A808F025FC22681B4B9A4251
:100EF00001D01CB010BD01230293039302A800F09F
:100F0000D9FC40BB164B1A6E42F480421A661A6E28
:100F100002F480420092009ADA6C42F00402DA6431
:100F2000DB6C03F004030193019B3023179302232E
:100F30001893002419941A9407231B9317A909489E
:100F400000F074FE22460521252001F0D5F9252068
:100F500001F0E2F9CDE7FFF7ACFED3E7003801403E
:100F60000010024000080048FEE7FEE7FEE7FEE74B
:100F7000FEE7704708B5022000F050FF08BD0000F2
:100F800008B5024801F071F808BD00BF64030020F5
:100F900008B5024801F0A8FB08BD00BFC40300204B
:100FA00008B5024801F0A0FB08BD00BF7C2300206B
:100FB00008B5024804F012FA08BD00BF7004002012
:100FC00008B5024802F0D2FB08BD00BF9402002021
:100FD00008B5024801F049F808BD00BF1004002020
:100FE00000B583B00E4B1A6E42F001021A661A6EFB
:100FF00002F001020092009A9A6D42F080529A65C6
:101000009B6D03F080530193019B00220F216FF031
:10101000010001F071F901F013F903B05DF804FB70
:101020000010024010B5032001F054F90F2007F022
:10103000C5FD10B10124204610BD0446FFF7D0FFC6
:10104000F9E70000034A1368034909680B44136079
:10105000704700BF6003002000000020014B1868AB
:10106000704700BF60030020124BDA6802F00302F1
:10107000DB68C3F303130133032A11D00E48B0FB1E
:10108000F3F00C4BDB68C3F3062303FB00F0094BC2
:10109000DB68C3F3416301335B00B0FBF3F07047DF
:1010A0000648B0FBF3F0034BDB68C3F3062303FBF6
:1010B00000F0ECE7001002400024F40000366E015E
:1010C000002800F04F8270B582B00446036813F028
:1010D000010F37D0A44A936803F00C03D26802F0E2
:1010E00003020C2B23D0082B23D06368B3F5803F79
:1010F0004ED0B3F5A02F51D09B4B1A6822F480320A
:101100001A601A6822F480221A606368002B52D099
:10111000FFF7A4FF0546944B1B6813F4003F11D161
:10112000FFF79CFF401B6428F5D9032023E2032A24
:10113000D9D18D4B1B6813F4003F03D06368002B9B
:1011400000F01282236813F0020F5DD0864A936884
:1011500003F00C03D26802F003020C2B3AD0042BEC
:101160003AD0E368002B75D07F4A136843F480734C
:101170001360FFF773FF05467B4B1B6813F4806F0A
:101180005FD1FFF76BFF401B0228F5D90320F2E186
:10119000754A136843F480331360B6E703F1804364
:1011A000A3F53C331A6842F480221A601A6842F4AC
:1011B00080321A60A9E7FFF751FF05466A4B1B68AA
:1011C00013F4003FBED0FFF749FF401B6428F5D958
:1011D0000320D0E1022AC2D1634B1B6813F4806F55
:1011E00003D0E368002B00F0C1815F4A536823F00D
:1011F000FE43216943EA016353605C4B186807F0C2
:10120000DDFC002840F0B481236813F0080F4CD0B7
:1012100063699BB3544AD2F8943043F00103C2F897
:101220009430FFF71BFF05464F4BD3F8943013F073
:10123000020F3AD1FFF712FF401B0228F4D9032016
:1012400099E1494A536823F0FE43216943EA016367
:101250005360D9E7444A136823F480731360FFF79F
:10126000FDFE0546404B1B6813F4806FCCD0FFF7A2
:10127000F5FE401B0228F5D903207CE13A4AD2F85A
:10128000943023F00103C2F89430FFF7E7FE0546DF
:10129000354BD3F8943013F0020F06D0FFF7DEFE83
:1012A000401B0228F4D9032065E1236813F0040FE2
:1012B00000F081802C4B9B6D13F0805F36D12A4B60
:1012C0009A6D42F080529A659B6D03F080530193B2
:1012D000019B0125264B1B6813F4807F28D0A3684F
:1012E000012B39D0052B45D01F4BD3F8902022F08D
:1012F0000102C3F89020D3F8902022F00402C3F832
:101300009020A368002B43D0FFF7A8FE0646164B9B
:10131000D3F8903013F0020F4CD1FFF79FFE801BE3
:1013200041F288339842F2D9032024E10025D1E725
:101330000F4A136843F480731360FFF78FFE06466D
:101340000B4B1B6813F4807FC9D1FFF787FE801B0E
:101350000228F5D903200EE1034AD2F8903043F079
:101360000103C2F89030CCE70010024004000020D6
:1013700000700040884BD3F8902042F00402C3F87C
:101380009020D3F8902042F00102C3F89020B8E7F3
:10139000FFF764FE0646804BD3F8903013F0020F3F
:1013A00008D0FFF75BFE801B41F288339842F2D9E8
:1013B0000320E0E0E5B9236813F0200F35D0A369DE
:1013C000E3B1754AD2F8983043F00103C2F898307F
:1013D000FFF744FE0546704BD3F8983013F0020F28
:1013E00023D1FFF73BFE401B0228F4D90320C2E0C3
:1013F000694A936D23F080539365DCE7664AD2F81F
:10140000983023F00103C2F89830FFF727FE054615
:10141000614BD3F8983013F0020F06D0FFF71EFE91
:10142000401B0228F4D90320A5E0E369002B00F05B
:10143000A180594A926802F00C020C2A64D0022B57
:1014400013D0554A136823F080731360FFF706FE2C
:101450000446514B1B6813F0007F4ED0FFF7FEFD92
:10146000001B0228F5D9032085E04B4A136823F0BE
:1014700080731360FFF7F2FD0546474B1B6813F0BE
:10148000007F06D0FFF7EAFD401B0228F5D90320B4
:1014900071E0414AD36841491940236A606A0138C2
:1014A00043EA0013A06A43EA0023206B4008013896
:1014B00043EA4053606B4008013843EA4063E06A06
:1014C00043EAC0631943D160136843F0807313602B
:1014D000D36843F08073D360FFF7C0FD04462E4B02
:1014E0001B6813F0007F06D1FFF7B8FD001B022830
:1014F000F5D903203FE000203DE0274AD168284B82
:101500000B40D360002036E0012B36D0224BDB6845
:1015100003F00301226A914231D103F0F002616AC3
:101520000139B2EB011F2CD103F4FE42A16AB2EBE8
:10153000012F28D103F07842E16AB2EBC16F24D1C8
:1015400003F4C001226B5208013AB1EB425F1ED195
:1015500003F0C063626B5208013AB3EB426F18D1DB
:10156000002008E001207047012004E0012002E093
:10157000012000E0002002B070BD0120FBE7012047
:10158000F9E70120F7E70120F5E70120F3E7012063
:10159000F1E70120EFE700BF001002400C809F013F
:1015A000FCFFEEFE1E4B9B6803F00C03042B33D0B4
:1015B0001B4B9B6803F00C03082B2FD0184B9B6828
:1015C00003F00C030C2B01D000207047144BDA6899
:1015D00002F00302DB68C3F303130133032A11D0C3
:1015E0001048B0FBF3F00E4BDB68C3F3062303FB9C
:1015F00000F00B4BDB68C3F3416301335B00B0FBCE
:10160000F3F070470848B0FBF3F0054BDB68C3F319
:10161000062303FB00F0ECE70248704702487047DE
:10162000001002400024F40000366E01002800F093
:10163000E680F8B50C460546744B1B6803F00F03B3
:101640008B420BD2714A136823F00F030B431360D4
:10165000136803F00F038B4240F0D3802E6816F01E
:1016600001065FD06B68032B2FD0022B4DD0684B47
:101670001B6813F4806F00F0C680FFF793FF654B83
:1016800098424DD9624A936823F0F00343F08003F7
:10169000936080265E4A936823F0030369680B43D6
:1016A0009360FFF7DBFC0746594B9B6803F00C0384
:1016B0006A68B3EB820F35D0FFF7D0FCC01B41F254
:1016C00088339842F0D9032078E0514B1B6813F01F
:1016D000007F01D1012071E0FFF7C6FC4D4B98421D
:1016E0001AD94B4B9B6813F0F00F05D02E6816F0FB
:1016F0000206CFD0AB688BB9454A936823F0F0035C
:1017000043F0800393608026C4E7414B1B6813F4C9
:10171000003FB2D1012051E00026BBE70026B9E727
:101720000026B7E72B6813F0020F48D013F0040F20
:1017300004D0374A936843F4E06393602B6813F056
:10174000080F06D0324A936823F47C5343F4E063D5
:1017500093602F4A936823F0F003A9680B439360CA
:101760002A4B1B6803F00F03A34230D82B6813F0F9
:10177000040F06D0264A936823F4E063E9680B431C
:1017800093602B6813F0080F07D0214A936823F465
:101790006053296943EAC1039360FFF703FF1C4BC1
:1017A0009B68C3F303131C4AD35C03F01F03D840A8
:1017B0001A4B18601A4B186807F000FAF8BD802E13
:1017C000CED1134A936823F0F0039360C8E70F4A21
:1017D000136823F00F0323431360FFF73FFC064613
:1017E0000A4B1B6803F00F03A342BFD0FFF736FC80
:1017F000801B41F288339842F2D90320DEE70120B2
:1018000070470120DAE70120D8E700BF002002403E
:101810000010024000B4C404B8D200080800002040
:1018200004000020014B1868704700BF080000202A
:1018300008B5FFF7F7FF054B9B68C3F30223044A83
:10184000D35C03F01F03D84008BD00BF0010024066
:10185000B0D2000808B5FFF7E5FF054B9B68C3F35E
:10186000C223044AD35C03F01F03D84008BD00BF65
:1018700000100240B0D200080F2303600B4B9A689F
:1018800002F0030242609A6802F0F00282609A68F5
:1018900002F4E062C2609B68DB0803F4E06303616A
:1018A000034B1B6803F00F030B60704700100240EE
:1018B00000200240F0B583B00446036813F4002F03
:1018C0006ED0354B9B6D13F0805F1ED1324B9A6DFD
:1018D00042F080529A659B6D03F080530193019B07
:1018E00001262E4A136843F480731360FFF7B6FB9A
:1018F00005462A4B1B6813F4807F08D1FFF7AEFB27
:10190000401B0228F5D9032502E00026E9E700255F
:1019100045BB214BD3F8903013F4407315D0226DA2
:101920009A4212D01C4AD2F8903023F44073D2F875
:10193000901041F48031C2F89010D2F8901021F448
:101940008031C2F89010C2F8903013F0010F10D11E
:1019500045B9114AD2F8903023F44073216D0B43FE
:10196000C2F89030EEB10C4A936D23F0805393652A
:1019700017E0FFF773FB0746074BD3F8903013F0DF
:10198000020FE5D1FFF76AFBC01B41F28833984292
:10199000F2D90325DCE700BF0010024000700040D0
:1019A0000025236813F0010F08D09F4AD2F8883031
:1019B00023F0030361680B43C2F88830236813F0F7
:1019C000020F08D0984AD2F8883023F00C03A1689F
:1019D0000B43C2F88830236813F0040F08D0924AF2
:1019E000D2F8883023F03003E1680B43C2F8883026
:1019F000236813F0080F08D08B4AD2F8883023F000
:101A0000C00321690B43C2F88830236813F0100F1C
:101A100008D0854AD2F8883023F4407361690B43BB
:101A2000C2F88830236813F0200F08D07E4AD2F81D
:101A3000883023F44063A1690B43C2F888302368DF
:101A400013F0400F08D0784AD2F8883023F440537E
:101A5000E1690B43C2F88830236813F0800F08D087
:101A6000714AD2F8883023F44043216A0B43C2F80C
:101A70008830236813F4807F08D06B4AD2F888300E
:101A800023F44033616A0B43C2F88830236813F4AF
:101A9000003F08D0644AD2F89C3023F00303A16AC7
:101AA0000B43C2F89C30236813F4007F08D05E4AD1
:101AB000D2F8883023F44023E16A0B43C2F888301F
:101AC000236813F4806F0CD0574AD2F8883023F47F
:101AD0004013216B0B43C2F88830236BB3F5801F92
:101AE00079D0236813F4006F0CD04F4AD2F88830B5
:101AF00023F44003616B0B43C2F88830636BB3F58A
:101B0000800F6DD0236813F4805F0CD0464AD2F862
:101B1000883023F04073A16B0B43C2F88830A36B6D
:101B2000B3F1807F61D0236813F4005F0CD03E4A8C
:101B3000D2F8883023F04063E16B0B43C2F8883061
:101B4000E36BB3F1006F55D0236813F4804F0CD0D2
:101B5000354AD2F8883023F04063216C0B43C2F839
:101B60008830236CB3F1006F49D0236813F4004F21
:101B70000CD02D4AD2F8883023F04053616C0B43CF
:101B8000C2F88830636CB3F1805F3DD0236813F4F2
:101B9000803F0CD0244AD2F8883023F04043A16C17
:101BA0000B43C2F88830A36CB3F1804F31D0236867
:101BB00013F4802F0CD01C4AD2F89C3023F440132D
:101BC000E16C0B43C2F89C30E36CB3F5001F25D0E9
:101BD000284603B0F0BDD36843F48013D36080E798
:101BE000D36843F48013D3608CE7D36843F4801345
:101BF000D36098E7D36843F48013D360A4E7D36835
:101C000043F48013D360B0E7D36843F48033D360E8
:101C1000BCE7D36843F48033D360C8E7D36843F4A8
:101C20008013D360D4E700BF00100240F0B583B04A
:101C3000002362E085685E000324B44025EA0405C1
:101C4000CC68B4402C438460456825EA0C054C6898
:101C5000C4F300149C402C4344605FE0DD08083569
:101C600050F8254003F0070C4FEA8C0C4FF00F0E94
:101C70000EFA0CFE24EA0E0E0C6904FA0CF444EA87
:101C80000E0440F8254060E0052400E0002404FA3A
:101C90000EF42C430CF1020C554D45F82C40554CDC
:101CA000A568D44325EA02064F6817F4801F01D0C7
:101CB00042EA05064F4DAE60ED6804EA05064F683E
:101CC00017F4001F01D042EA05064A4DEE606D6828
:101CD00004EA05064F6817F4003F01D042EA050602
:101CE000444D6E602D682C404E6816F4803F01D044
:101CF00042EA05043F4A146001330A6832FA03F4E9
:101D000074D04FF0010C0CFA03FC1CEA0202F3D071
:101D10004C6804F00304013C012C8BD94C6804F09E
:101D20000304032C0CD0C4685D004FF0030C0CFAC4
:101D300005FC24EA0C0C8C68AC4044EA0C04C4603A
:101D40004C6804F00304022C88D004684FEA430E68
:101D50004FF0030C0CFA0EFC24EA0C0C4C6804F057
:101D6000030404FA0EF444EA0C0404604C6814F40E
:101D7000403FC1D0204C256E45F001052566246EFC
:101D800004F001040194019C4FEA930C0CF102054C
:101D9000174C54F8255003F0030E4FEA8E0E0F2413
:101DA00004FA0EF425EA0405B0F1904F3FF46EAF4B
:101DB000124CA04212D004F58064A04210D004F569
:101DC0008064A0420ED004F58064A0420CD004F5DB
:101DD0008064A0423FF458AF062458E7012456E738
:101DE000022454E7032452E7042450E703B0F0BD73
:101DF00000000140000401400010024000040048BF
:101E00000AB18161704781627047436901EA030248
:101E100021EA030141EA02418161704708B5054B9F
:101E20005B69034200D108BD024B5861FEF724FFF5
:101E3000F9E700BF0004014003680C4A934213D83D
:101E40000B49DBB2083B0B4AA2FB0323426C22F096
:101E500003020A448264084AC264C3F304130122E1
:101E600002FA03F3036570470449EAE707040240F6
:101E700000080240CDCCCCCC8008024020080240B3
:101E80000379074A1A4492004265064A8265013B7B
:101E900003F01F03012202FA03F3C365704700BF7A
:101EA0003F8200104009024000285BD010B5044674
:101EB00001682D4B99423DD82C4B0B442C4AA2FB78
:101EC00003231B099B0043642A4B0364022384F809
:101ED00025300A6822F4FF4222F07002A368E0680D
:101EE00003432069034360690343A0690343E06936
:101EF0000343206A034313430B602046FFF79CFF14
:101F0000A368B3F5804F20D0A36C22791A60E36CEC
:101F1000226D5A606368013B032B19D90023636566
:101F2000A365E3650020E063012384F8253084F88D
:101F3000240010BD104B0B440D4AA2FB03231B09C8
:101F40009B0043640D4B0364C0E700236360DBE741
:101F50002046FFF795FF636D00221A60A36DE26DC6
:101F60005A60DFE70120704707040240F8FFFDBF19
:101F7000CDCCCCCC00000240F8FBFDBF00040240F9
:101F8000034690F82520D2B2022A09D00422C26367
:101F90000120012283F82520002283F824207047A5
:101FA00001680A6822F00E020A60816C0A6822F455
:101FB00080720A6001680A6822F001020A60426CBD
:101FC00002F01F01006C01228A404260DA6C196D38
:101FD00051605A6D42B1116821F4807111609A6D9F
:101FE000D96D51600020D4E70020D2E708B590F801
:101FF0002530DBB2022B09D00423C363012380F810
:102000002530002280F82420184608BD0268136895
:1020100023F00E0313600268136823F001031360BA
:10202000826C136823F480731360436C03F01F0207
:10203000016C012393404B60C36C026D5A60436D89
:1020400033B11A6822F480721A60836DC26D5A60CF
:10205000012380F82530002380F82430836B13B1EE
:1020600098470020D1E70020CFE738B5036C196806
:1020700004682568436C03F01F0304229A400A4257
:1020800015D015F0040F12D0236813F0200F03D1E0
:10209000236823F004032360436C03F01F02016CE8
:1020A000042393404B60036B03B1984738BD022271
:1020B0009A400A421CD015F0020F19D0236813F081
:1020C000200F06D1236823F00A032360012380F840
:1020D0002530436C03F01F02016C022393404B60D8
:1020E000002380F82430C36A002BDFD09847DDE757
:1020F000082202FA03F30B42D8D015F0080FD5D00E
:10210000236823F00E032360436C03F01F03016C6C
:10211000012202FA03F34B60C26380F825200023FA
:1021200080F82430436B002BC0D09847BEE790F86E
:1021300025007047002836D13E4B1B6803F4C0636E
:10214000B3F5806F08D03B4AD2F8803023F4807317
:10215000C2F8803000207047364AD2F8803023F42D
:102160008073C2F88030136823F4C06343F40073B3
:102170001360314B1B68322202FB03F32F4AA2FB90
:1021800003239B0C013300E0013B2A4A526912F4FD
:10219000806F01D0002BF7D1264B5B6913F4806F61
:1021A00044D100207047B0F5007F08D0214A136861
:1021B00023F4C06343F480631360002070471D4B19
:1021C0001B6803F4C063B3F5806F08D0194AD2F8D6
:1021D000803043F48073C2F8803000207047154A85
:1021E000D2F8803043F48073C2F88030136823F44F
:1021F000C06343F4007313600F4B1B68322202FB71
:1022000003F30E4AA2FB03239B0C013300E0013BC6
:10221000084A526912F4806F01D0002BF7D1054BA8
:102220005B6913F4806F03D100207047032070476F
:1022300003207047007000400800002083DE1B432D
:10224000024A936843F480439360704700700040F3
:10225000002807DB00F01F02400901239340024AD7
:1022600042F82030704700BF00E100E0002808DBA2
:102270000901C9B200F1604000F5614080F8001327
:10228000704700F00F000901C9B2014B19547047A3
:1022900014ED00E000B500F00700C0F1070CBCF140
:1022A000040F28BF4FF0040C031D062B0FD9C31ECB
:1022B0004FF0FF3E0EFA0CF021EA000199400EFAB1
:1022C00003FE22EA0E0241EA02005DF804FB00234D
:1022D000EEE70000074AD36823F4E0631B041B0CFD
:1022E000000200F4E060034343F0BF6343F40033B3
:1022F000D360704700ED00E010B50446054BD86888
:10230000C0F30220FFF7C6FF01462046FFF7AEFFED
:1023100010BD00BF00ED00E008B5FFF799FF08BD54
:1023200030B4026A036A23F00103036244688369DC
:1023300023F4803323F073030D681D4322F002025F
:102340008B681343204A904213D002F500629042FA
:102350000FD002F5406290420BD002F580629042AD
:1023600007D002F58062904203D002F500629042ED
:1023700005D123F00803CA681A4322F00403124A65
:10238000904213D002F5006290420FD002F54062F5
:1023900090420BD002F58062904207D002F5806235
:1023A000904203D002F50062904205D124F44074BB
:1023B0004A6922438C691443446085614A684263D8
:1023C000036230BC704700BF002C014030B4036A88
:1023D000026A22F4807202624468C26922F4803286
:1023E00022F073020D68154323F400738A6843EAF0
:1023F00002231C4A904207D002F50062904203D0AB
:1024000002F5E052904206D123F40063CA6843EA21
:10241000022323F48063134A904213D002F5006232
:1024200090420FD002F5406290420BD002F58062DC
:10243000904207D002F58062904203D002F500621C
:10244000904207D124F440524C6942EA04128C694C
:1024500042EA04144460C5614A68C263036230BC46
:10246000704700BF002C014030B4036A026A22F4B6
:10247000805202624468C26922F0807222F4E6420D
:102480000D6842EA052223F400538D6843EA0533C0
:102490001B4DA84207D005F50065A84203D005F5FD
:1024A000E055A84206D123F40043CD6843EA053342
:1024B00023F48043124DA84213D005F50065A842CD
:1024C0000FD005F54065A8420BD005F58065A84200
:1024D00007D005F58065A84203D005F50065A84240
:1024E00007D124F4404C4C694CEA841C8C694CEABA
:1024F00084144460C2614A680264036230BC70475D
:10250000002C014030B4036A026A22F48032026275
:102510004468026D22F4803222F070020D68154387
:1025200023F400338A6843EA0243114A904213D0ED
:1025300002F5006290420FD002F5406290420BD04B
:1025400002F58062904207D002F58062904203D08B
:1025500002F50062904204D124F480344A6944EACE
:102560000224446005654A688264036230BC704797
:10257000002C014030B4036A026A22F48012026225
:102580004468026D22F0807222F4E0420D6842EA53
:10259000052223F400138D6843EA0553114DA84228
:1025A00013D005F50065A8420FD005F54065A84297
:1025B0000BD005F58065A84207D005F58065A842D7
:1025C00003D005F50065A84204D124F480244D69A8
:1025D00044EA8524446002654A68C264036230BCF0
:1025E000704700BF002C014010B4036A046A24F055
:1025F00001040462846924F0F00C4CEA021223F016
:102600000A030B43826103625DF8044B704710B408
:10261000036A046A24F010040462846924F4704C90
:102620004CEA023223F0A00343EA01138261036201
:102630005DF8044B7047836823F4401323F0700364
:102640000B4343F0070383607047000090F83D3070
:10265000DBB2012B3AD1022380F83D300268D36807
:1026600043F00103D36003681B4A934220D0B3F1C7
:10267000804F1DD0A2F59432934219D002F58062AA
:10268000934215D002F58062934211D002F5943244
:1026900093420DD002F54062934209D002F5805278
:1026A000934205D01A6842F001021A600020704778
:1026B00099680A4A0A40062A0AD0B2F5803F09D032
:1026C0001A6842F001021A6000207047012070472A
:1026D0000020704700207047002C014007000100D7
:1026E000704770477047704770B505460368DE68ED
:1026F0001C6914F0020F10D016F0020F0DD06FF00D
:1027000002021A610123037703689B6913F0030F28
:102710007CD0FFF7E7FF00232B7714F0040F12D0D3
:1027200016F0040F0FD02B686FF004021A61022319
:102730002B772B689B6913F4407F6DD02846FFF7F9
:10274000D1FF00232B7714F0080F12D016F0080FDA
:102750000FD02B686FF008021A6104232B772B68C7
:10276000DB6913F0030F5ED02846FFF7BBFF0023A1
:102770002B7714F0100F12D016F0100F0FD02B681B
:102780006FF010021A6108232B772B68DB6913F4B2
:10279000407F4FD02846FFF7A5FF00232B7714F08A
:1027A000010F02D016F0010F4BD114F4025F02D0DA
:1027B00016F0800F4DD114F4807F02D016F0800FF8
:1027C0004FD114F0400F02D016F0400F51D114F049
:1027D000200F02D016F0200F53D114F4801F02D026
:1027E00016F4801F55D114F4001F02D016F4001FF8
:1027F00057D114F4800F02D016F4800F59D114F47D
:10280000000F02D016F4000F5BD170BDFFF769FF17
:10281000284602F0ADFE7EE72846FFF762FF284615
:1028200002F0A6FE8DE72846FFF75BFF284602F080
:102830009FFE9CE72846FFF754FF284602F098FECB
:10284000ABE72B686FF001021A612846FEF728FA01
:10285000ABE72B686FF402521A61284600F00BFCBC
:10286000A9E72B686FF480721A61284600F004FC17
:10287000A7E72B686FF040021A612846FFF733FF85
:10288000A5E72B686FF020021A61284600F0F2FBE2
:10289000A3E72B686FF480121A61284600F0EDFB65
:1028A000A1E72B686FF400121A61284600F0E6FBDE
:1028B0009FE72B686FF480021A61284600F0DFFB67
:1028C0009DE72B686FF400021A61284600F0D8FBE0
:1028D0009BE7000003683A4A904216D0B0F1804F5F
:1028E00013D0A2F5943290420FD002F5806290424C
:1028F0000BD002F58062904207D002F594329042EC
:1029000003D002F5E052904203D123F070034A68ED
:1029100013432B4A904222D0B0F1804F1FD0A2F532
:10292000943290421BD002F58062904217D002F59B
:102930008062904213D002F5943290420FD002F59B
:10294000406290420BD002F58062904207D002F5BF
:102950008062904203D002F50062904203D123F4DA
:102960004073CA68134323F080034A69134303602A
:102970008B68C3620B688362114B984213D003F5D6
:10298000006398420FD003F5406398420BD003F5E3
:102990008063984207D003F58063984203D003F523
:1029A0000063984201D10B6903630123436103690A
:1029B00013F0010F03D0036923F001030361704793
:1029C000002C014060B310B5044690F83D3013B3BD
:1029D000022384F83D30214651F8040BFFF77AFFBB
:1029E000012384F8483084F83E3084F83F3084F87E
:1029F000403084F8413084F8423084F8433084F821
:102A0000443084F8453084F8463084F8473084F800
:102A10003D30002010BD80F83C3001F00FFDD7E7BD
:102A20000120704760B310B5044690F83D3013B3F1
:102A3000022384F83D30214651F8040BFFF74AFF8A
:102A4000012384F8483084F83E3084F83F3084F81D
:102A5000403084F8413084F8423084F8433084F8C0
:102A6000443084F8453084F8463084F8473084F8A0
:102A70003D30002010BD80F83C30FFF731FED7E735
:102A80000120704730B4036A026A22F01002026229
:102A90004468826922F0807222F4E6420D6842EABC
:102AA000052223F020038D6843EA05131B4DA8423D
:102AB00007D005F50065A84203D005F5E055A8420A
:102AC00006D123F08003CD6843EA051323F04003C9
:102AD000124DA84213D005F50065A8420FD005F5A8
:102AE0004065A8420BD005F58065A84207D005F5E2
:102AF0008065A84203D005F50065A84207D124F4FB
:102B0000406C4C694CEA840C8C694CEA8404446047
:102B100082614A688263036230BC7047002C0140C6
:102B200038B590F83C30012B00F0958004460D46F6
:102B3000012380F83C30142A00F28880DFE802F09C
:102B40000B8686861F868686348686864886868697
:102B50005D86868671000068FFF7E2FB2268936954
:102B600043F0080393612268936923F0040393619F
:102B70002268936929690B439361002067E000682C
:102B8000FFF780FF2268936943F400639361226832
:102B9000936923F48063936122689369296943EA06
:102BA00001239361002052E00068FFF70FFC2268C8
:102BB000D36943F00803D3612268D36923F0040387
:102BC000D3612268D36929690B43D36100203EE0B9
:102BD0000068FFF749FC2268D36943F40063D361BE
:102BE0002268D36923F48063D3612268D369296999
:102BF00043EA0123D361002029E00068FFF782FC4B
:102C00002268136D43F0080313652268136D23F0E7
:102C1000040313652268136D29690B4313650020B3
:102C200015E00068FFF7A6FC2268136D43F400630B
:102C300013652268136D23F4806313652268136D96
:102C4000296943EA01231365002000E001200023E5
:102C500084F83C3038BD0220FCE710B4846824F4CA
:102C60007F4C42EA03220A4342EA0C0282605DF88A
:102C7000044B704790F83C30012B00F09B8010B55E
:102C80000446012380F83C30022380F83D3002687E
:102C90009068494B034093600B68702B61D031D82A
:102CA000502B78D00CD9602B2AD1CA68496820688B
:102CB000FFF7ADFC60212068FFF7BDFC002038E085
:102CC000402B0AD1CA6849682068FFF78DFC402173
:102CD0002068FFF7B0FC00202BE067D8202B07D03E
:102CE00003D9302B04D0012023E00BB1102B05D1E8
:102CF00019462068FFF79FFC00201AE0012018E029
:102D0000012016E0B3F5005F38D00ED92B4A93426C
:102D1000EED015D92A4A9342EAD010329342E7D036
:102D2000203A9342E4D0012003E0B3F5805F3FD125
:102D30000020012384F83D30002384F83C3010BD8E
:102D4000203A9342D4D004D91E4A9342D0D00120D5
:102D5000EFE7B3F5801FCBD0B3F1101FC8D001202F
:102D6000E7E7CB684A6889682068FFF776FF226842
:102D7000936843F0770393600020DAE7CB684A68F2
:102D800089682068FFF769FF2268936843F48043ED
:102D900093600020CDE7CA6849682068FFF724FCEB
:102DA00050212068FFF747FC0020C2E70120C0E760
:102DB0000120BEE7022070478800CEFF40001000CF
:102DC000600010003000100001F01F014FF0010CF6
:102DD0000CFA01FC036A23EA0C030362036A8A40CB
:102DE000134303627047000038B505460C460C29B2
:102DF00000F29180DFE801F0078F8F8F4F8F8F8F68
:102E0000588F8F8F61000268D36823F40073D360FA
:102E1000406AFFF7EBF8002221462868FFF7D4FF4D
:102E20002B683E4A934213D002F5006293420FD0C2
:102E300002F5406293420BD002F58062934207D0C4
:102E400002F58062934203D002F5006293420DD1F5
:102E5000196A41F21112114208D1196A44F244422E
:102E6000114203D15A6C22F400425A642B68196A49
:102E700041F21112114208D1196A44F2444211423E
:102E800003D11A6822F001021A60FCB9012385F807
:102E90003E30002040E00268D36823F48063D360B2
:102EA000806AFFF7A3F8B6E70268D36823F40063EB
:102EB000D360C06AFFF79AF8ADE70268D36823F4DD
:102EC0008053D360006BFFF791F8A4E7043C0C2C0F
:102ED0001CD8DFE804F0071B1B1B0C1B1B1B111B62
:102EE0001B1B1600012385F83F30002014E001234E
:102EF00085F8403000200FE0012385F841300020A4
:102F00000AE0012385F84230002005E0012385F81E
:102F10004330002000E0012038BD00BF002C0140FC
:102F200090F83C20012A4CD030B40346012280F8AE
:102F30003C20022280F83D20006842688468224DCF
:102F4000A84207D005F50065A84203D005F5E05575
:102F5000A84203D122F470024D682A4322F0007285
:102F600022F070020D682A4342601A6816488242B5
:102F70001AD0B2F1804F17D0A0F59430824213D00E
:102F800000F5806082420FD000F5806082420BD055
:102F900000F59430824207D000F54060824203D0B1
:102FA00000F58050824204D124F0800489682143D6
:102FB0009160012283F83D20002083F83C0030BC62
:102FC00070470220704700BF002C014090F83C3051
:102FD000012B4AD010B40246012380F83C30CB6864
:102FE00023F440738868034323F4806348680343F1
:102FF00023F400630868034323F480530869034300
:1030000023F400534869034323F48043086B0343CC
:1030100023F47023886943EA004323F08053C8698E
:1030200003431068124CA04207D004F50064A0428C
:1030300003D004F5E054A04210D123F470038C6A4D
:1030400043EA045323F080730C6A234323F0007394
:103050004C6A234323F00053C96A0B4343640020A6
:1030600082F83C005DF8044B70470220704700BFB7
:10307000002C014070477047704770477047704799
:103080007047704770477047704770477047704788
:1030900070477047026852E8003F23F4907342E89B
:1030A00000310029F6D1026802F1080353E8003F1D
:1030B00023F0805323F00103083242E80031002955
:1030C000F1D1C36E012B06D02023C0F88C30002331
:1030D000C36643677047026852E8003F23F010035D
:1030E00042E800310029F6D1EEE708B5806A0023F6
:1030F000A0F85E30A0F85630D0F8A430984708BD4C
:1031000008B5026852E8003F23F0400342E800316E
:103110000029F6D12023C0F8883000238367D0F837
:103120009830984708BD000008B5B0F86030D0F876
:103130008C20222A05D00268936943F0080393612A
:1031400008BD0268516ADBB2826D0B401370836D5B
:1031500001338365B0F85E309BB2013B9BB2A0F8AF
:103160005E30B0F85E309BB2002BE9D1026852E8C5
:10317000003F23F4907342E800310029F6D1026841
:1031800002F1080353E8003F23F00103083242E84C
:1031900000310029F3D12023C0F88C30002343678D
:1031A00003670368174A93420CD05B6813F4000F5F
:1031B00008D0026852E8003F23F0806342E8003103
:1031C0000029F6D1C36E012B03D0D0F8A030984768
:1031D000B6E70023C366026852E8003F23F01003FD
:1031E00042E800310029F6D10368DA6912F0100FC5
:1031F00001D010221A62D0F8C030B0F85C109847A5
:103200009EE700BF0080004008B5B0F86020D0F80D
:103210008C30222B05D00268936943F00803936138
:1032200008BD03685B6A816D13400B80836D0233B8
:103230008365B0F85E309BB2013B9BB2A0F85E3074
:10324000B0F85E309BB2002BEAD1026852E8003F32
:1032500023F4907342E800310029F6D1026802F1AC
:10326000080353E8003F23F00103083242E800312D
:103270000029F3D12023C0F88C3000234367036773
:103280000368174A93420CD05B6813F4000F08D010
:10329000026852E8003F23F0806342E800310029D1
:1032A000F6D1C36E012B03D0D0F8A0309847B7E712
:1032B0000023C366026852E8003F23F0100342E88F
:1032C00000310029F6D10368DA6912F0100F01D03D
:1032D00010221A62D0F8C030B0F85C1098479FE70F
:1032E000008000402DE9F843B0F860600368DD69B4
:1032F000D3F80090D3F80880D0F88C20222A05D08B
:103300009A6942F008029A61BDE8F8830446B0F871
:1033100068700EE0D4F8903033B1D4F8A430204671
:1033200098470023C4F89030B4F85E309BB2002B6D
:1033300047D0002F00F0958015F0200F00F091800D
:103340002368596AF3B2A26D0B401370A36D013369
:10335000A365B4F85E309BB2013B9BB2A4F85E302B
:103360002368DD6915F0070FDED015F0010F09D0D5
:1033700019F4807F06D001221A62D4F890301343EA
:10338000C4F8903015F0020F0BD018F0010F08D0E0
:10339000236802221A62D4F8903043F00403C4F880
:1033A000903015F0040FB5D018F0010FB2D023689B
:1033B00004221A62D4F8903043F00203C4F890302B
:1033C000A8E7226852E8003F23F4807342E8003106
:1033D0000029F6D1226802F1080353E8003F23F0E8
:1033E000805323F00103083242E800310029F1D173
:1033F0002023C4F88C3000236367236723682A4A9C
:10340000934203D05B6813F4000F07D1E36E012BE6
:103410000ED0D4F8A030204698478AE7226852E8B8
:10342000003F23F0806342E800310029F6D1EDE748
:103430000023E366226852E8003F23F0100342E8CD
:1034400000310029F6D12368DA6912F0100F01D09B
:1034500010221A62D4F8C030B4F85C1020469847A5
:1034600067E7B4F85E309BB2002B3FF44DAFB4F881
:1034700068209A427FF648AF226802F1080353E8B9
:10348000003F23F08053083242E800310029F3D195
:10349000064B6367226852E8003F43F0200342E88E
:1034A00000310029F6D12FE70080004029310008C3
:1034B0002DE9F843B0F860600368DD69D3F8009047
:1034C000D3F80880D0F88C20222A05D09A6942F0DF
:1034D00008029A61BDE8F8830446B0F868700EE00F
:1034E000D4F8903033B1D4F8A43020469847002364
:1034F000C4F89030B4F85E309BB2002B46D0002F59
:1035000000F0948015F0200F00F0908023685B6A33
:10351000A26D33401380A36D0233A365B4F85E300F
:103520009BB2013B9BB2A4F85E302368DD6915F0C5
:10353000070FDFD015F0010F09D019F4807F06D0F6
:1035400001221A62D4F890301343C4F8903015F079
:10355000020F0BD018F0010F08D0236802221A6264
:10356000D4F8903043F00403C4F8903015F0040F01
:10357000B6D018F0010FB3D0236804221A62D4F831
:10358000903043F00203C4F89030A9E7226852E873
:10359000003F23F4807342E800310029F6D122680D
:1035A00002F1080353E8003F23F0805323F00103A6
:1035B000083242E800310029F1D12023C4F88C30D0
:1035C00000236367236723682A4A934203D05B681A
:1035D00013F4000F07D1E36E012B0ED0D4F8A03006
:1035E000204698478BE7226852E8003F23F080632B
:1035F00042E800310029F6D1EDE70023E3662268B6
:1036000052E8003F23F0100342E800310029F6D1D0
:103610002368DA6912F0100F01D010221A62D4F870
:10362000C030B4F85C102046984768E7B4F85E30C4
:103630009BB2002B3FF44EAFB4F868209A427FF65D
:1036400049AF226802F1080353E8003F23F080539A
:10365000083242E800310029F3D1074B6367226842
:1036600052E8003F43F0200342E800310029F6D140
:1036700030E700BF0080004009320008A2B110B45A
:10368000D0F88830202B17D0D0F88830002B62D1AA
:103690000B2958D00C295AD0D0F8903043F0400371
:1036A000C0F8903001205DE0D0F8903043F0400346
:1036B000C0F89030012070470C293CD8DFE801F0B9
:1036C000070B0F13171B1F23272B2F333700C0F8AF
:1036D0009420084646E0C0F89820002042E0C0F858
:1036E0009C2000203EE0C0F8A02000203AE0C0F876
:1036F000A420002036E0C0F8A820002032E0C0F866
:10370000AC2000202EE0C0F8B02000202AE0C0F855
:10371000B420002026E0C0F8B820002022E0C0F845
:10372000BC2000201EE0C0F8C42000201AE0C0F831
:10373000C820002016E0D0F8903043F04003C0F8D5
:10374000903001200EE0C0F8C42000200AE0C0F84C
:10375000C820002006E0D0F8903043F04003C0F8C5
:10376000903001205DF8044B7047000070B50446AE
:103770000268D3691068916840F60F0C13EA0C0FC9
:103780000DD113F0200F10D010F0200F02D111F046
:10379000805F0AD0636F0BB12046984770BD9A4D89
:1037A0000D4030D1994E30422DD1E56E012D00F003
:1037B000C78013F4801F03D011F4800F40F067819D
:1037C00013F0800F07D010F0800F40F0688111F4E3
:1037D000000F40F0648113F0400F03D010F0400F51
:1037E00040F0648113F4000F03D010F0804F40F0DC
:1037F000618113F0807FD1D00028CFDAD4F8B830BF
:1038000020469847CAE713F0010F09D010F4807FD3
:1038100006D001261662D4F890203243C4F89020D6
:1038200013F0020F0BD011F0010F08D0226802260E
:103830001662D4F8902042F00402C4F8902013F0ED
:10384000040F0BD011F0010F08D022680426166275
:10385000D4F8902042F00202C4F8902013F0080F30
:103860000BD010F0200F00D13DB122680825156261
:10387000D4F890202A43C4F8902013F4006F0CD0A1
:1038800010F0806F09D022684FF400651562D4F8FB
:10389000902042F02002C4F89020D4F89020002A12
:1038A0003FF47CAF13F0200F09D010F0200F02D1AD
:1038B00011F0805F03D0636F0BB120469847D4F8B6
:1038C000902023689B6813F0400F02D112F0280F5C
:1038D0002ED02046FFF7DEFB23689B6813F0400FD5
:1038E00021D0226802F1080353E8003F23F040038F
:1038F000083242E800310029F3D1D4F880306BB1AE
:10390000434A9A63D4F88000FEF770FB00283FF426
:1039100045AFD4F88000836B98473FE7D4F8A430D4
:10392000204698473AE7D4F8A4302046984735E730
:10393000D4F8A430204698470023C4F890302DE7EF
:1039400013F0100F3FF435AF10F0100F3FF431AF0C
:103950001023136223689B6813F0400F5AD0D4F8E9
:10396000802013685B689BB2002B3FF417AFB4F85C
:103970005C1099427FF612AFA4F85E3013681B68A2
:1039800013F0200F32D1226852E8003F23F48073F5
:1039900042E800310029F6D1226802F1080353E819
:1039A000003F23F00103083242E800310029F3D13F
:1039B000226802F1080353E8003F23F04003083275
:1039C00042E800310029F3D12023C4F88C300023D1
:1039D000E366226852E8003F23F0100342E800311A
:1039E0000029F6D1D4F88000FEF7CAFA0223236733
:1039F000D4F8C020B4F85C10B4F85E309BB2C91A99
:103A000089B220469047C9E6010000102001000459
:103A1000EB300008B4F85C10B4F85E309BB2C91A01
:103A200089B2B4F85E309BB2002B3FF4B7AE0029E8
:103A30003FF4B4AE226852E8003F23F4907342E8AA
:103A400000300028F6D1226802F1080353E8003F55
:103A500023F0805323F00103083242E800300028AD
:103A6000F1D12023C4F88C300023E3666367226819
:103A700052E8003F23F0100342E800300028F6D15E
:103A800002232367D4F8C0302046984786E64FF4D7
:103A900080131362D4F8B430204698477EE6A36FB3
:103AA000002B3FF47BAE2046984777E62046FFF791
:103AB00027FB73E6D4F8BC30204698476EE600BF7B
:103AC000124BC0F89430124BC0F89830114BC0F82C
:103AD0009C30114BC0F8A030104BC0F8A430104BF4
:103AE000C0F8A8300F4BC0F8AC300F4BC0F8B03066
:103AF0000E4BC0F8B4300E4BC0F8B8300D4BC0F8C8
:103B0000BC300D4BC0F8C030704700BF8530000896
:103B10008330000889300008873000088B300008A7
:103B20008D3000088F3000089130000851430008A4
:103B300053430008554300089330000870B504460D
:103B4000016883680269134342691343C2691343DE
:103B50000868964A02401A430A602268536823F4B0
:103B60004053E1680B435360A1692268904B9A422D
:103B700001D0236A1943936823F06E4323F4306322
:103B80000B4393602268D36A23F00F03616A0B43EF
:103B9000D3622368874A934210D0874A934221D048
:103BA000864A934237D0864A93425CD0854A9342F4
:103BB0006BD07F4A93427DD010223AE002F5584202
:103BC000D2F8882002F00302032A09D8DFE802F0C5
:103BD0000204870601222CE004222AE0082228E0C1
:103BE000102226E002F5E632D2F8882002F00C021C
:103BF0000C2A0ED8DFE802F0070D0D0D090D0D0D92
:103C0000750D0D0D0B00002213E0042211E00822B7
:103C10000FE010220DE002F5E432D2F8882002F025
:103C20003002202A5FD01AD8002A5ED0102A5ED136
:103C300004225F498B4276D0E069B0F5004F00F076
:103C4000C980082A00F23481DFE812F0F700190178
:103C5000F50032011C013201320132011F01302A0C
:103C600047D10822E5E702F5E232D2F8882002F0D7
:103C7000C002802A3FD004D8FAB3402A3FD10422A0
:103C8000D7E7C02A3DD10822D3E702F5E032D2F8C7
:103C9000882002F44072B2F5007F34D005D8A2B378
:103CA000B2F5807F33D10422C3E7B2F5407F30D133
:103CB0000822BEE702F5C832D2F8882002F440623A
:103CC000B2F5006F27D005D83AB3B2F5806F26D190
:103CD0000422AEE7B2F5406F23D10822A9E7022201
:103CE000A7E70222A5E70222A3E70022A1E710220C
:103CF0009FE710229DE702229BE7002299E710220E
:103D000097E7102295E7022293E7002291E710221D
:103D10008FE710228DE702228BE7002289E710222D
:103D200087E7102285E7082A00F2B280DFE802F078
:103D300008B03BB038B0B0B005004FF4004004E02C
:103D4000FDF776FD002800F0A580626A1E4B33F86F
:103D50001220B0FBF2F3656805EB4501994200F2D1
:103D60009B80B3EB053F00F2998000263346314635
:103D7000FCF722FF090241EA106100026B08C0183B
:103D80002A46334641F10001FCF716FFA0F54072C8
:103D90000E4B9A4200F284802368D860304665E07A
:103DA000FDF700FCCEE70A48CFE700BFF369FFCF7D
:103DB00000800040003801400044004000480040BE
:103DC000004C00400050004088D20008FFFC0F006B
:103DD0000024F400082A65D8DFE802F0072705640C
:103DE0002A6464640B00354803E0FDF721FD0028D8
:103DF0005AD0626A324B33F81230B0FBF3F062688B
:103E0000530803EB4003B3FBF2F3A3F110014FF6A9
:103E1000EF7291424AD89AB222F00F02C3F34203E2
:103E200013432268D360002020E0FDF713FDDEE796
:103E3000FDF7B8FBDBE7214803E0FDF7F9FC0028BC
:103E400038D0626A1E4B33F81230B0FBF3F063686F
:103E500000EB5300B0FBF3F0A0F110024FF6EF734C
:103E60009A4229D8236880B2D86000200123A4F8A0
:103E70006A30A4F8683000236367A36770BDFDF75C
:103E8000E9FCDCE7FDF78EFBD9E74FF40040D8E70B
:103E90000120EBE70020E9E70120E7E70120E5E763
:103EA0000120E3E70120E1E70020DFE70120DDE773
:103EB0000120DBE70020D9E70120D7E70024F40048
:103EC00088D20008836A13F0080F06D0026853688E
:103ED00023F40043816B0B435360836A13F0010F9B
:103EE00006D00268536823F40033C16A0B43536061
:103EF000836A13F0020F06D00268536823F48033FC
:103F0000016B0B435360836A13F0040F06D0026801
:103F1000536823F48023416B0B435360836A13F08F
:103F2000100F06D00268936823F48053C16B0B43D3
:103F30009360836A13F0200F06D00268936823F41D
:103F40000053016C0B439360836A13F0400F0AD057
:103F50000268536823F48013416C0B435360436C35
:103F6000B3F5801F0BD0836A13F0800F06D0026870
:103F7000536823F40023C16C0B43536070470268FD
:103F8000536823F4C003816C0B435360EBE72DE9C6
:103F9000F84305460E4617469946DDF820802B6803
:103FA000DC6936EA04040CBF01240024BC4236D18B
:103FB000B8F1FF3FF3D0FDF751F8A0EB0900404501
:103FC00030D8B8F1000F2FD02B681A6812F0040F08
:103FD000E5D0802EE3D0402EE1D0DA6912F0080F50
:103FE00011D1DA6912F4006FD9D04FF400621A626D
:103FF0002846FFF74FF82023C5F89030002385F8B6
:10400000843003200CE008241C622846FFF742F8A5
:10401000C5F89040002385F88430012000E000209E
:10402000BDE8F8830320FBE70320F9E730B583B050
:1040300004460023C0F89030FDF710F805462268CA
:10404000126812F0080F10D123681B6813F0040FD8
:1040500028D12023C4F88830C4F88C300020E066D2
:10406000206784F8840003B030BD6FF07E43009376
:10407000034600224FF400112046FFF788FF002876
:10408000E2D0226852E8003F23F0800342E800318A
:104090000029F6D12023C4F88830002384F8843026
:1040A0000320E0E76FF07E4300932B4600224FF49D
:1040B00080012046FFF76BFF0028CAD0226852E833
:1040C000003F23F4907342E800310029F6D12268C2
:1040D00002F1080353E8003F23F00103083242E8ED
:1040E00000310029F3D12023C4F88C30002384F858
:1040F00084300320B7E7000000283AD010B504460A
:10410000D0F888300BB32423C4F8883022681368B1
:1041100023F001031360A36A3BBB2046FFF70EFDAB
:10412000012811D02268536823F490435360226819
:10413000936823F02A0393602268136843F0010315
:1041400013602046FFF772FF10BD80F88430FFF740
:10415000B7FCD4F8C43023B1D4F8C4302046984713
:10416000D1E7054BC4F8C430F6E72046FFF7AAFEB6
:10417000D3E70120704700BFD10E000810B481655D
:10418000A0F85C20A0F85E20002343678368B3F5A5
:10419000805F06D0A3B9036973B9FF23A0F860302C
:1041A00014E0036923B940F2FF13A0F860300DE07A
:1041B000FF23A0F8603009E07F23A0F8603005E01D
:1041C000B3F1805F2ED00023A0F860300023C0F848
:1041D00090302223C0F88C30016801F1080353E8C5
:1041E000003F43F00103083141E80034002CF3D1D3
:1041F000436EB3F1005F1FD08368B3F5805F43D097
:10420000294B43670369002B44D0026852E8003F02
:1042100043F4907342E800310029F6D100205DF8A4
:10422000044B704703691BB97F23A0F86030CDE7CA
:104230003F23A0F86030C9E7B0F868309342DBD87C
:104240008368B3F5805F19D0184B4367036943B1A6
:10425000026852E8003F43F4807342E800310029CD
:10426000F6D1026802F1080353E8003F43F080539F
:10427000083242E800310029F3D1CFE70369002B6F
:10428000E2D10B4B4367E1E70369002BB8D1094B3F
:104290004367B7E7026852E8003F43F0200342E873
:1042A00000310029F6D1B9E729310008E5320008CC
:1042B000B13400080932000838B5D0F88C30202B12
:1042C00017D1C1B1CAB10023C36603680C4CA34225
:1042D0000CD05B6813F4000F08D0046854E8003F6A
:1042E00043F0806344E80035002DF6D1FFF746FF28
:1042F00000E0022038BD0120FCE70120FAE700BF02
:1043000000800040436E2BB90123A0F86A30A0F86A
:104310006830704730B403689A68C2F342629968A3
:10432000490F094D6B5CDB00084C615C93FBF1F3BA
:10433000A0F86A30AB5CDB00A25C93FBF2F3A0F860
:10434000683030BC704700BFA8D20008A0D2000877
:1043500070477047704790F88430012B18D00123C4
:1043600080F884302423C0F8883003681A681968FC
:1043700021F00101196022F0005200234366016818
:104380000A602022C0F8882080F8843018467047E0
:104390000220704738B590F88430012B1DD00446B8
:1043A000012380F884302423C0F8883003681D6816
:1043B0001A6822F001021A600268936823F06043D1
:1043C00019439160FFF79EFF23681D602023C4F806
:1043D0008830002084F8840038BD0220FCE738B51E
:1043E00090F88430012B1DD00446012380F88430DE
:1043F0002423C0F8883003681D681A6822F001027F
:104400001A600268936823F0606319439160FFF7B4
:1044100079FF23681D602023C4F88830002084F8C9
:10442000840038BD0220FCE7034AD2F8883043F408
:104430007003C2F88830704700ED00E002681C4B42
:104440009A4200D0704710B582B0044603F5644329
:104450001A6E42F400621A661B6E03F40063019345
:10446000019B1448144B03602A234360102383608C
:104470000023C360802202614FF4807242614FF4D6
:10448000806282612022C2610362FDF70DFD60B986
:10449000084B63629C62002205211A20FDF72CFF65
:1044A0001A20FDF739FF02B010BDFCF702FCEFE760
:1044B000002C0140640300200800024000B587B0D2
:1044C00000230193029303930493059302680D4B19
:1044D0009A4202D007B05DF804FB03F56443DA6C3E
:1044E00042F00402DA64DB6C03F004030093009BE7
:1044F0000123019302230293059301A90248FDF7CA
:1045000095FBE7E7002C01400008004810B59CB07F
:104510000024189419941A941B94159416941794C3
:104520000E940F94109411941294139414943422B2
:10453000214601A805F0FEF83048314B0360446085
:1045400084601323C360046144618461FEF73AFA16
:10455000002841D14FF48053189318A92748FEF73B
:1045600089FB00283BD12548FEF75CFA002839D1A9
:10457000002315931693179315A92048FEF7D0FC36
:10458000002832D160230E9300220F9210921192D4
:104590001292139214920EA91848FEF7C1FA38BB72
:1045A0000023019302930393049305934FF4005265
:1045B00006920793089309934FF000720A920B93A7
:1045C0000C930D9301A90D48FEF700FD98B90B4817
:1045D000FFF774FF1CB010BDFCF76BFBBAE7FCF7EC
:1045E00068FBC0E7FCF765FBC2E7FCF762FBC9E7C5
:1045F000FCF75FFBD4E7FCF75CFBE8E7C4030020B3
:10460000002C014008B51248124B0360124B436066
:10461000002383600122C260036143618361C3613F
:10462000036200F089FA50B90021094800F018FF30
:1046300040B90021064800F041FF30B908BDFCF741
:1046400038FBF1E7FCF735FBF3E7FCF732FBF5E766
:10465000C4040020005400401304100008B51248A0
:10466000124B0360124B4360002383600122C2603F
:10467000036143618361C361036200F05DFA50B975
:104680000021094800F0ECFE40B90021064800F086
:1046900015FF30B908BDFCF70CFBF1E7FCF709FB8F
:1046A000F3E7FCF706FBF5E7700400200058004034
:1046B00013041000F0B5A1B0044600211B911C9119
:1046C0001D911E911F91542206A805F033F823680E
:1046D0004C4A934204D04C4A934241D021B0F0BDA1
:1046E0004023069306A8FDF7E5F8002835D1474C8E
:1046F000E36C43F00103E364E36C03F00103019313
:10470000019BE36C43F00203E364E36C03F00203F8
:104710000293029B4FF400431B9312271C97002522
:104720001D951E9504261F961BA94FF09040FDF77E
:104730007DFA80231B931C971D951E951F961BA920
:104740003348FDF773FAA36D43F40013A365A36D1B
:1047500003F400130393039BC0E7FCF7AAFAC6E730
:104760008023069306A8FDF7A5F8002843D1274D1E
:10477000EB6C43F00103EB64EB6C03F00103049377
:10478000049B4FF440731B9312231C9300261D9629
:104790001E9604231F931BA94FF09040FDF746FA85
:1047A000AB6D43F48003AB65AB6D03F480030593FD
:1047B000059B1848184B0360132343601023836044
:1047C000C660802303614FF4807343614FF48063BC
:1047D00083612023C3610662FDF766FB70B90D4B50
:1047E000A3639C62002205212220FDF785FD222083
:1047F000FDF792FD72E7FCF75CFAB8E7FCF759FAAF
:10480000EDE700BF00540040005800400010024097
:1048100000040048100400200804024003689A695C
:1048200012F0020F01D000229A6203689A6912F016
:10483000010F03D19A6942F001029A61704710B4E6
:10484000019CC1F3090141EA02411943214321F0CE
:10485000004102685368640D04F4806444F07F747E
:1048600044F4583444F47F7444F0030423EA04030A
:104870000B4353605DF8044B704711F0010F09D0F2
:1048800090F8413003F02803282B01D0F22302E0F6
:10489000422300E0002311F0020F09D043F0440C42
:1048A00090F8412002F02802282A10D043F0F403A7
:1048B00011F4004F0DD110290ED020290FD040291E
:1048C00010D001680A6822EA03030B607047634650
:1048D000EEE743F0B803EEE743F09003EDE743F073
:1048E0002003ECE743F04003EBE72DE9F0410446F9
:1048F00003689E6916F010067CD00D469046102283
:10490000DA61002637462368986910F0200F30D10D
:104910007FBBB5F1FF3FF6D0FCF7A0FBA0EB080092
:10492000A84201D8002DEED121684B6803F48043E2
:1049300094F84220D2B2886910F4004F02D00BB92B
:10494000202A0ED123689B6913F0200FDBD1FCF7DE
:1049500085FBA0EB08001928F4D946F020060127B2
:10496000D1E74B6843F480434B60FCF777FB80460C
:10497000E8E70FB92022DA6146F004060125226833
:10498000936913F4807F05D046F001064FF48071DF
:10499000D161012513F4806F06D046F00806226825
:1049A0004FF48061D161012513F4007F24D046F0DB
:1049B000020623684FF40072DA6101252046FFF7F2
:1049C0002DFF2268536823F0FF7323F48B3323F405
:1049D000FF7323F001035360636C3343636420234C
:1049E00084F84130002384F8423084F8403028466F
:1049F000BDE8F0810025C2E7002DF8D0DEE770B5F4
:104A000004460D46164623689B6913F0020F22D117
:104A1000324629462046FFF768FFF0B9B5F1FF3F5F
:104A2000F1D0FCF71BFB801BA84201D8002DEAD176
:104A300023689B6913F0020FE5D1636C43F02003F8
:104A40006364202384F84130002384F8423084F8E2
:104A50004030012000E0002070BD0120FCE72DE97E
:104A6000F8430546884617461E46DDF820902B6819
:104A70009C6938EA04040CBF01230023BB4227D100
:104A80004A4631462846FFF730FF20BBB6F1FF3FCC
:104A9000EDD0FCF7E3FAA0EB0900B04201D8002EFC
:104AA000E5D12B689B6938EA03030CBF012300237F
:104AB000BB42DCD16B6C43F020036B64202385F890
:104AC0004130002385F8423085F84030012000E075
:104AD0000020BDE8F8830120FBE770B504460D46D1
:104AE000164604E023689B6913F0200F12D0236858
:104AF0009B6913F0200F1BD1324629462046FFF751
:104B0000F4FEB8B9FCF7AAFA801BA842EAD8002D37
:104B1000EDD1E7E7636C43F020036364202384F85E
:104B20004130002384F8423084F84030012000E016
:104B3000002070BD0120FCE700285FD010B50446BE
:104B400090F84130002B48D0242384F8413022686B
:104B5000136823F0010313606368226823F0706315
:104B600013612268936823F400439360E368012B88
:104B700038D0A368226843F404439360E368022BAF
:104B800036D02268536823F4006353602268536868
:104B900043F0007343F4004353602268D36823F466
:104BA0000043D360236962691343A169226843EA21
:104BB0000123D360E369216A22680B4313602268F2
:104BC000136843F00103136000206064202384F81D
:104BD0004130206384F8420010BD80F84030FFF778
:104BE00069FDB1E7A368226843F400439360C5E719
:104BF0002268536843F400635360C7E7012070479D
:104C00002DE9F04782B00F460A9E90F84110C9B2D4
:104C1000202940F0B78004469046994690F84030ED
:104C2000012B00F0B3804FF0010A80F840A0FCF7A0
:104C300015FA05460090192352464FF400412046CC
:104C4000FFF70DFF002840F0A380212384F84130B6
:104C5000102384F8423000236364C4F82480A4F84D
:104C60002A906363638D9BB2FF2B1ED9FF2323859C
:104C70004FF08073228DEAB1226898F8001091629B
:104C8000626A01326262628D92B2013A92B26285C8
:104C9000228D013A92B22285013241490091D2B26D
:104CA00039462046FFF7CBFD18E0638D23854FF092
:104CB0000073DFE73A490091D2B239462046FFF748
:104CC000BEFD0BE0628D92B22285002300934FF06F
:104CD0000073D2B239462046FFF7B1FD638D9BB217
:104CE000002B33D02A4631462046FFF788FE0028A5
:104CF00050D1626A236812789A62636A01336362F0
:104D0000638D9BB2013B9BB26385238D013B9BB2BC
:104D10002385628D92B2002AE0D0002BDED100956F
:104D20003346002280212046FFF799FEA0BB638D09
:104D30009BB2FF2BC6D9FF222285002300934FF0A0
:104D4000807339462046FFF77AFDC7E72A46314689
:104D50002046FFF7C2FE08BB23682022DA612168E3
:104D60004B6823F0FF7323F48B3323F4FF7323F09A
:104D700001034B6084F84120002384F8423084F81A
:104D8000403000E0022002B0BDE8F0870220FAE7E0
:104D90000120F8E70120F6E70120F4E70120F2E71F
:104DA000002000807047704710B5044603681A68F9
:104DB000002180F8421012F4804F0ED01A6822F4BD
:104DC00080421A6094F84130DBB2292B0DD094F860
:104DD0004130DBB22A2B18D010BD12F4004FF1D0B5
:104DE0001A6822F400421A60ECE7282384F8413064
:104DF0002123236301212046FFF73FFD002384F890
:104E000040302046FFF7CEFFE6E7282384F8413004
:104E10002223236302212046FFF72FFD002384F87D
:104E200040302046FFF7BFFFD6E77047F8B504468D
:104E300090F8413003F02803282B06D0036808229D
:104E4000DA61002380F84030F8BD03689E69C6F33C
:104E500000469A69120C02F0FE059A68C2F3090234
:104E6000DF6807F0FE07C168022922D185EAD21562
:104E700015F0060F10D1816C01318164816C02291B
:104E8000E2D1002181640820D86184F840103146C5
:104E90002046FFF7CAFFD7E74FF40041FFF7EDFCCC
:104EA000002384F840303A4631462046FFF7BDFFE4
:104EB000CAE74FF40041FFF7E0FC002384F84030DC
:104EC0002A4631462046FFF7B0FFBDE77047000095
:104ED00010B50446174BC36200230363202280F8F9
:104EE000412080F84230436311F0040F13D003686F
:104EF0005A6A436A1A70436A01334362038D53B19D
:104F0000013B0385438D9BB2013B9BB24385436CC0
:104F100043F00403436448F203012046FFF7ADFC6D
:104F200023681022DA61002384F840302046FFF71E
:104F3000CDFF10BD0000FFFF7047704708B590F827
:104F40004130DBB2602B06D00023036380F8403091
:104F5000FFF7F2FF08BD202380F8413000230363F0
:104F600080F84030FFF7E9FFF4E7000010B5044691
:104F700090F84130002280F842204548E062628586
:104F8000626C0A436264283BDBB2022B19D803210E
:104F90002046FFF772FC282384F841303D4B6363C1
:104FA000236BA26B1AB1112B30D0212B2ED0E26BC8
:104FB0001AB1122B4BD0222B49D02046FFF7BEFF4F
:104FC00010BD48F203012046FFF757FC2046FFF7CB
:104FD00025FC94F84130DBB2602B14D0202384F8F8
:104FE000413023689A6912F0200F0CD09A6912F0B0
:104FF000100F05D01022DA61636C43F00403636480
:1050000023682022DA6100236363C9E723681A68F2
:1050100012F4804F03D01A6822F480421A60A06B09
:10502000FDF785F801280ED0A36B1B4A9A63002375
:1050300084F84030A06BFCF7D9FF0028C0D0A06BEB
:10504000836B9847BCE72046FFF778FFB8E72368F3
:105050001A6812F4004F03D01A6822F400421A6052
:10506000E06BFDF764F801280ED0E36B0A4A9A63FF
:10507000002384F84030E06BFCF7B8FF00289FD095
:10508000E06B836B98479BE72046FFF757FF97E756
:105090000000FFFF9552000847540008F8B5044689
:1050A0000D4602681668C76A90F84130DBB22021CD
:1050B000D161212B09D0223B082B0DD8DFE803F06A
:1050C0007B0C0C0C0C0C82057B0048F20101204685
:1050D000FFF7D3FB212323632268536843F4004383
:1050E00053602268536823F0FF7323F48B3323F457
:1050F000FF7323F0010353602046FFF78FFB16F484
:10510000804F66D02268136823F480431360A36B3A
:105110001BB11B685B689BB2638515F0040F11D04F
:1051200025F0040523685A6A636A1A70636A0133BA
:105130006362238D33B1013B2385638D9BB2013BB9
:105140009BB26385638D9BB21BB1636C43F0040318
:10515000636415F0100F13D016F0100F10D0638D8C
:105160009BB2002B5AD194F84130DBB2282B40D0AF
:1051700094F84130DBB2292B43D023681022DA6146
:10518000002384F842306363636C002B56D1E36ADA
:1051900013F5803F60D194F84130DBB2222B6BD005
:1051A000202384F841300023236384F840302046D4
:1051B000FFF7F8FD5FE048F20201FFF75EFB2223F4
:1051C000236389E748F20301FFF757FB00232363BA
:1051D00082E716F4004FA0D02268136823F400433E
:1051E0001360E36B002B98D01B685B689BB26385F0
:1051F00093E7B7F1007FBBD129462046FFF768FE51
:10520000BEE717F5803FB8D023681022DA61204648
:10521000FFF704FB2046FFF7C7FDB1E72368102224
:10522000DA61636C43F00403636417B1B7F1807F04
:10523000A6D1616C2046FFF799FEA1E7616C20467C
:10524000FFF794FE94F84130DBB2282B13D12946A6
:105250002046FFF73DFE0EE02046FFF7A5FD0C4B74
:10526000E362202384F841300023236384F8403034
:105270002046FFF72BFEF8BD202384F841300023A1
:10528000236384F840302046FFF78DFDF3E700BF2D
:105290000000FFFF10B50446C06A94F84030012BAF
:1052A00000F09A80012384F8403011F0200F02D0E2
:1052B00012F0200F16D111F0100F3ED012F0100F87
:1052C0003BD0638D9BB243BB94F84130DBB2282BBB
:1052D0000FD094F84130DBB2292B11D02368102273
:1052E000DA6102E02046FFF7D9FE002084F8400092
:1052F00010BDB0F1007FECD12046FFF7E9FDF4E7E7
:1053000010F5803FEAD023681022DA612046FFF7CB
:1053100085FA2046FFF748FDE7E723681022DA61A7
:10532000636C43F00403636410B1B0F1807FDCD19F
:10533000616C2046FFF71AFED7E711F0040F1FD06B
:1053400012F0040F1CD0638D9BB273B123685A6AAC
:10535000636A1A70636A01336362238D013B23859C
:10536000638D9BB2013B9BB26385638D9BB2002B27
:10537000BBD110F5803FB8D02046FFF715FDB4E74C
:1053800011F0080F02D012F0080F18D111F0020F1F
:10539000ABD012F0020FA8D0638D9BB29BB1626AB2
:1053A000236812789A62636A01336362638D9BB2E9
:1053B000013B9BB26385238D013B238595E7204606
:1053C000FFF734FD91E7B0F1807F01D000288CD148
:1053D0002046FFF7E9FC88E7022089E710B502685C
:1053E0009369116813F4807F09D011F0800F06D003
:1053F000446C44F0010444644FF48074D46113F4A9
:10540000806F0AD011F0800F07D0426C42F0080282
:10541000426402684FF48064D46113F4007F0AD0C0
:1054200011F0800F07D0436C43F00203436403681C
:105430004FF40072DA61416C11F00B0F00D110BD16
:10544000FFF794FDFBE708B5806A836B0BB1002280
:105450009A63C36B0BB100229A63FFF76FFD08BD1F
:10546000034690F84120D2B2202A23D190F8402060
:10547000012A21D0012280F84020242280F84120F6
:105480000068026822F0010202601868026822F4D3
:1054900080520260186802681143016019680A6846
:1054A00042F001020A60202283F84120002083F8A4
:1054B000400070470220704702207047034690F872
:1054C0004120D2B2202A21D190F84020012A1FD0B9
:1054D000012280F84020242280F8412000680268E0
:1054E00022F0010202601868026822F4706242EA47
:1054F0000122026019680A6842F001020A60202253
:1055000083F84120002083F8400070470220704754
:105510000220704710B50446124B1B88124AD25C19
:105520000A2A0BD001330F4A13800E4B1B8801222D
:105530000D4919442046FEF7BFFE10BD01330A4A4B
:105540000021D1541378722B03D0064B00221A800D
:10555000EBE720214FF09040FCF757FC034B002273
:105560001A60F2E7180500201C05002090020020B8
:1055700008B500210148FDF737FC08BDC403002031
:10558000282907D0292907D108B5012003F012F8EE
:10559000012008BD0120704700207047182916D04F
:1055A000192919D017290ED0002070471248017808
:1055B00001F1010C80F800C013F801CB0F4800F88E
:1055C00001C0013AD2B2002AF0D1012070470A4B43
:1055D00000221A700120704700B583B04FF47A732F
:1055E0000093054B1B78054A78210548FFF708FB17
:1055F000012003B05DF804FB1C0600209C05002080
:105600007004002008B4F0B584B005460E46174675
:1056100009AC54F8043B039400944022002108484C
:1056200004F0C9F8002804DC04B0BDE8F04001B083
:105630007047034B3A463146284600F0C1FFF3E776
:105640005C05002070B504460D46164601F01FF8B3
:105650004021204601F00FF833462A461721204604
:105660002569A847204601F019F870BD10B50A4613
:10567000C46800231521A04710BD10B50A46C468B0
:1056800000231621A04710BD10B51346C4680A4672
:105690001721A04710BD10B5C46800231A46182171
:1056A000A04710BD10B5C46800231A461921A047B1
:1056B00010BD70B582B006460D4616E015290CD215
:1056C00002B070BDFE29FBD122788DF80720292178
:1056D000304600F0EDFB023507E022788DF8072018
:1056E000F46800233046A04702352C4614F8011B0D
:1056F0001929E7D818290ED21629DFD91729DFD1A1
:1057000023788DF807300DF1070201213046FFF7AD
:10571000BBFF0235E9E7F56800231A463046A84783
:105720002546E2E7F8B5054614461E46A1F1140CDD
:10573000BCF1050F56D8DFE80CF03703181D454AB9
:10574000294B1B7873B9284600F0A1FF0021284699
:1057500000F091FF2146284600F08DFF0120224BEA
:105760001870F8BD00F09AFFEDE7114600F083FFD6
:105770000120F6E71C4B1B7853B100F08FFF07E0C8
:10578000324618212846FFF75DFF183CE4B2183670
:10579000182CF5D8324621462846FFF753FF124B06
:1057A00000221A700120DCE790F82430FF2B05D08E
:1057B0002F69334622462846B847D2E7782380F837
:1057C0002430F5E7084B00221A700120C9E7064B88
:1057D0001B7823B9044B00221A700120C1E700F0A6
:1057E0005DFFF7E70020BCE71D06002030B585B05F
:1057F00004460D4600931346084A094900F05CF937
:105800000DF10F0000F02AFF01460095054B9DF8B1
:105810000F20204600F017F905B030BD25570008CD
:10582000DD5B00084558000810B5044600F090FB09
:10583000204600F09AFB0028FAD10021204600F013
:105840007BFB10BD70B59DF8105002F0070E4FF0B5
:10585000010C0CFA0EFC5FFA8CFC90F89260012EA1
:105860001BD90024012E1AD022F0070292B206683A
:10587000367C16FB02F292B20A44416B1144DDB948
:105880000A782243D2B20A7082EA0C0201F8012B94
:10589000013B9BB2002BF3D170BD6446E2E74FF0B1
:1058A000000CE1E701241BE06400E4B24FEA4C0C79
:1058B0005FFA8CFC002BEFD00A782243D2B20A7038
:1058C00082EA0C020A700EF10102013B9BB212F057
:1058D000070EE9D1428F114490F89220012AE1D9B4
:1058E000012AE7D04FF0010CE4E710B5016890F809
:1058F0003830DA0082870A7CD200428790F839E09B
:105900004FEACE02C28703EB0E0491F811C0644542
:1059100003DDACEB0E0C1FFA8CF3DB009BB2A0F89E
:105920004020A0F842201A44A0F842208B8AA0F818
:105930004430CB8AA0F8463010BD08B5FFF7D5FF3C
:1059400008BD10B582B00446B0F856300093B0F8E8
:105950005230B0F85420B0F8501000F032FA20B9AC
:10596000002384F88C3002B010BD012384F88C3001
:10597000B4F84820B4F850309A4201D2A4F8483024
:10598000B4F84A20B4F852309A4201D9A4F84A3007
:10599000B4F84C20B4F854309A4201D2A4F84C30F8
:1059A000B4F84E20B4F856309A42DCD9A4F84E3000
:1059B000D9E708B50023A0F84830B0F84420A0F893
:1059C0004A20A0F84C30B0F84630B0F8422093425C
:1059D00002D39A1AA0F84C20B0F840209B1AA0F8E5
:1059E0004E30FFF7AEFF08BD10B582B09DF81040F5
:1059F000B0F846C0ACEB020292B2B0F844C0ACEBD7
:105A0000010189B244B9013A92B2C91A89B200942B
:105A100000F071FE02B010BD012CF8D1013989B23D
:105A2000D21A92B2F3E708B50022A0F85020A0F8ED
:105A300054204FF6FF72A0F85220A0F85620036BB6
:105A40005B68984708BD70B50446049E00258565CF
:105A5000C362416380F8382080F8395080F86D5077
:105A600080F8915080F88D50012380F8923080F8B2
:105A700093300663336898472046FFF7D4FF2046EB
:105A800000F0D8FD84F8705070BD00207047000011
:105A900000230360074A8260C2600261426180F8AD
:105AA000233080F826308361FF2380F8243080F88B
:105AB000283070478B5A0008F8B504460F46164642
:105AC0001D46FFF7E5FFA760E6602561069B636161
:105AD000204600F0D1F9F8BD084611B10A2903D0DB
