:020000040800F2
:10000000000002207D1D0108216D0008236D0008FD
:10001000256D0008276D0008296D0008000000000C
:10002000000000000000000000000000211A01088C
:100030002B6D000800000000C11A0108AB15010873
:10004000CD1D0108CD1D0108CD1D0108CD1D0108E4
:10005000CD1D0108CD1D0108CD1D0108CD1D0108D4
:10006000CD1D0108CD1D0108CD1D01082D6D000815
:10007000CD1D0108CD1D0108CD1D0108CD1D0108B4
:10008000CD1D0108CD1D0108CD1D0108CD1D0108A4
:10009000CD1D0108CD1D0108CD1D0108CD1D010894
:1000A000CD1D0108CD1D01083D6D0008CD1D0108C5
:1000B0004D6D0008CD1D0108CD1D0108CD1D0108A5
:1000C000CD1D0108CD1D01085D6D0008CD1D010885
:1000D000CD1D01086D6D0008CD1D0108CD1D010865
:1000E000CD1D0108CD1D0108CD1D0108CD1D010844
:1000F000CD1D0108CD1D0108CD1D0108CD1D010834
:10010000CD1D0108CD1D0108CD1D0108CD1D010823
:10011000CD1D0108CD1D0108CD1D0108CD1D010813
:100120007D6D0008CD1D0108CD1D0108CD1D010804
:10013000CD1D0108CD1D0108CD1D0108CD1D0108F3
:10014000CD1D0108CD1D0108CD1D0108CD1D0108E3
:10015000CD1D0108CD1D0108CD1D0108CD1D0108D3
:10016000CD1D0108CD1D0108CD1D0108CD1D0108C3
:10017000CD1D0108CD1D0108CD1D0108CD1D0108B3
:10018000CD1D0108CD1D0108CD1D0108CD1D0108A3
:10019000CD1D010800000000CD1D0108CD1D010886
:1001A000CD1D0108CD1D0108CD1D0108CD1D010883
:1001B000CD1D0108CD1D0108CD1D0108CD1D010873
:1001C000CD1D0108CD1D0108CD1D0108CD1D010863
:0801D000CD1D0108CD1D010841
:1001E00001F0FF01102A2BDB10F0070F08D010F8E8
:1001F000013B013A8B422DD010F0070F42B3F6D1EC
:10020000F0B441EA012141EA014122F007047FF004
:1002100000070023F0E80256083C85EA010586EA5B
:10022000010685FA47F5A3FA87F586FA47F6A5FA97
:1002300087F68EB9EED1F0BC01F0FF0102F00702A3
:1002400032B110F8013B013A83EA010313B1F8D14E
:100250000020704701387047002D06BF354603382F
:10026000073815F0010F07D1013015F4807F02BF68
:10027000013015F4C03F0130F0BC0138704700BFB9
:10028000034613F8012B002AFBD1181A01387047D6
:10029000DFF8141EC1F8E80070472DE9F34F85B070
:1002A00014461D464FF0000847463E46DFF8F89DCD
:1002B000D9F8AC0005F016FC22462B4605F0DCFE12
:1002C0000AD3D9F8B00005F00DFC02460B462046D3
:1002D000294605F0D1FE01D20120CAE00598B0F907
:1002E00000000599B1F90610401A05F0FBFBCDE9B5
:1002F000020122462B4605F0BFFE01D24FF0010855
:100300000598B0F90E000599B1F91410401A05F0DE
:10031000E9FBCDE9000122462B4605F0ADFE01D2F6
:1003200008F101080598B0F91C000599B1F92210EF
:10033000401A05F0D7FB82468B4622462B4605F035
:100340009BFE01D208F10108B8F1020F01DB012088
:100350008FE03246DFF8543D2046294605F02CFC5C
:10036000DDE9022305F088FE00D20127DDE9002344
:1003700005F082FE00D27F1C52465B4605F07CFEF3
:1003800000D27F1C012F01DB022072E0374669E0BA
:100390000698D0E90423CDE902230698D0E902AB00
:1003A00007EB47008000059900EB01080699D1E9A9
:1003B00000450599405E05F095FB22462B4605F069
:1003C00043FACDE90001B8F9060005F08BFB22469F
:1003D0002B4605F039FA02460B46DDE9000105F02F
:1003E000EBFBCDE90001B8F9020005F07BFB5246BA
:1003F0005B4605F029FA04460D46B8F9080005F0F9
:1004000071FB52465B4605F01FFA02460B4620463A
:10041000294605F0D1FBDDE9002305F017FA8246F5
:100420008B46B8F9040005F05DFBDDE9022305F019
:100430000BFA04460D46B8F90A0005F053FBDDE956
:10044000022305F001FA22462B4605F0B5FB524681
:100450005B4605F0FBF90022134605F00DFE00D2C5
:10046000761C7F1C032F93DB022E01DA012000E0B3
:10047000002007B0BDE8F08F10B400222BE0C2EBE3
:10048000C2035B001B5E31F91240A3420DDA0B88F8
:1004900002EB4204A400235202EB42035B0000EB98
:1004A00043034C885C808C889C8031F91230C2EB0D
:1004B000C20400EB4404B4F90640A3420ADA02EB9A
:1004C00042035B0000EB43030C88DC804C881C81FA
:1004D0008C885C81521C032AD1DB10BC7047DFF88A
:1004E000D01B018047F6FF72C280C1818282818366
:1004F00042847047DFF8BC1B0868C20882EAC01259
:100500004B6882EA03124A608B6882EAC3038B60FD
:100510005B0983EA4030C860D20A82EA4020086062
:10052000704770B50446FFF7E5FF4FF03E5505F004
:1005300021FFDFF8841B05F075FF294605F072FFE7
:1005400017F02EFA0646FFF7D5FF05F013FF2946F0
:1005500005F068FF0246002106F0F0F801D14FF0E7
:100560007E52104605F0D0FA14F06AFF00224FF0D8
:10057000404305F021FB05F0F7FD14F03FFF214655
:1005800005F050FF3146BDE8704005F04BBF2DE946
:10059000F34F81B01646184605F0B6FA04460D46EC
:1005A000304605F0B1FA80468946019AD2E9300119
:1005B00042464B4605F000FB06460F46029AD2E93A
:1005C000300122462B4605F0F7FA32463B4605F04D
:1005D0003DF9019AC2E930014FF0000A38E0019874
:1005E00000EBCA02D2E9000142464B4605F0E4FAAC
:1005F00006460F46029800EBCA02D2E900012246E5
:100600002B4605F0D9FA32463B4605F01FF9019A10
:1006100002EBCA02C2E90001019800EBCA0BDBE958
:10062000240142464B4605F0C7FA06460F4602989B
:1006300000EBCA02D2E9240122462B4605F0BCFA9F
:1006400032463B4605F002F9CBE924010AF1010AE2
:10065000BAF1060FC3DB4FF0000A1BE0019800EB74
:10066000CA0BDBE9120142464B4605F0A5FA0646E5
:100670000F46029800EBCA02D2E9120122462B462D
:1006800005F09AFA32463B4605F0E0F8CBE9120154
:100690000AF1010ABAF1090FE0DB4FF0000A1BE092
:1006A000019800EBCA0BDBE90C0142464B4605F012
:1006B00083FA06460F46029800EBCA02D2E90C0103
:1006C00022462B4605F078FA32463B4605F0BEF846
:1006D000CBE90C010AF1010ABAF1030FE0DBBDE836
:1006E000F78F2DE9F04F8DB005460C46206805F0D8
:1006F000F9F9CDE90201606805F0F4F9CDE90001EE
:10070000A06805F0EFF906460F46D5E93023002032
:10071000DFF8A81905F09AF8C5E93001D5E90C23EE
:10072000DDE9020105F092F8C5E90C01D5E90E23D7
:10073000DDE9000105F08AF8C5E90E01D5E91001EF
:1007400032463B4605F082F8C5E91001DDE9022397
:10075000DDE9020105F030FACDE90401DDE9042309
:10076000D5E9000105F072F8C5E90001DDE90223D1
:10077000DDE9000105F020FA80468946D5E902014D
:1007800042464B4605F062F8C5E90201DDE9020187
:1007900032463B4605F010FACDE90801DDE90823B1
:1007A000D5E9040105F052F8C5E90401DDE90023AB
:1007B000DDE9000105F000FACDE90601DDE90623D7
:1007C000D5E9060105F042F8C5E90601DDE90001B9
:1007D00032463B4605F0F0F982468B46D5E90801E2
:1007E00052465B4605F032F8C5E9080132463B4601
:1007F0003046394605F0E0F9D5E90A2305F026F838
:10080000C5E90A01DDE90423DDE9020105F0D4F9B7
:10081000CDE90A01DDE90A23D5E9120105F016F850
:10082000C5E91201DDE9000142464B4605F0C4F975
:10083000D5E9142305F00AF8C5E91401DDE908013A
:1008400032463B4605F0B8F9D5E9162304F0FEFF21
:10085000C5E91601DDE9020142464B4605F0ACF957
:10086000D5E9182304F0F2FFC5E91801DDE90623F4
:10087000DDE9000105F0A0F980468946D5E91A01B5
:1008800042464B4604F0E2FFC5E91A0132463B46B8
:100890005046594605F090F9D5E91C2304F0D6FFDF
:1008A000C5E91C01DDE90823DDE9020105F084F951
:1008B000D5E91E2304F0CAFFC5E91E01DDE90001E8
:1008C00052465B4605F078F9D5E9202304F0BEFFD7
:1008D000C5E9200132463B463046394605F06CF901
:1008E00032463B4605F068F982468B46D5E922013F
:1008F00052465B4604F0AAFFC5E92201DDE90A235E
:10090000DDE9020105F058F9D5E9242304F09EFF42
:10091000C5E92401DDE9000142464B4605F04CF9EA
:10092000D5E9262304F092FFC5E9260132463B466D
:100930005046594605F040F9D5E9282304F086FFD2
:10094000C5E92801DDE90423DDE9000105F034F9FA
:10095000DDE9002305F030F9D5E92A2304F076FF1C
:10096000C5E92A01DDE9040132463B4605F024F9D8
:1009700032463B4605F020F9D5E92C2304F066FF0A
:10098000C5E92C01DDE9060132463B4605F014F9C4
:1009900032463B4605F010F9D5E92E2304F056FF08
:1009A000C5E92E010DB0BDE8F08F2DE9F44F98B0E8
:1009B00004460D46D4E90C01CDE90801D4E93067BD
:1009C000D4E90001CDE9160132463B4605F0F4F8C2
:1009D00080468946DDE90823DDE9080105F0ECF8E9
:1009E00002460B464046494604F02EFFCDE90C0175
:1009F000D4E90E89D4E90601CDE9140132463B461B
:100A000005F0DAF882468B4642464B464046494658
:100A100005F0D2F802460B465046594604F014FF42
:100A2000CDE91201D4E91001CDE90001D4E90A01B0
:100A3000CDE90E0132463B4605F0BEF882468B46B4
:100A4000DDE90023DDE9000105F0B6F802460B46BA
:100A50005046594604F0F8FECDE91001D4E90201F0
:100A600032463B4605F0A8F882468B46DDE9080190
:100A700042464B4605F0A0F802460B465046594602
:100A800004F0E2FECDE90601D4E9040132463B461A
:100A900005F092F882468B46DDE90823DDE9000186
:100AA00005F08AF802460B465046594604F0CCFE43
:100AB000CDE90401D4E9080132463B4605F07CF853
:100AC00082468B46DDE9000142464B4605F074F84C
:100AD00002460B465046594604F0B6FECDE90201E7
:100AE000D4E9120132463B4605F066F882468B4651
:100AF000DDE90823DDE9160105F05EF802460B4644
:100B00005046594604F0A0FE82468B46D4E91401B3
:100B100032463B4605F050F852465B4604F096FEDE
:100B200082468B46DDE90823DDE9140105F044F82F
:100B300002460B465046594604F086FE82468B46D6
:100B4000D4E9160132463B4605F036F852465B467C
:100B500004F07CFE82468B46DDE90823DDE90E01C8
:100B600005F02AF802460B465046594604F06CFE42
:100B70000022DFF8783E05F01FF8CDE90A01D4E93C
:100B8000180132463B4605F017F882468B46DDE9F0
:100B9000160142464B4605F00FF802460B465046FA
:100BA000594604F051FE82468B46D4E91A0132467A
:100BB0003B4605F001F852465B4604F047FE82468C
:100BC0008B46DDE9140142464B4604F0F5FF024630
:100BD0000B465046594604F037FE82468B46D4E910
:100BE0001C0132463B4604F0E7FF52465B4604F0E8
:100BF0002DFE82468B46DDE90E0142464B4604F04F
:100C0000DBFF02460B465046594604F01DFE00220B
:100C1000DFF8D83D04F0D0FFCDE90801D4E91E018A
:100C200032463B4604F0C8FF80468946DDE9002392
:100C3000DDE9160104F0C0FF02460B464046494676
:100C400004F002FE80468946D4E9200132463B4644
:100C500004F0B2FF42464B4604F0F8FD8046894658
:100C6000DDE90023DDE9140104F0A6FF02460B468E
:100C70004046494604F0E8FD80468946D4E9220111
:100C800032463B4604F098FF42464B4604F0DEFDF8
:100C900006460F46DDE90023DDE90E0104F08CFF76
:100CA00002460B463046394604F0CEFD0022DFF8FE
:100CB0003C3D04F081FF06460F46DDE90C23DDE9EB
:100CC000120104F079FFCDE91601DDE91223DDE917
:100CD000040104F071FFCDE91401DDE91023DDE921
:100CE000060104F069FF80468946DDE906014246B7
:100CF0004B4604F061FF82468B46DDE90623002067
:100D00004FF0804104F058FFDDE9042304F054FF64
:100D1000DDE9022304F050FF02460B4650465946D7
:100D200004F092FD82468B46DDE91423DDE90401DF
:100D300004F042FF52465B4604F088FD82468B4633
:100D4000DDE90C23DDE9020104F036FFDDE90223D1
:100D500004F032FF52465B4604F078FD82468B4633
:100D6000DDE91623DDE9100104F026FF02460B46FB
:100D70005046594604F068FDCDE90E01DDE90E2329
:100D80000020014605F078F900F08B81DDE91201C1
:100D900032463B4604F010FF82468B46DDE90223D3
:100DA000DDE9080104F008FF02460B4650465946AB
:100DB00004F04AFDDDE9042304F0FEFE82468B4682
:100DC000DDE90223DDE9020104F0F6FEDDE90A2394
:100DD00004F0F2FE52465B4604F038FD82468B4634
:100DE000DDE91223DDE9100104F0E6FEDDE90A2366
:100DF00004F0E2FE02460B465046594604F024FD3C
:100E000082468B46DDE9080142464B4604F0D4FE9B
:100E100052465B4604F01AFD82468B46DDE9062306
:100E2000DDE9020104F0C8FE32463B4604F0C4FE90
:100E300002460B465046594604F006FDC5E900013E
:100E4000DDE90623DDE9040104F0B6FE82468B46A7
:100E5000DDE90C0132463B4604F0AEFECDE900016F
:100E6000DDE90423DDE90A0104F0A6FE02460B4693
:100E7000DDE9000104F0E8FCDDE9022304F09CFE5A
:100E8000CDE90001DDE90423DDE9040104F094FE6D
:100E9000DDE9082304F090FEDDE9002304F0D6FC30
:100EA000CDE90001DDE90C23DDE9100104F084FE49
:100EB000DDE9082304F080FE02460B46DDE900016F
:100EC00004F0C2FCCDE9000140464946DDE90A23B1
:100ED00004F072FEDDE9002304F0B8FC8046894688
:100EE00032463B465046594604F066FE02460B46E3
:100EF0004046494604F0A8FCC5E90201DDE90C239F
:100F0000DDE9080104F058FE80468946DDE9062344
:100F1000DDE90A0104F050FE02460B464046494610
:100F200004F092FCDDE9022304F046FE8046894687
:100F3000DDE90623DDE9060104F03EFE32463B46CC
:100F400004F03AFE42464B4604F080FC8046894657
:100F5000DDE9160132463B4604F02EFE02460B4602
:100F60004046494604F070FC06460F46DDE914236E
:100F7000DDE90A0104F020FE32463B4604F066FC3F
:100F800006460F46DDE9080152465B4604F014FEB2
:100F900002460B463046394604F056FCC5E90401CA
:100FA000D5E90001DDE90E2304F030FFC5E90001B9
:100FB000D5E90201DDE90E2304F028FFC5E90201AD
:100FC000D5E90401DDE90E2304F020FF06460F46B3
:100FD000C5E90467D5E90289D5E900AB52465B460D
:100FE0005046594604F0E8FDCDE9000142464B4623
:100FF0004046494604F0E0FDDDE9002304F026FC0C
:10100000CDE9000132463B463046394604F0D4FD76
:10101000DDE9002304F01AFCCDE90201D4E9002344
:10102000D4E9060104F012FCD4E90A2304F00EFC12
:10103000CDE9000150465946D4E90C2304F0BCFD2B
:1010400082468B4640464946D4E90E2304F0B4FD5F
:1010500052465B4604F0FAFB80468946D4E910010B
:1010600032463B4604F0A8FD42464B4604F0EEFBF8
:1010700000224FF0804304F09FFD02460B46DDE95D
:10108000000104F0E1FBD4E9302304F0BFFEDDE908
:10109000022304F0DBFB14F015FA189AC2E90001F0
:1010A000012019B0BDE8F08F50020020000004407C
:1010B0000080FFFF00000020DB0FC9400000F03F70
:1010C0002DE9F04FA3B004460D46D4E93001CDE937
:1010D0000001DDE9002300204FF0804104F06CFDA9
:1010E000CDE92001D5E9006732463B4604F064FDB6
:1010F000CDE91E01D5E90489DDE9000142464B46F0
:1011000004F05AFDCDE91401DDE900230020DFF8E9
:10111000DC1804F051FDCDE91601D5E90201CDE955
:101120000201DDE9002304F047FDCDE91201DDE90C
:1011300000230020DFF82C1A04F03EFD82468B4687
:10114000D4E90C01CDE90E0132463B4604F034FDF2
:10115000CDE91C01DDE9000132463B4604F02CFDDF
:10116000CDE91001D4E90001CDE90C01DDE90C2342
:101170000020DFF8781804F01FFDCDE91A01D4E94A
:101180000A01CDE90601D4E91001CDE90A01D4E94B
:101190000601CDE90401D4E90E01CDE908010020E2
:1011A0004FF0804132463B4604F006FDCDE9180180
:1011B000DDE9100132463B4604F0FEFCDDE90C237C
:1011C00004F0FAFCCDE9000132463B463046394690
:1011D00004F0F2FCDDE90E2304F0EEFCDDE90E2361
:1011E00004F0EAFC02460B46DDE9000104F02CFBAA
:1011F000CDE90001DDE91023D4E9120104F0DCFCA3
:1012000002460B46DDE9000104F01EFBCDE90001BA
:10121000DDE90C0132463B4604F0CEFCDDE90E234D
:1012200004F0CAFCDDE9002304F010FB06460F467B
:10123000DDE91E23DDE9020104F0BEFCD4E902234E
:1012400004F0BAFC32463B4604F000FB06460F466B
:10125000DDE91823DDE9020104F0AEFCDDE90E232F
:1012600004F0AAFCDDE9082304F0A6FC02460B46C4
:101270003046394604F0E8FA06460F46DDE9102309
:10128000D4E9140104F098FC02460B463046394676
:1012900004F0DAFA06460F46DDE91C23DDE9040115
:1012A00004F08AFC32463B4604F0D0FA06460F466C
:1012B000DDE91E0142464B4604F07EFCD4E90423DE
:1012C00004F07AFC32463B4604F0C0FA06460F466C
:1012D000DDE9180142464B4604F06EFCDDE90E23C1
:1012E00004F06AFCDDE90A2304F066FC02460B46C2
:1012F0003046394604F0A8FA06460F46DDE91023C9
:10130000D4E9160104F058FC02460B463046394633
:1013100004F09AFA06460F46DDE91C23DDE90601D2
:1013200004F04AFC32463B4604F090FA06460F466B
:10133000D4E9240152465B4604F03EFC32463B466B
:1013400004F084FA06460F46DDE90C230020DFF89E
:10135000141804F031FCDDE90C2304F02DFC0246E6
:101360000B463046394604F06FFA06460F46DDE973
:101370001223D4E9180104F01FFC02460B46304644
:10138000394604F061FA06460F46DDE90223DDE93D
:101390000C0104F011FCDDE9082304F00DFC3246D9
:1013A0003B4604F053FA06460F46DDE91623D4E91E
:1013B0002A0104F001FC32463B4604F047FA064697
:1013C0000F46DDE91A23DDE9040104F0F5FB0246CE
:1013D0000B463046394604F037FA06460F46DDE93B
:1013E0001423D4E91E0104F0E7FB02460B46304605
:1013F000394604F029FA06460F46DDE90C0142465B
:101400004B4604F0D9FBDDE90A2304F0D5FB324654
:101410003B4604F01BFA06460F46DDE91623D4E9E5
:101420002C0104F0C9FB32463B4604F00FFA064695
:101430000F46DDE91A23DDE9060104F0BDFB024693
:101440000B463046394604F0FFF906460F46DDE903
:101450001223DDE9020104F0AFFBDDE9042304F00F
:10146000ABFB32463B4604F0F1F906460F46DDE998
:101470000223DDE9020104F09FFBDDE9082304F00B
:101480009BFBDDE9082304F097FB02460B46304640
:10149000394604F0D9F906460F46DDE91223D4E9AE
:1014A0001A0104F089FB02460B463046394604F027
:1014B000CBF906460F46DDE90223DDE9040104F01D
:1014C0007BFBDDE9082304F077FB32463B4604F062
:1014D000BDF906460F46DDE92023DDE9020104F0EF
:1014E0006BFB42464B4604F067FBD4E9082304F04B
:1014F00063FB32463B4604F0A9F906460F46DDE998
:10150000022300204FF0804104F056FB42464B4638
:1015100004F052FBDDE9082304F04EFBDDE90A2369
:1015200004F04AFB02460B463046394604F08CF97B
:1015300006460F46DDE91223D4E91C0104F03CFB0A
:1015400002460B463046394604F07EF906460F4601
:10155000DDE90223DDE9080104F02EFBDDE90623C5
:1015600004F02AFB32463B4604F070F906460F466B
:10157000D4E9260152465B4604F01EFB32463B4648
:1015800004F064F906460F46DDE904230020DFF885
:10159000D41504F011FBDDE9042304F00DFB024631
:1015A0000B463046394604F04FF906460F46DDE952
:1015B0001423D4E9200104F0FFFA02460B4630461A
:1015C000394604F041F906460F46DDE9040142467A
:1015D0004B4604F0F1FADDE90A2304F0EDFA324655
:1015E0003B4604F033F906460F46DDE91623D4E9FD
:1015F0002E0104F0E1FA32463B4604F027F9064694
:101600000F46DDE904230020DFF8E01304F0D4FAEC
:10161000DDE9062304F0D0FA02460B46304639468F
:1016200004F012F906460F46DDE9140142464B4626
:1016300004F0C2FADDE9062304F0BEFA32463B4666
:1016400004F004F906460F4642464B4640464946DA
:1016500004F0B2FADDE90A2304F0AEFADDE90A2368
:1016600004F0AAFA02460B463046394604F0ECF87C
:1016700006460F46DDE91423D4E9220104F09CFA62
:1016800002460B463046394604F0DEF806460F4661
:10169000DDE9060142464B4604F08EFADDE90A23F5
:1016A00004F08AFA32463B4604F0D0F806460F466C
:1016B000D4E9280152465B4604F07EFA32463B46A6
:1016C00004F0C4F804460D46DDE906230020DFF8E7
:1016D000941404F071FADDE9062304F06DFA024671
:1016E0000B462046294623B0BDE8F04F04F0ACB8C5
:1016F000F0B587B004460D4604F18806B6F904003B
:101700000004009000AFB6F9060000047860B6F956
:1017100008000004B86003A80CF05AFA0098039976
:10172000401A009003A879684268891A7960B968FC
:101730008068081AB8602B4600AA716AD4F888003D
:1017400080B20CF09FFF07B0F0BDF0B587B00E4639
:1017500003A9FFF7CDFF00242546274617E003A87D
:1017600050F8270004F00AFE4FF05E5104F05AFED4
:1017700000A941F82700014604F054FE04F0C4F922
:1017800022462B4604F062F804460D467F1C032FC8
:10179000E5DB2046294613F095FE04460D4600275A
:1017A00011E000A850F8270004F0AEF922462B46BD
:1017B00004F02CFB04F0D8FC56F8271004F02AFDA6
:1017C00046F827007F1C032FEBDB706D401C706513
:1017D0000DF030F9F06707B0F0BDF8B505460DF033
:1017E00045F8002803D10DF037F9042801D1012074
:1017F000F2BDDFF8D04A04F5907631462846FFF76F
:10180000A4FF04F5B8777868D4F87011884204DB37
:10181000304603F0B9FC00207860286BC0050BD57A
:1018200005F118000CF03BFC8009B0F5C87F36D3F9
:101830000420C4F8B80046E004F1B80005F1300116
:101840000A6FC36DD31A1E0000D57642DFF8782ADE
:1018500096420ADA1B1203FB03F64B6F076EDB1B83
:101860001F0000D57F42974208DB0C2205F1A00142
:1018700004F58A7011F097F80020F2BD1B1203FBEB
:101880000366896F406E0B1A180000D540429042E3
:1018900019DA1B1203FB0360B0F5403F09DAD4F8F4
:1018A000B800012803DB401EC4F8B8000BE002209A
:1018B000F2BD0420C4F8B8000C2205F1A00104F523
:1018C0008A7011F070F80020F2BD2DE9F0478CB05D
:1018D000DFF8F049D0E90023D4F8A81004EBC101E7
:1018E000C1E90023D4F8A810491CC4F8A810D0E915
:1018F000022304EBC101C1E90023D4F8A810491C5C
:10190000C4F8A810D0E9042304EBC100C0E9002307
:10191000D4F8A800401CC4F8A800152802DB002059
:10192000C4F8A8001822214606A811F03CF8182295
:10193000214600A811F037F801250DF118090DF125
:10194000000A26E005EB4500404404EBC000D0E966
:1019500000673046394609EBC80CDCE9002304F087
:101960008BFB03D209EBC800C0E900670AEBC80291
:10197000D2E9000132463B4604F07EFB03D20AEB7B
:10198000C800C0E9006708F10108B8F1030FD9DB0E
:101990006D1C072D02DA4FF00008F6E7DDE90001C3
:1019A000DDE9062303F050FF04460D46DAE90201A3
:1019B000D9E9022303F048FF22462B4604F05CFBE2
:1019C00001D304460D46DAE90401D9E9042303F002
:1019D0003BFF22462B4604F04FFB01D304460D4645
:1019E000204629460CB0BDE8F08700000000E03F2B
:1019F0002DE9F0439DB006460024DFF8D05820467C
:101A00000A900AA82146416055218160C16006A85C
:101A10000CF096FF18A906A80CF0D5FB14AA0AA989
:101A200018A80CF063FB02AA06A914A80CF05EFB30
:101A300002AF786800F596707860B86800F5967027
:101A4000B860F86800F59670F860DFF88488404662
:101A5000FEF767FDD7F8049004F0AAFE48447860CA
:101A60004046FEF75EFDD7F8089004F0A1FE48441A
:101A7000B8604046FEF755FDD7F80C8004F098FE9C
:101A80004044F86003A93046FEF72BFED6E930014A
:101A90000122DFF8403804F0E7FA41D800AA0EA985
:101AA0003046FEF782FF00283AD02646DFF8287835
:101AB0000DF13808D8E9040132463B4603F0C6FE72
:101AC00004460D46D8E9020132463B4603F0BEFE0D
:101AD00080468946DDE90E0132463B4603F0B6FEFC
:101AE00002460B4604F068F806460F464046494653
:101AF00042464B4604F060F832463B4603F0A6FEF1
:101B000006460F462046294622462B4604F054F846
:101B100032463B4603F09AFE13F0D4FC04460D46D1
:101B2000204629460022DFF8B43704F06FF91DB0D3
:101B3000BDE8F08310B5DFF88C47E822002104F5FA
:101B4000247010F0FDFE04F1BC00FEF7C8FCE82292
:101B5000002104F55E7010F0F3FE0020C4F8B4001C
:101B600010BD00000000D03F2DE9F14FCAB0DFF8F2
:101B7000548708F5CA7006904A98006B0699C860A9
:101B80004A98FFF72AFE002840F00083D8F8940115
:101B900001281AD14A9830300490B0F95C000C90BA
:101BA0000CA80499B1F95E1041600499B1F9601074
:101BB00081600CA908F52470FEF793FD4A9800F1A6
:101BC0008C0108F1BC00FEF757FC08F1E000029020
:101BD000806A012802DB401E02998862D8E99A01D6
:101BE0000022134604F040FA80F0D58010A808F5D2
:101BF000D471E82215F0A5FE08F5D47003900CA965
:101C0000FEF76FFD08F51C7004900AAA01460398C0
:101C1000FEF7CBFE002806D108F5D47010A9E82203
:101C200015F08FFEB7E004990398FFF749FA0446D0
:101C30000D464FF0000ADFF8A8B6029ED6E9082349
:101C400003F002FE06460F46D8E99A0152465B466B
:101C500003F0FCFD02460B463046394604F0D6F848
:101C600013F030FC06460F4650464FF080412246A6
:101C70002B4603F0A1FFCDE90001D8E99A015246B5
:101C80005B4603F0E3FDD8E99A2303F095FF024693
:101C90000B46DDE9000104F0B9F813F013FC0298DB
:101CA000806803F031FFD8E9382303F085FF32461E
:101CB0003B4604F0E1F903D30298806A01281ADB5D
:101CC00008F5D47010A9E82215F03BFE0298806850
:101CD00003F01AFFD8E9382303F06EFF32463B4683
:101CE00004F0CAF957D24FF4FA7001F013FF0A203A
:101CF000029988624FE00698406801284BD1D8F8D5
:101D0000B400401CC8F8B40050460CF09FFE08F523
:101D10001A7000905646DFF8CC750246D2E90201EF
:101D200032463B4603F048FF04F0F6F907900DF108
:101D30001C09009AD2E9040132463B4603F03CFFFD
:101D400004F0EAF9C9F80400009AD2E90601324623
:101D50003B4603F031FF04F0DFF9C9F80800032126
:101D600007A80BF043FFD8E99A010122DFF8783584
:101D700004F07AF90CD8DFF8742513460399084665
:101D8000FEF705FC04990398FFF79AF904460D46FF
:101D90000298C0E908454A98006BC0050BD54A98DF
:101DA0003030406CC00506D508F55E70FFF720FEA8
:101DB00004460D4602E00024DFF82055D8E9D4019E
:101DC0000022DFF8103504F057F9C0F0DF8108F584
:101DD000567908F5247005900AAA4946FEF7E5FDF4
:101DE000002800F0D3814A9830300490C06F03F08F
:101DF00079FE02460B46DFF8F804DFF8F81404F029
:101E000005F806460F464846FFF75FFD82468B46BB
:101E10003046394652465B4604F02EF908D2204639
:101E200029460022DFF8D03404F026F9C0F0A18161
:101E30005046594632463B4604F01EF980F09D81DB
:101E4000204629460022DFF8B43404F015F980F06A
:101E50009481D8E9D445204629460122DFF8A034F0
:101E600004F002F900F28981D8E99A2300200146A2
:101E700004F002F940F08F8049460598FFF720F9F9
:101E800004460D460298C0E90845D8E9D467002009
:101E90004FF0804122462B4603F08EFE04460D464D
:101EA0000020DFF83C1432463B4603F0CFFC3246BC
:101EB0003B4603F081FE02460B462046294603F0CE
:101EC000A5FF13F0FFFA06460F460298806803F05C
:101ED0001BFED8E9382303F06FFE32463B4604F080
:101EE000CBF8C0F04681DDE90A23494608F1BC0081
:101EF000FEF7D3F9022800F03C81002840F046812B
:101F000006984068012840F0418100200CF09EFDB9
:101F100008F5547003900026DFF8C8730246D2E932
:101F2000020132463B4603F047FE04F0F5F8079005
:101F30000DF11C09039AD2E9040132463B4603F035
:101F40003BFE04F0E9F8C9F80400039AD2E906015F
:101F500032463B4603F030FE04F0DEF8C9F80800D4
:101F6000032107A80BF042FE01200CF069FD1920A7
:101F70000F900FA81921416081600CF073FD4FF0A4
:101F80007E533246059908F5D470FEF700FBFFF743
:101F9000D1FD3046FBE0D8F8B40003F0A3FD2246A3
:101FA0002B4603F033FFD74AD74B04F05DF802D835
:101FB000FFF7C0FDEAE049460598FFF781F80446BF
:101FC0000D46D8E9D46700204FF0804122462B46C9
:101FD00003F0F2FD82468B460020C14932463B4663
:101FE00003F034FC32463B4603F0E6FD02460B4666
:101FF0005046594603F00AFF13F064FA06460F46AE
:102000000298806803F080FDD8E9382303F0D4FDFE
:1020100032463B4604F030F8C0F0AB80DDE90A23DD
:10202000494608F1BC00FEF738F9002840F0AE80C0
:1020300008F55470039008F51A700090039AD2E9DD
:102040000601009ED6E9062303F0FEFB06460F4676
:10205000039AD2E90401DDF800C0DCE9042303F0AF
:10206000F3FB82468B46039AD2E90201DDF800C0F9
:10207000DCE9022303F0E8FB02460B4603F09CFD7B
:10208000CDE900015046594652465B4603F094FDA7
:10209000DDE9002303F0DAFB82468B463046394601
:1020A00032463B4603F088FD52465B4603F0CEFBCA
:1020B00013F008FA06460F460498C06F03F012FDAD
:1020C00032463B4603F078FD0022904B03F074FD4E
:1020D00001228A4B03F0C8FF11D98D4B03F0C4FFD6
:1020E00047D8D8F8B40003F0FDFCD8E9D42303F0B6
:1020F0008DFE4FF03332874B03F0BEFF39D2069886
:102100004068012835D100200CF0A0FC0298C0E9FD
:1021100008450026734F039AD2E9020132463B4636
:1021200003F04AFD03F0F8FF07900DF11C09039A34
:10213000D2E9040132463B4603F03EFD03F0ECFFDA
:10214000C9F80400039AD2E9060132463B4603F07F
:1021500033FD03F0E1FFC9F80800032107A80BF0E5
:1021600045FD4FF07E533246059908F5D470FEF7D1
:102170000EFAFFF7DFFC002009E0D8E9D4010122C4
:10218000594B03F071FF01D8FFF7D4FC00204BB08E
:10219000BDE8F08F70B50446D4F8AC20494D05F188
:1021A000AC06002A09D16FF00040C5F8AC007060A1
:1021B00059485A49C5E9380119E000201921D317B7
:1021C00004F01CFBC5F8AC0000200521D4F8AC20BD
:1021D000D31704F013FB706000209621D4F8AC20D4
:1021E000D31704F00BFB03F07DFCC5E93801012097
:1021F000C5F80C0170BD38B50446324DD5F80C0158
:10220000002802D12046FFF7C5FFD4F8B00044F6FD
:10221000206188420ADA05F586725368C01850605A
:10222000884201DA002032BD002050602046BDE81F
:10223000324099E404224FF4C87139480BF0A8BD2C
:1022400037480BF007BE10B51E4CE822002104F5FC
:10225000D47010F075FBFFF76DFC4FF4D4720021C1
:10226000204610F06DFB4FF07E50C4F8E80004F5F6
:10227000907002F0ECFE0A20C4F870014FF082402A
:10228000C4F85C0104F5B8701E21C1602549816164
:10229000254941612549C161002010BD80B5FFF786
:1022A000D2FF002804D12248BDE802400CF060BCF7
:1022B00002BD80B5FFF7C4FF1D48BDE802400CF029
:1022C0002BBC0000500200200100050000408F40A0
:1022D000000028410000344000C072C000000840E7
:1022E0000000F0BF0000F04000409F406666E63E00
:1022F0009A9999999999A9410000F83F00001040D6
:1023000000003E400BD7A3703D0AE73F0000103E9F
:10231000000004403333C33F0000C0FFFFFFDF4134
:10232000F7210008CDCCCC3E3333333F9A99193F87
:10233000352200087047C1070CD5DFF88C1B4FF021
:1023400040428A6668314A608A604FF08042CA60C3
:102350000A614A6181070ED5DFF86C1B4FF04042DD
:10236000C1F8002101F580714A608A604FF0804217
:10237000CA600A614A6140070ED5DFF84C1B4FF076
:102380004042C1F8982101F5CC70426082604FF064
:102390008042C2600261426170472DE9F04F87B010
:1023A000864600221346DEF87800002802D1104647
:1023B0000146ACE0944690E005EB45000EEBC0040E
:1023C00004EBCC06D6E9000104EBCC04C4E900011F
:1023D0006D1C042DF0DB0EEBCC00D0E900450EEBBC
:1023E000CC010291D0E906ABA4FB040104FB05116A
:1023F00005FB0411A4FB006704FB017705FB0077D4
:10240000CDE904670326DDF80880D8E91201CDE99B
:102410000001AAFB0A890AFB0B990BFB0A99A6FB90
:10242000080106FB0911DDE90089B8EB000069EB42
:102430000101CDE90001DDE90489A4FB080104FBE9
:10244000091105FB0811490041EAD071DDE9008955
:1024500018EB400049EB0101CDE90001A4FB0401A8
:1024600004FB051105FB0411BAEB00086BEB010935
:10247000A4FB080104FB091105FB0811A6FB008958
:1024800006FB0199DDE9040118EB000649EB0107A1
:10249000DDF80880D8E90C01301A67EB0101A4FBD4
:1024A000006704FB017705FB0077BF0047EA9677DA
:1024B000DDE90001B0EB8600B941002904DC00DB56
:1024C00002D2404261EB41018B4204DC01DB8242DB
:1024D00001D202460B460CF1010CBCF1030F01DAEC
:1024E000002576E71046194603F05EFFDFF8DC1999
:1024F000896B04F04BF815F085F8DFF8CC29D2F899
:102500000C22920007B0BDE8F04F03F07FB907B08E
:10251000BDE8F08F2DE9F84F844600221346DCF821
:102520007800002802D11046014669E096464CE04A
:1025300005EB45000CEBC00404EBCE06D6E9000128
:1025400004EBCE04C4E900016D1C042DF0DB0CEBA0
:10255000CE00D0E900450CEBCE010091A4FB04AB0A
:1025600004FB05BB05FB04BB0646D6E90601B0EB40
:102570000A0661EB0B07A4FB060104FB071105FB30
:1025800006110326A6FB008906FB0199A4FB0A019C
:1025900004FB0B1105FB0A1118EB000049EB0101CC
:1025A000009CD4E90C67801BB941002904DC00DBE6
:1025B00002D2404261EB41018B4204DC01DB8242EA
:1025C00001D202460B460EF1010EBEF1030F01DAF5
:1025D0000025BAE71046194603F0E6FEDFF8EC18CE
:1025E000896B03F0D3FF15F00DF8DFF8DC28D2F883
:1025F0000C2202EB420201B0BDE8F04F03F006B935
:10260000BDE8F48F10B40121026BD20511D5DFF8BB
:10261000B8281368D2F880409C420ADB406FC0059E
:1026200004D5D2F8B001984203DB0521084610BC5E
:1026300070470020FBE72DE9F04184B004460026F6
:1026400000ADDFF8847812E007EBC602D2E90201A0
:1026500007F5F472926A03F0E7F807EB8602D2F806
:1026600084201204D317801845F82600761C032E08
:10267000EADB9822002107F1080010F061F901203F
:10268000FFF759FE97F8E801042808D107F5F47020
:10269000006BB0F5201F02DD052087F8E801DFF8A8
:1026A0002C68B16A6A68501A01D4034600E08B1A9C
:1026B000D6F824C0DDF800E0BEEB0C0E01D4F046E5
:1026C00003E0DDF80080ACEB0808434508DABEF112
:1026D000000F01D4704606E00098ACEB000002E069
:1026E000002800D5881AF16AAA68531A01D49C46BA
:1026F00001E0A1EB020C844504DB002B01D4184659
:1027000000E0881A616A0BF0E4FC07F5F471096BCC
:10271000884206DA032100A80BF0D6FA02200CF05A
:10272000B9F8009870626868B062A868F062BDE8A5
:10273000FF81DFF89827C2E902017047DFF88C2794
:10274000C2E906017047DFF88427C2E90401704737
:1027500030B4DFF87427D2F8E0310360D2E9744571
:10276000C1E9004530BC704730B4DFF85C27D2F8CF
:10277000E0310360D2E97645C1E9004530BC7047DD
:102780002DE9FE4186460E4600271CE0D317A2FB2A
:10279000004502FB015503FB0055204629460CEB82
:1027A0004C0306EBC30303EBC708D8E90045241824
:1027B0004D4103EBC703C3E900450CF1010CBCF12B
:1027C000040FE3DB7F1CB06F032F19DA06EB8701E0
:1027D000002802D13EF91700C8673EF91700CA6FFA
:1027E000821A00A840F82720086E904200DA0A6694
:1027F000C86E824200DACA66012000218C46DEE7FC
:10280000401CB0670120C6F89000BDE8F7812DE9B3
:10281000F04104461546002605E054F8260005EB75
:102820008602D066761C032EF7DB05F17807396146
:10283000A86F002814D0002610E005EB860854F895
:102840002600D8F87C10401A15F06EF8D8F8601001
:10285000814200DA0146C8F86010761C032EECDBDA
:10286000A86F401CA8670120B861BDE8F081002175
:1028700006E000EB8102D36ED36700231366491C88
:102880000329F6DB00F178010A694A6100228267B8
:10289000104688617047D0F88810D0F88C00081A6C
:1028A0007047016E426E8A4200DA0A46816E91429A
:1028B00000DA114608467047016EC26E891A426EF0
:1028C000036FD21A8A4200DB1146826E406F101AE3
:1028D000884200DB0146084670472DE9F043064672
:1028E0000F46C2F1200801201146491E00FA01F9E5
:1028F0003046394602F08AFF04460D4630463946D6
:10290000424602F091FF424602F080FF814503DA21
:10291000641C45F1000505E010EB090F02DA641EA6
:1029200065F1000520462946BDE8F08310B5DFF8C3
:1029300098451022002104F5087010F001F81022CB
:10294000002104F510700FF0FBFF1022002104F5A8
:102950000C700FF0F5FF1022002104F51470BDE893
:1029600010400FF0EDBF10B5DFF85C459822002154
:1029700004F108000FF0E4FF9822002104F59C7098
:102980000FF0DEFF0520BDE81040D4E4D0B4DFF83E
:10299000382502F510739C68002C02D1C2E9900121
:1029A00008E0D2E990678F4204DC01DB864201D265
:1029B000C2E99001601C9860D0BC7047D0B4DFF8C9
:1029C000082502F514739C68002C02D1C2E9940119
:1029D00008E0D2E994678F4204DC01DB864201D231
:1029E000C2E99401601C9860D0BC7047D0B4DFF895
:1029F000D82402F508739C68002C02D1C2E9880132
:102A000008E0D2E98867B94204DC01DBB04201D2B8
:102A1000C2E98801601C9860D0BC7047D0B4DFF870
:102A2000A82402F50C739C68002C02D1C2E98C0129
:102A300008E0D2E98C67B94204DC01DBB04201D284
:102A4000C2E98C01601C9860D0BC70472DE9F04150
:102A500007460124DFF8705405F10800FFF72CFF4A
:102A6000DFF86864F16B814203DAFFF77CFF002036
:102A70003CE03846FFF7C6FD070001D1022035E0F3
:102A800078071ED505F59C784046FFF786FC000DBB
:102A900040EA01300915C5E97601D5E97601D6E9A4
:102AA00004238B4205DC01DB824202D20024FFF7C3
:102AB000B5FF9822002140460FF042FF0420FFF7A7
:102AC0003AFCF80711D505F10800FFF766FC05F59B
:102AD000EC72C2E90601D6E906238B4205DC01DB74
:102AE000824202D20024FFF781FF2046BDE8F08138
:102AF00010B584B0044694F8300000F0C000C0283F
:102B000004D1DFF8CC13201DFFF73AFE94F87400CF
:102B100000F0C000C02805D1DFF8B81304F1480068
:102B2000FFF72EFED4F8B80000F0C001C0290BD189
:102B3000002000AA032818DA04EB4001B1F98C1038
:102B400042F82010401CF5E700F06000602813D127
:102B5000002000AA07E004EB8001D1F8A01089133F
:102B600042F82010401C0328F5DBDFF86C23D4F872
:102B7000C01000A8FFF74BFE1FBD0000F8B50546CA
:102B8000002005F12C014A68D30540F1098102F0CB
:102B90005002402A00D1012091F8481001F0500164
:102BA000402900D1012095F8B81001F050014029CA
:102BB00000D10120C44C002806D0FFF7D4FE00202D
:102BC000C4F8E00184F8E801E86AD4F80812814208
:102BD00027D0C4F80802BD4E316B0A280CDA480031
:102BE0002060716B491CC4F80C1203F0C7FB12F093
:102BF00005FCC4F8140206E02160706BC4F80C02F6
:102C0000B06BC4F81402D4F80C02C0F11000C4F880
:102C100010024FF48040C4F818021920716B8840EC
:102C2000F0632846FFF764FF94F8E801062800F2F5
:102C3000B780DFE800F004122C356B97A400D4F8BD
:102C4000E001411CC4F8E0110A28C0F2A980FFF796
:102C50008AFE012084F8E801A2E0D4F89800012857
:102C600040F09E802846FFF7F1FE002803D10520A2
:102C700084F8E80104E0012802D1022084F8E80188
:102C800004F1A000FFF7F3FDFFF750FE88E00320FA
:102C900084F8E8012846FFF7CEFCFFF764FE7FE0EA
:102CA0002846FFF7D3FE00284AD0012878D1D5F86E
:102CB000B800C0051BD504F1A0073846FFF7F1FDA9
:102CC000C117C4E97401814ED6E90201D4E9742325
:102CD000994206DC01DB904203D2052084F8E8012A
:102CE0000BE03846FFF7D7FD316A884205D3042050
:102CF00084F8E8012846FFF79EFCD4E97601FFF747
:102D00005DFED4E97C01FFF741FE49E0D5F8B8004B
:102D1000C00510D504F1A000FFF7C3FDC117C4E939
:102D200074016A48D0E90223D4E974018B4207DBBD
:102D300001DC824204D32846FFF788FE002803D135
:102D4000052084F8E8012BE0012829D12846FFF767
:102D500072FCD4E97601FFF731FED4E97C01FFF77C
:102D600015FE1DE0062084F8E80101200BF092FD1D
:102D7000FFF7F9FD04F1A000FFF779FD10E0284608
:102D8000FFF764FE012803D1022084F8E80107E080
:102D9000002805D1FFF7E7FD04F1A000FFF767FD6C
:102DA0000020F2BD10B50021401000D0491C0128C0
:102DB000FADA01204A1C9040444C2063491C6163AC
:102DC00003F0DCFA12F01AFBA0631920616B884053
:102DD000E06310BD38B53C4C4FF41872002120461A
:102DE0000FF0AEFD394D4022002128460FF0A8FD1E
:102DF0000720FFF7A0FA40F2DC500021C5E90601E8
:102E00001420C5E902014FF41670C5E904013348E6
:102E100028620120C4F8E4011920FFF7C3FF002055
:102E2000C4F8080232BD10B5274C4FF418720021C7
:102E300020460FF085FD0720FFF77DFA0120C4F83A
:102E4000E40184F8E801002203210BF0FFF80722D7
:102E500064212348BDE810400AF09ABF80B50120E4
:102E60000BF018FD1E48BDE802400AF0F3BF10B594
:102E7000FFF7B0FF040009D04FF436730FF26C0275
:102E80000FF28001FFF756FA204610BD15480BF0EF
:102E90006FFE040009D040F2DB230FF250020FF264
:102EA0006401FFF747FA204610BD002010BD80B531
:102EB000FFF7D4FF0B48BDE802400BF02DBE024ADD
:102EC000D2E97C0170470000B00600201009002004
:102ED000B8060020E8070020500700200008AF2FA8
:102EE0007D2B0008272E000870470000696E765F72
:102EF000656E61626C655F666173745F6E6F6D6F46
:102F000074000000433A5C53544D33325F455741DF
:102F1000524D5C53544D33324C5F4D504C4C4942F2
:102F20005C6D706C5C666173745F6E6F5F6D6F7407
:102F3000696F6E2E630000002DE9F04F85B0834667
:102F40000C4615469A46DFF864863C2208F10C01CF
:102F500040460FF0DBFC502208F1580108F1480010
:102F60000FF0D4FC0C22294608F13C000FF01BFDA9
:102F70001022214608F198000FF015FDDFF83066A9
:102F8000D8F82401401CC8F82401072802DB0620D9
:102F9000C8F82401D8F82401C0F1060725E000AAEA
:102FA00008EB071000F1480150460BF09FF800AA0B
:102FB00007EB470008EB80010BF1A0000BF010F9C4
:102FC000814602F0A1FD04460D4625F0004530463D
:102FD00002F09AFD21F0004102460B4620462946A8
:102FE00003F04AF800D24E467F1C062FD7DB30464E
:102FF00005B0BDE8F08F2DE9F84F0C469246994692
:1030000000252F46416B002904D4D0F8BC000328CA
:1030100000D10125DFF89485242208F1C00108F1D0
:10302000BC000FF073FC08F1B806B462BB4609E0BF
:1030300008EB8B00D0F8BC00394603F0EBF80746EC
:103040000BF1010BBBF10A0FF2DB3846DFF8641518
:1030500003F09CFA8346C6F82CB0BAF1320F23DB9A
:10306000C8207066484603F089F900902046DFF8D2
:10307000481503F08BFA009903F0D4F9DFF83C15FA
:1030800003F084FA0746BAF57A7F31DB2046DFF891
:10309000301503F07BFA009903F0C4F9DFF81C1532
:1030A00003F074FA074623E0706E41F2883199FB11
:1030B000F1F101EB8101401A706601D500207066C4
:1030C0002046DFF8001503F061FA0746484603F092
:1030D00055F9394603F0A6F9DFF8E01403F056FA83
:1030E0000746706E002803D1306F012800D10027F9
:1030F000B06E002800D02746DFF8CC04814500D10F
:1031000027463846002103F019FB01D0C6F830B03D
:10311000306B594603F07CF802F0F6FC21F00041D8
:10312000DFF8A824DFF8A83402F09EFF22D8D8F8F0
:10313000B800002103F002FB1CD1012D1AD1C820D8
:103140007066204602F0E0FC0022DFF8883402F0CE
:103150005DFE04460D46484602F0C4FC22462B465E
:1031600002F02AFD0022DFF8703402F04FFE02F078
:10317000FBFF07463846BDE8F28F2DE9F04FA7B0B8
:1031800004460BA800210A460B460EC0DFF81C546B
:1031900005F1A806B06F032802D10220B0677FE1D5
:1031A0000F460DE005EB8700D0F8A80003F0E6F825
:1031B0004FF0425103F036F91AA941F827007F1C5D
:1031C000042FEFDB0EA80BF0BBFB08A80BF08EFB67
:1031D00005F1A8073B4608AA0EA92046FFF7ACFE5A
:1031E000804604F118000AF05AFF8209D5F8303100
:1031F000DFF8D403834200DB034641462046FFF755
:10320000FAFE01463161706C03F00CF9306112A8CE
:103210000BF096FB1EA912A80BF0B5F905F1FC08FE
:103220000EAA12A940460AF061FF414612A80AF010
:10323000CAFF4FF0000819E008EB4803D3180DF15E
:10324000780C5CF823300DF1380C0CEB820CDCF8B8
:1032500004C0CCFB0301521C032AEDDB800F40EAC3
:1032600081000BA941F8280008F10108B8F1030F0B
:1032700003DA002001460246EEE70DF12C08B06F9C
:10328000002802D00020C8F808004FF04259D8F8B2
:103290000800404203F072F8494603F0C3F8834641
:1032A00014F07EFB04900DF1100A0020CAF804000F
:1032B000CAF80800584614F0ABFBCAF80C00D5F861
:1032C000300141F2883190FBF1F003F057F883466A
:1032D000D8F8080003F052F8C04903F057F95946EE
:1032E00003F054F94FF0804103F050F903F060FA15
:1032F000400003F043F8B94903F094F8594603F04D
:1033000091F803F055FAC8F8080003F037F8494679
:1033100003F088F8804614F043FB00900DF1000B99
:103320000020CBF80400CBF80800404614F070FBF6
:10333000CBF80C0016AA04A91AA80AF0D5FF04AA13
:1033400000A916A80AF0D0FFD4F8BC00012816DBAB
:103350004FF0000810E05AF828001AA941F8280098
:103360004FF09D4103F05EF803F022FA05EB88016F
:10337000C1F8A80008F10108B8F1040FEBDBD4F89C
:10338000BC00032803D100F0ABFE00284BD0D5F8D9
:10339000A80002F0F3FF494603F044F816900DF13F
:1033A0005808706802F0EAFF494603F03BF8C8F895
:1033B0000400B06802F0E2FF494603F033F8C8F8B1
:1033C0000800F06802F0DAFF494603F02BF8C8F86D
:1033D0000C00B06F00285ED04FF07C584FF09D4934
:1033E0003069414603F01EF814F0DAFA494603F05A
:1033F00019F803F0DDF9C5F8A80000207060B0608E
:103400003069414603F00EF814F002FB494603F020
:1034100009F803F0CDF9F06004F1BC0041683846CA
:103420000BF0F8F937E04FF07C583069414602F074
:10343000F9FF14F0B5FA00900020CBF80400CBF8A7
:1034400008003069414602F0EDFF14F0E1FACBF8D4
:103450000C0004AA00A91AA80AF046FF04A80AF062
:10346000E5FF4FF000080DE05AF828004FF09D41AD
:1034700002F0D8FF03F09CF905EB8801C1F8A80021
:1034800008F10108B8F1040FEEDB04F1BC0041685B
:1034900038460BF0BFF9B06F002801D0401EB0676E
:1034A00027B0BDE8F08F10B500F1B0033F4A02F538
:1034B00090711C7AE40604D40324C2F8204100244D
:1034C0004C601C6FE4050BD4046BE40502D5446F1B
:1034D000E40505D40320C2F820010020486010BD97
:1034E0004A69002A08D01A695B69D21A4FF47A73C4
:1034F000B2FBF3F20A6111E0D0F8B02044F6206389
:103500009A4201DB0A6109E0CC681219CA609A424A
:1035100001DA002010BD0A610022CA60FFF72DFE0B
:10352000002010BD38B5214C4FF49C72002120467C
:103530000FF006FA04F1A8054FF080406865C4F862
:10354000A800002104F1A8000BF064F94FF47A7090
:1035500068674FF07E50686431BD1449C1F8EC00D3
:10356000002070471149C1F82801002070470F4919
:10357000C1F834010020704704224FF41671184836
:103580000AF006BC16480AF065BC80B5FFF7CAFF12
:103590000020FFF7E7FF0020FFF7E9FF1148BDE833
:1035A00002400BF0E5BA0F480BF0B6BA5009002004
:1035B00000247449000020410000484300409C451D
:1035C000000048420000C84340420F001383C0CAB5
:1035D000A145B63F000079400088B340E10237477B
:1035E000A7340008793500081FB51022014600A84D
:1035F0000FF0D9F9DFF8FC440C2200A904F5D270D1
:103600000FF0D1F99DF80C0084F8B001002004B04F
:1036100010BD30B585B00446DFF8D8540C2205F54E
:10362000D27100A80FF0BFF995F8B0018DF80C0029
:10363000102200A920460FF0B6F9002005B030BDD9
:10364000F0B585B0044600A902A80AF081FB01A8E4
:103650000BF018F9022841D0D4F8E4000099441A7C
:10366000DFF8900400F5D276317B002945D0002C9C
:1036700043D0E517029FD0F8A421D317A2FB040181
:1036800002FB051103FB0411000C40EA0140C019C4
:10369000029002AFD7F804C07268D317A2FB0401EE
:1036A00002FB051103FB0411000C40EA01406044D9
:1036B0007860D7F808C0B068C117A0FB042300FBEE
:1036C000053301FB0433120C42EA034202EB0C0007
:1036D000B860032102A80AF0F7FA0EE0606B032835
:1036E0000BD10AF027FB002807D0009902A800F0B0
:1036F0001EF8002801D100F06FF8002005B0F0BDE1
:1037000010B4DFF8F023D2F8B431D2F8B821D21ACD
:10371000052492FBF4F2C01A90FBF2F008700878CE
:10372000052801DB202000E0002010BC70472DE9B7
:10373000F04182B004460D4600A92846FFF7E0FF9D
:10374000002801D0202045E05426DFF8A8739DF81A
:10375000000016FB007090F850108846B8F1050F75
:1037600026D1102200F140013C300FF0CFF89DF837
:10377000000016FB00701022011D0FF0C7F89DF825
:10378000000016FB0070102200F1180114300FF039
:10379000BDF89DF8000016FB0070102200F12C010E
:1037A00028300FF0B3F8A8F101085FFA88F802E0BA
:1037B000491C80F850109DF8000016FB007000EBCB
:1037C0008801CD63226840F8282060684861A068BD
:1037D00088620020BDE8F6812DE9F04F93B000200B
:1037E0008DF810000CA8182114F0A8F80020019002
:1037F00006A8182114F0A2F800200146CDE9020124
:10380000BD480090007C012840F0DF800098D0F88F
:10381000088045680C4600E0641C052C80F284801A
:103820005420B44900FB041999F850000028F3D043
:103830004FF0000C04E0954200DA15460CF1010C43
:1038400099F850008445E7DA9DF81000411C8DF886
:103850001010DDE90C2359F82C00C117101859413C
:10386000CDE90C0109EB8C060CAFD7E90223706996
:10387000C11710185941C7E90201D7E90423B06AFA
:10388000C11710185941C7E904010198F16B0918D3
:103890000191DDE9062359F82C00F16B81FB000151
:1038A000000C40EA0140101853EB2141CDE906011C
:1038B0000DF1180EDEE902237069F16B81FB000146
:1038C000000C40EA0140101853EB2141CEE90201FF
:1038D000F26BD317DEE9040182468B46B66AF7170E
:1038E000A2FB060102FB071103FB0611000C40EAD4
:1038F000014056465F46301857EB2141CEE904019E
:10390000DDE90267A2FB020102FB031103FB0211C6
:10391000000C40EA0140301857EB2141CDE902018B
:10392000424588DA904689E7A5EB08000099C96806
:1039300088424ADB002442E09DF81060DDE9020184
:10394000A0FB062301FB06330198C117A0FB0089E9
:1039500000FB019901FB00994FEA184848EA094821
:10396000B2EB080273EB294301D1002A26D006AD41
:1039700005EBC405D5E900ABAAFB06890BFB06994C
:103980000CAD05EBC405D5E90067A0FB06AB00FB59
:1039900007BB01FB06BB4FEA1A4A4AEA0B4AB8EBDF
:1039A0000A0069EB2B41090441EA1041000402F0CE
:1039B00025FF504901EB8401C1F8A401641C032CCC
:1039C000BADB01204B4981F8B001002013B0BDE8FB
:1039D000F08F10B5474C4FF4E272002120460EF0F4
:1039E000AFFF4648C4F8B40104F5DA704FF4AA01F9
:1039F00041604FF4A021816001210173002010BDBE
:103A00003C49C1F8B801002070473A49C1F8B401F7
:103A1000002070473749C1F8BC01002070470028DA
:103A200001D1162070473349D1F8A421026001F575
:103A3000D2714A6842608968816000207047242002
:103A40007047002801D1242070472A4981F8C0011D
:103A500000207047274890F8B111002910D00021AC
:103A600003E0521C9A42FCDB491C052908DA542267
:103A700002FB010292F85030002BF5D00022F1E752
:103A800000207047082296211D480AF081B91C4881
:103A90000AF0E0B980B5FFF79CFF4FF49A7310224B
:103AA000184919480BF09AF8002801D0012002BDEE
:103AB00016480BF05DF8002801D0012002BD01205E
:103AC0000C4981F8B101002002BD10B5094C94F8F1
:103AD000B101002801D1002010BDFFF7D8FF0B482D
:103AE0000BF01AF8002801D0012010BD002084F846
:103AF000B10110BD880A0020380C00200000D8FF5A
:103B00004136000813360008E9350008853A0008F8
:103B1000401A7047012806DBDFF8CC150122C1F8F6
:103B20008420C1F880000020704710B5DFF8B84548
:103B3000B822002120460EF003FFDFF8B005E06058
:103B4000DFF8AC05A060DFF8AC052060DFF8A80561
:103B500060604FF0804060664FF4FA60E067DFF825
:103B60009C05C4F89C00002010BD04224FF49671FF
:103B70000FF241200AF00CB90FF239200AF06AB9AD
:103B800080B5FFF7D2FF00280CD100F015F8012016
:103B9000DFF85415C1F88800DFF86405BDE802407D
:103BA0000AF0E6BF02BD80B5FFF7E6FF0FF2052081
:103BB000BDE802400AF04EB90020DFF82C15C1F82C
:103BC0008C0070470120DFF82015C1F88C00002020
:103BD0007047F8B50E46DFF8101501F18C07002884
:103BE00009D17E61BE610020F861B8600120786073
:103BF0000020F860F1BD01282BD13046796902F030
:103C000007FB01F081FF04460D4625F000453869A9
:103C100001F07AFF02460B462046294602F02CFAB4
:103C200008D2B868401CB860B869314602F0F2FAB0
:103C3000B86102E000207860B860B86832280EDB16
:103C400002207860B869DFF8BC1402F09FFCF861CC
:103C5000F1BD0120F8600020C1F88C007860F1BD52
:103C600070B58EB005460E46144604A90AF08BFCCA
:103C700000AA294630460AF039FA314628460AF0A9
:103C8000A2FA002214E002EB42055D1904AE56F8D8
:103C9000255000AE06EB83067668C6FB05015B1C6B
:103CA000032BF0DB800F40EA810044F82200521C15
:103CB000032A03DA002001460346F1E70EB070BD87
:103CC00070B50446A06802F059FB0546606802F032
:103CD00055FB0646206802F051FB014602F0A2FBAC
:103CE00004463046314602F09DFB214602F092FA2E
:103CF00004462846294602F095FB214602F08AFA3E
:103D000011F07CFB4FF05E51BDE8704002F08ABBC1
:103D100010B502460B46DFF8D0432068114602F08A
:103D20000DFD11D31046616802F008FD0CD3206927
:103D3000012815D1E068194602F000FD04D31846A9
:103D4000A16802F0FBFC0BD2606F002804D1A16DCA
:103D500004F118000AF05EFD012060670020A067F2
:103D6000A06FE16F884206DB606F012801D100205F
:103D7000E0650020606710BD70B505460E46DA4C60
:103D80000AF07AFD002804D12846DF4902F0D2FC6F
:103D900002D80020206160612069002809D1606993
:103DA00030186061B0F5FA7F03DD0120206100204A
:103DB000606170BD70B588B0044600A80AF096FD39
:103DC000D4F8C410D4F8C000FFF7A2FE054603A83B
:103DD0000AF0B6FD064600AB04F1A00203A928468E
:103DE00000F005F809F02AFF304608B070BD2DE953
:103DF000F04F8BB004460D4616461F464FF00008A4
:103E000004A841460A460B460EC0DFF8DC92D9F8FA
:103E10008800002828D009F053FE002802D004A80A
:103E20000AF064F8D9F88000012819DB0120C9F8EC
:103E3000840009F045FE002806D004A80AF02FF9F6
:103E40008009B0F5C87F04D3D9F88000001BC9F8F9
:103E50008000D9F88000012802DA4046C9F88400C1
:103E60000AF0E8FD002801D1404636E1C2464FF095
:103E70005E5B17E056F82A0002F080FA594602F01D
:103E8000D1FA009057F82A0002F078FA009902F06F
:103E9000C9FA594602F0C6FA414602F0BBF980461B
:103EA0000AF1010ABAF1030FE4DB3046FFF708FF1D
:103EB00006464046314602F069FB0746DFF84CA251
:103EC000514602F037FC01D84FF07E57DFF840B280
:103ED0003846594602F032FC00D25F46384613F0AD
:103EE00033FD8046D9F88C00002810D03046D9F830
:103EF000001002F023FC0AD2D9F80400314602F087
:103F00001DFC04D24146D9F89000FFF762FE01A8DB
:103F10000AF0E0FC09F1AC070C22394601A80EF0CA
:103F2000E5FC002803D1D9F8980001287DD10C22A6
:103F300001A938460EF037FD019800282BD101A8C1
:103F40004168002927D18068002824D16948C9F830
:103F500000006948C9F80400D9F89800012813D175
:103F6000D9F89C70D9F8A8A05046394602F050F90B
:103F7000C9F808005046394602F04CF9C9F80C005F
:103F80000020C9F8980050E05948C9F8080057487F
:103F9000C9F80C0049E001A8FFF792FE074600218E
:103FA00002F0CCFB41D05B48394602F033F90146C0
:103FB00002F038FA11F022FAC9F8040056483946DE
:103FC00002F028F9014602F02DFA11F017FAC9F8AB
:103FD0000000039802F0D2F94FF05E5102F022FA8D
:103FE000394602F0D3FA0746514602F0A3FB01D846
:103FF0004FF07E573846594602F0A0FB00D25F468C
:10400000384613F0A1FCD9F89C1002F001F9C9F868
:104010000800384613F098FC0146D9F89C0002F0DD
:10402000F9F8C9F80C00FFF7C7FDD9F85C000028C3
:1040300011D10120C9F85C004FF0000A08E009F135
:10404000580109EB0A1018300AF0FAFB0AF1010ACC
:10405000BAF1040FF3DB07AA09F164012846FFF760
:10406000FFFD09F1640128460AF0ADF804A80AF042
:1040700016F802F07FF94FF0725102F0D3F92146A1
:10408000FFF77AFE41463046FFF742FED9F8780046
:10409000D9F87C10884202DA2018C9F87800D9F8DB
:1040A0007400002817D1D9F860002018C9F8600002
:1040B000B0F57A7F0FDD0020C9F86000302209F1E9
:1040C000280109F118000EF021FC09F1580109F14D
:1040D00048000AF0B5FBD9F874000BB0BDE8F08FCA
:1040E0000148406F704700004C0C00200000B442B3
:1040F0000000B4C2000070420000F0417B142E3E6C
:104100006B3B00080000484201401C460100803F14
:10411000000080BF000020C1000020412DE9F047D1
:1041200098B004460D4690461E46A06802F026F957
:104130000746606802F022F98146206802F01EF905
:10414000014602F06FF982464846494602F06AF994
:10415000514602F05FF881463846394602F062F96E
:10416000494602F057F811F049F9074601F0CCFC36
:1041700021F000410122DFF8C43901F075FF00F29F
:10418000BE804FF04259286802F0F8F8494602F024
:1041900049F904900DF1100A686802F0EFF84946F9
:1041A00002F040F9CAF80400A86802F0E7F84946AE
:1041B00002F038F9CAF80800E86802F0DFF849466A
:1041C00002F030F9CAF80C000020089008AD206811
:1041D00002F0D4F8394602F0D9F96860606802F05C
:1041E000CDF8394602F0D2F9A860A06802F0C6F80E
:1041F000394602F0CBF9E86014AA08A904A80AF02D
:1042000073F810A904A80AF0A9F900AA10A914A823
:104210000AF06AF800AC6568A7683846394602F0CB
:1042200001F981462846294602F0FCF8494601F08A
:10423000F1FFDFF80C1902F081FA02D2DFF80499DD
:1042400011E0DFF8041902F079FA02D2DFF8FC98E5
:1042500009E0DFF8FC1802F071FA02D24FF07A5947
:1042600001E0DFF8F098404602F088F8DFF8E8183F
:1042700002F08CF9494602F0D5F8804600200C90F7
:104280000DF130093846414602F0CCF8C9F8040077
:104290002846414602F0C6F880F00040C9F8080000
:1042A0000020C9F80C0000AA04A90CA80AF01CF808
:1042B00000AA04A900A80AF098F800A80AF012F9C8
:1042C0004FF09D450098294602F0ACF802F070FAD4
:1042D00030606068294602F0A5F802F069FA706063
:1042E000A068294602F09EF802F062FAB060E06829
:1042F000294602F097F802F05BFAF06004E0102221
:10430000294630460EF04FFB18B0BDE8F0872DE986
:10431000F04704460D46A06802F030F80646606893
:1043200002F02CF80746206802F028F8014602F057
:1043300079F880463846394602F074F8414601F073
:1043400069FF07463046314602F06CF8394601F005
:1043500061FF11F053F88146DFF80068314602F042
:10436000EDF941D3A06802F009F8494602F00EF9D0
:1043700080464FF07E50414601F04AFF002102F096
:10438000D9F900D308464FF07C59494602F04AF863
:1043900011F034F807464FF07E50414601F03AFFE5
:1043A000002102F0C7F900D30846494602F03AF866
:1043B00011F024F88046606801F0E0FF8146206833
:1043C00001F0DCFF014602F02DF8824648464946DE
:1043D00002F028F8514601F01DFF11F00FF8814658
:1043E000314602F0ABF907D24FF080402860002040
:1043F0006860A860E86029E04FF09D46404631467D
:1044000002F010F802F0D4F92860606801F0B6FFFD
:10441000494602F0BBF8394602F004F8314602F092
:1044200001F802F0C5F96860206801F0A7FF49466D
:1044300002F0ACF8394601F0F5FFDFF8241701F07F
:10444000F1FF02F0B5F9A8600020E860BDE8F08750
:104450002DE9F84304460D46E06801F08FFF06465B
:10446000A06801F08BFF0746606801F087FF804677
:10447000206801F083FF014601F0D4FF81464046E9
:10448000414601F0CFFF494601F0C4FE8046384660
:10449000394601F0C7FF414601F0BCFE07463046F1
:1044A000314601F0BFFF394601F0B4FE002102F0B1
:1044B00045F907D84FF08040286008466860A8603A
:1044C000E86030E010F09AFF01464FF07E5002F0B5
:1044D0005DF801464FF09D4001F0A4FF06462068BC
:1044E00001F04CFF314601F09DFF02F061F92860B8
:1044F000606801F043FF314601F094FF02F058F983
:104500006860A06801F03AFF314601F08BFF02F0CD
:104510004FF9A860E06801F031FF314601F082FFF9
:1045200002F046F9E860BDE8F18370B588B0054651
:1045300095F8300040067DD5A869002800D5404296
:10454000B0F5803F0DDAE969002900D54942B1F59F
:10455000803F06DA296A002900D54942B1F5803F3B
:1045600064DBDFF80016DFF8004688420BDAE86902
:10457000002800D54042884205DA286A002800D584
:104580004042884202DB0320A06301E00220A063D6
:10459000A86A616B81421BD06063A86A01F0EEFEDD
:1045A000DFF8C81501F0F2FF4FF09C4101F03AFF2F
:1045B00001F0AAFADFF8B825DFF8B83501F0FCFA07
:1045C0000022DFF8B43501F021FC01F0A5FD2063E5
:1045D0000020049004AE216BA86909F07AFD706098
:1045E000216BE86909F075FDB060216B286A09F05C
:1045F00070FDF06000AA04A9204609F077FD00983C
:104600008001009000A841688901416081688901AA
:104610008160C1688901C160224600A9204609F075
:10462000BEFD21462046FFF713FF03E00020DFF820
:104630003815886308B070BD2DE9F0478EB0044688
:1046400094F82001400640F1DE80DFF81C55D4F8D4
:104650002C01DFF828154843D4F810112A68891A6C
:10466000884202DA0320A86301E00220A863D4F89C
:104670002001800505D5294604F58870FFF7E8FE7E
:10468000C1E0002103A809F063FB0C2205F13C0105
:1046900003A80EF02BF9002805D1D4F82801A96D44
:1046A000884200F0948000AB03AA616A206880B25F
:1046B00009F0E8FF00AEB06801F060FE07467068E0
:1046C00001F05CFE8046009801F058FE014601F0C2
:1046D000A9FE81464046414601F0A4FE494601F04C
:1046E00099FD80463846394601F09CFE414601F06E
:1046F00091FD10F083FE0746DFF88404394601F08F
:1047000091FEDFF8801401F041FF8046D4F82801C3
:1047100001F034FE414601F085FEDFF86C1401F033
:1047200035FF804613F03CF98146404613F070F99E
:10473000804638464FF0804102F000F806D2084625
:10474000A8640020E8642865686537E04FF09D4A5A
:104750004846514601F066FE02F02AF8A864404639
:10476000514601F05FFE8046009801F007FE414689
:1047700001F058FE394601F009FF80F0004002F0D8
:1047800017F8E864706801F0F9FD414601F04AFE4F
:10479000394601F0FBFE80F0004002F009F8286580
:1047A000B06801F0EBFD414601F03CFE394601F0F6
:1047B000EDFE80F0004001F0FBFF68650C2203A9CC
:1047C00005F13C000EF0EFF8D4F82801A86504F5D7
:1047D000887406AA05F14801204609F087FC0AAA58
:1047E00006A905F15C0009F081FC05F15C01204699
:1047F00009F0E9FC06AA0AA9284609F077FC29462F
:1048000006A8FFF725FE0EB0BDE8F08730B585B0ED
:104810000446D54D00A9284609F0D5FC05F1200233
:1048200000A9204609F062FC1022214605F1100083
:104830000EF0B9F805B030BD2DE9F04F93B0074642
:10484000012407F13005C84E95F8440000F05000EF
:10485000402810D106F1100107F15C00FFF757FD69
:10486000D7F82001C00515D506F15C0107F5887061
:1048700009F0A9FC0EE097F8200100F05000402854
:1048800013D106F15C0107F5887009F09CFC686C97
:10489000C0050AD500A9304609F095FC06F12002B2
:1048A00000A906F1100009F021FCD7F82001C0058D
:1048B000384602D5FFF7C0FE01E0FFF736FE06F1ED
:1048C0001002314606F1200009F010FC95F8440072
:1048D000400640F1C780386BD7F820110843C00567
:1048E00040F1AC8004AA07F15C0106F1100009F068
:1048F000D9FCD5F834A04FEAEA7B286BC117EA6AE5
:10490000D317A2FB028902FB039903FB0299A0FBC8
:10491000002300FB013301FB003318EB020049EBDD
:104920000301AAFB0A230AFB0B330BFB0A33801893
:10493000594102292FDB02DCB0F1804F2BD307A8AD
:104940000AF09AF807A8D0F808A04FEAEA7B406876
:10495000C117079AD317A2FB028902FB039903FB35
:104960000299A0FB002300FB013301FB003318EB8D
:10497000020049EB0301AAFB0A230AFB0B330BFBE2
:104980000A3380185941022905DB02DCB0F1804F5F
:1049900001D30420B063B06B042801D1002417E0D8
:1049A000022801D0032808D1E96B41F2883291FB3B
:1049B000F2F4012C0CDA01240AE0012808D1E96B99
:1049C00041F2883291FBF2F1012900DA21464C00D4
:1049D000032800D0A4006D48444300200A900AAD8B
:1049E00021460598800209F074FB6860214604980E
:1049F0004042800209F06DFBA86000200D900EAAD5
:104A000006F110010AA809F071FB06F110020EA9C7
:104A100006F1100009F0C3FB06F1100106F11000C9
:104A2000FFF716FD00A9304609F0CDFB06F1200284
:104A300000A906F1100009F059FB13E006F110037C
:104A4000EA6B06F1100107F15C00FFF767FB00A9B4
:104A5000304609F0B8FB06F1200200A906F110006B
:104A600009F044FB002013B0BDE8F08F38B50446D0
:104A7000206BC0050AD404F13000406CC00505D499
:104A8000D4F82001C00501D4002032BD364DD4F841
:104A9000200100F44070B0F5407F07D1102204F5EA
:104AA000887105F110000DF07EFF02E02046FFF74F
:104AB000C3FE04F13000816805F1100009F094FE96
:104AC000002032BD324809F0C5B910B5264C6C2221
:104AD000002120460DF034FF4FF08040206120601F
:104AE0002062E063E065002010BD80B5FFF7EDFFB8
:104AF000002805D10FF20D00BDE802400AF038B8D9
:104B000002BD000080B508220FF290012148006824
:104B10000DF0ECFE002801D0322002BD1322C82186
:104B20001B48BDE8084009F033B980B5FFF7CAFF5C
:104B30001948BDE8024009F0EFBF00000000D04076
:104B400017B75139A69BC43B0AD7233C8FC2753D8A
:104B5000CDCC4C3ECDCCCC3E0014CD470100803FA7
:104B6000000080CE01006400040D00200024744980
:104B7000112D4454FB2189400080664071981C002F
:104B8000DB0F49400000344B0024F449A69BC400CD
:104B90006D4A00086C000020054B0008654D504C24
:104BA00020352E3100000000704700200AE0DFF8B9
:104BB0008C1B01EB8001DFF8882B0A62DFF8842B65
:104BC000CA62401C0328F2DB704710B5002213E0D4
:104BD000DFF8680B00EB8203D3F8B410186A01F019
:104BE000ADFD00D2196203F120040846E16801F02E
:104BF000A5FD00D2E060521C032AE9DB10BDFEB522
:104C0000B0F9482012040092B0F94A20130400AA17
:104C10005360B0F94C4024049460DFF8205B009EA0
:104C20006F6EF61B0096AE6E9B1B5360EB6EE31A25
:104C300093600B46816E406C80B209F023FDF7BD96
:104C4000F0B589B000252E462F46DFF8F04AD4F89B
:104C50009410012902D12946C4F8941003A9FFF742
:104C6000CEFF06A809F042FE03980699A0EBA130FA
:104C7000039006A803A94A684368A2EBA3324A60DE
:104C80008A688068A2EBA0308860602204F55471C5
:104C900004F553700DF03AFE0C2203A904F5597087
:104CA0000DF081FE00A809F0E7FE602204F56F71A7
:104CB00004F56E700DF02AFE0C2200A904F5747044
:104CC0000DF071FE294600A838E004F224429368F2
:104CD0005B1C936001EB410204EB8202D2F84C337F
:104CE0004FF0090C93FBFCF35D1901EB410304EB5E
:104CF0008303D3F850C34FF0090E9CFBFEFC6644BF
:104D000003F55473D3F804C09CFBFEFC6744DDF844
:104D100000C0D2F8B82392FBFEF2624400924268CF
:104D2000D3F86CC09CFBFEFC6244426082681B6F3F
:104D3000F44693FBFCF39A188260491C0929C4DBF2
:104D4000290000D54942320000D552423B0000D52F
:104D50005B42009D002D00D56D4200954568002DF9
:104D600001D56D4245608568002D01D56D42856095
:104D70000025009EB14200DA012541688A4200DA2E
:104D80006D1C8068834200DA6D1C04F22442906836
:104D9000092800DB6D1C042D0FD194F8241403297D
:104DA00008DB526804F1640008F05EFF012009F09E
:104DB0003BFE02E0084608F047FF09B0F0BD2DE9D0
:104DC000F0410446DFF87459002085F8240405F208
:104DD00024467060074605F1080823E005EB8700CC
:104DE000D0F8CC00D8F8341001F0A4FC19D8D8E9D8
:104DF00012010022DFF8503900F028FD21F00041B7
:104E0000DFF84829DFF8483901F036F909D295F87A
:104E10002404401C85F8240470680121B94008432B
:104E200070607F1C032FD9DB95F82404002815D06F
:104E3000002709E004EBC702D2E9000101F06CF998
:104E400005EB870148667F1C032FF3DB0020B06071
:104E5000A868042802DA95F82404A86095F82404C8
:104E600003281BD1D8F80400DFF8E81801F066FC2D
:104E700014D2D8E912230020DFF8CC1800F0E6FCA9
:104E800021F00041DFF8C428DFF8C43801F0F4F85D
:104E900004D2A868032801D10420A860D8F808002B
:104EA000DFF8B41801F04AFC1BD2D8F80400DFF890
:104EB000AC1801F043FC14D2D8E912230020DFF82B
:104EC000881800F0C3FC21F00041DFF89428DFF8D7
:104ED000943801F0D1F804D2A868042801D1052043
:104EE000A860BDE8F0812DE9F0410446DFF84C7878
:104EF000D7F8A40401284DD107F1E0054FF07E5307
:104F00001A4607F5E4712846FBF741FB07F1500804
:104F1000424607F5D4712846FBF747FD06003AD014
:104F20007868401C7860A16E0C46D7E9140101F046
:104F3000F3F8214609F0CDF801F020FA4FF05E5168
:104F400001F070FA00F0E0FDC7E9140107F5D07434
:104F5000D4E9020101F0E0F8C8F80800D4E904013E
:104F600001F0DAF8C8F80C00D4E9060101F0D4F831
:104F7000C8F81000D7E968010122DFF8EC3701F02A
:104F800073F808D8DFF8E4371A4629462846FBF7B5
:104F9000FEFA00E000263046BDE8F08180B502460A
:104FA000D1681369184601F0C9FB14D2506901F0A9
:104FB000C5FB10D2002010641069516901F0BAFBE2
:104FC00004D8012050640220906401BD0220506486
:104FD0000120906401BD0846194601F0AFFB14D2D0
:104FE000506901F0ABFB10D201201064D068516908
:104FF00001F0A0FB04D8002050640220906401BDA1
:10500000022050640020906401BD02201064D0682A
:10501000116901F08FFB04D80020506401209064D6
:1050200001BD012050640020906401BD0021C164D5
:105030000A4605E040F8212000EB81035A62491C32
:105040000329F7DB0121416711468167704710B5DD
:10505000044604F15400142141600A21C16000217A
:1050600001772046FFF7E2FF0020606510BDF0B534
:1050700087B003A9FFF7C3FD00242546264617E0A5
:1050800003A850F8260001F079F94FF05E5101F0C5
:10509000C9F900A941F82600014601F0C3F900F062
:1050A00033FD22462B4600F0D1FB04460D46761C0C
:1050B000032EE5DB2046294610F004FA04460D468F
:1050C000002613E000EB860700A850F8260000F049
:1050D0001BFD22462B4600F099FE01F045F8D7F85B
:1050E000301401F097F8C7F83004761CDFF84C064E
:1050F000032EE7DBD0F88414491CC0F88414012186
:10510000C0F8AC1407B0F0BDF0B585B0064600AAF3
:1051100001A902A808F066FF0024254627460EE0F4
:1051200002A850F82700014601F07CF900F0ECFCE1
:1051300022462B4600F08AFB04460D467F1C032FB7
:10514000EEDB2046294610F0BDF904460D46002747
:1051500011E002A850F8270000F0D6FC22462B46AA
:1051600000F054FE01F000F856F8271001F052F854
:1051700046F827007F1C032FEBDB706D401C706529
:105180000120F06705B0F0BD2DE9F041044600258F
:1051900006E080F00040F060084644F825006D1CF1
:1051A00004F13C06032D36DA706901F0E7F8014698
:1051B00054F8250001F0EAF90746B846002101F04D
:1051C000B9FA424601D982F0004204EB8506B36980
:1051D000184601F0AFFA01D983F000431046194692
:1051E00001F016F83063C6F81880D4F83C80DFF878
:1051F0008005414601F00EF8716A01F013F9394655
:1052000001F008F8414601F0C1F97062002101F097
:1052100091FABED8BFE72046FFF7C0FE3069B0F56F
:105220007A7F01DA401C3061716894F870000528BB
:105230006ED8DFE800F0030E19275C3704F1700028
:1052400001214160816000203061084684F87000CF
:105250005EE004F17000C168012959D1022184F88F
:1052600070100021816053E004EB8102D268104687
:10527000B16A01F05FFA0CD9F06A114601F05AFAEE
:105280003CD820E004EB8100C068B16A01F052FA1A
:105290003ED8042084F8700004F1700000214160C1
:1052A000816035E004EB8102F06AD16801F042FAD6
:1052B00009D9106BDFF8BC1401F040FA0CD2306948
:1052C000716A884224DB032084F8700004F17000C6
:1052D0000121416081601BE0042084F870000020FF
:1052E000306104F1700000214160816010E0306B9A
:1052F00004EB8101C96801F01DFA09D8052084F882
:1053000070000020306104F1700001214160816073
:10531000BDE8F08138B50446DFF8205401F02EF8DE
:10532000DFF8541401F07EF8DFF8501401F02EF984
:1053300000F0EAFB10F098FA0022DFF8443400F0A5
:105340003BFC00F0E9FEC5F88400C5F8804031BDA3
:105350002DE9F04790B0044602A800210A460B460A
:105360000EC004F13006F06BDFF8D05344F6206134
:10537000884206DBD5F88010884212D0FFF7CAFFBA
:105380000FE0D5F848238018C5F848038842C0F2DA
:105390007281F16B814201D0FFF7BCFF0020C5F89C
:1053A0004803206BC5F8B0042046FFF760FED5F82F
:1053B0008404D5F88014884206DB05F58660FFF783
:1053C000E3FE0020C5F88404D5F8A804012802D122
:1053D0002046FFF735FCD5F8A404012840F04B81A6
:1053E00002A809F069FB02A88768D0F80480029936
:1053F000084601F017F881464046414601F012F890
:10540000494600F007FF80463846394601F00AF861
:10541000414600F0FFFE0FF0F1FF0146E9604FF05A
:105420008D4000F0FFFF01F0C3F9ADF8000000A8C7
:1054300000214180818005F52C773946FDF7A0F9E0
:1054400008A809F08FFA296F089808F042FE8146F3
:105450000DF12008696FD8F8040008F03AFE824682
:10546000A96FD8F8080008F034FE0AEB090100EB38
:105470000109E96FD8F80C0008F02BFE00EB0908D1
:10548000102208A905F170000DF08DFA4FF0000907
:105490001BE004EB490AB16BBAF94800000408F0BC
:1054A00018FE0CA941F8290000F068FF4FF05E518A
:1054B00000F0B8FF05EB89014861BAF94800000423
:1054C00005A941F8290009F10109B9F1030FE0DB51
:1054D00005F5E47605A93046FBF703F9D5F828036E
:1054E00029688842C0F2C780D4F8E40000F046FF83
:1054F0004FF05E5100F096FF8146D5F8D820104657
:10550000002101F01BF90BD04846114600F080FE47
:1055100000F0FAFA21F0004100F026FEC5F8DC00A8
:10552000C5F8D890A868032804D9001F0AD0401EE7
:105530000FD014E09348A8634FF07E50E863C82072
:1055400028640CE09048A8639048E86364202864CD
:1055500005E08F48A8638F48E86332202864206BF9
:10556000C005384608D4FCF7D5FF00F01DFF8A4976
:1055700001F00CF8286107E0FCF70FFF00F014FFC2
:10558000864901F003F828619822002138460DF081
:10559000D7F9D5F8840040453FDA2869002101F0A9
:1055A000C9F83AD2A96B01F0C9F836D26868296CFB
:1055B000884205DA2046FFF796FC00280DD15AE014
:1055C000D5F8B000764901F0B5F806D82046FFF7C7
:1055D0008AFC00284FD000206860002005E005EB21
:1055E00080014A69C1F8B420401C0328F7DBFFF7AB
:1055F000ECFA4FF0000909E005EB8904206AE16A42
:1056000000F006FEC4F8CC0009F10109B9F1030F5E
:10561000F2DB05F5D470FFF7D2FB00240BE005EBBD
:105620008407D7F89800796900F0F2FD20F0004077
:10563000C7F8A400641C032CF1DBD5F8A410D5F83E
:10564000A80000F0E7FDD5F8AC1000F0E3FDC5F8C8
:10565000B0004FF0000906E005EB89004169C0F891
:10566000981009F10109B9F1030FF5DBE8220021D7
:1056700030460DF065F9002010B0BDE8F08710B598
:105680002E4C4FF49762002120460DF059F90A2064
:1056900020604FF080402067FFF787FA04F58660AE
:1056A000FFF7D5FC2068C4F880044FF08440C4F8AC
:1056B0006C041E20C4F88C042C48C4F898043948A3
:1056C000C4F894043848C4F89C041920FDF76AFB18
:1056D000002010BD012240F25231344808F058BB7E
:1056E000324808F0B7BB10B5FFF7C9FF040009D076
:1056F00040F2D6230FF2BC020FF2DC01FFF754FA9E
:10570000204610BD2A4809F033FA040009D040F2BF
:10571000D9230FF2A0020FF2C001FFF745FA20468D
:1057200010BD002010BD80B5FFF7DAFF2048BDE8AE
:10573000024009F0F1B9014880687047700D0020FF
:1057400000401CC600401C460000F0BF9A99999981
:105750009999B93FAF47E13D00007A43BD74933C4E
:105760009CC420B07268913F0070A740CDCCCC3E65
:10577000000080BFCCCC4CBD368D27400024F449BE
:105780000000D0410080BB44000096439A99993FA5
:10579000000070423333B33F002474490050C347C4
:1057A000CDCC4C3DCDCC4C3F3333333F515300082F
:1057B000D5560008696E765F656E61626C655F69DB
:1057C0006E5F7573655F6175746F5F63616C69624D
:1057D000726174696F6E0000433A5C53544D33320A
:1057E0005F455741524D5C53544D33324C5F4D50E1
:1057F0004C4C49425C6D706C5C616363656C5F61CD
:1058000075746F5F63616C2E63000000D0400B0005
:105810001141203A03D49C46134118436346524237
:1058200093401843704700BF9140030090409C464E
:10583000203A9340194352426346D340194370477C
:1058400081F0004102E000BF83F0004330B54FEA31
:1058500041044FEA430594EA050F08BF90EA020F9E
:105860001FBF54EA000C55EA020C7FEA645C7FEA31
:10587000655C00F0E2804FEA5454D4EB5555B8BF54
:105880006D420CDD2C4480EA020281EA030382EAC5
:10589000000083EA010180EA020281EA0303362D57
:1058A00088BF30BD11F0004F4FEA01314FF4801C2A
:1058B0004CEA113102D0404261EB410113F0004F3C
:1058C0004FEA03334CEA133302D0524263EB4303F3
:1058D00094EA050F00F0A780A4F10104D5F1200E91
:1058E0000DDB02FA0EFC22FA05F2801841F10001EC
:1058F00003FA0EF2801843FA05F359410EE0A5F1C0
:1059000020050EF1200E012A03FA0EFC28BF4CF0F0
:10591000020C43FA05F3C01851EBE37101F00045A6
:1059200007D54FF0000EDCF1000C7EEB00006EEBB3
:105930000101B1F5801F1BD3B1F5001F0CD349083D
:105940005FEA30004FEA3C0C04F101044FEA445294
:1059500012F5800F80F09A80BCF1004F08BF5FEA1B
:10596000500C50F1000041EB045141EA050130BDFB
:105970005FEA4C0C404141EB0101013C28BFB1F50D
:10598000801FE9D291F0000F04BF01460020B1FA58
:1059900081F308BF2033A3F10B03B3F120020CDA2B
:1059A0000C3208DD02F1140CC2F10C0201FA0CF009
:1059B00021FA02F10CE002F11402D8BFC2F1200C6E
:1059C00001FA02F120FA0CFCDCBF41EA0C01904024
:1059D000E41AA2BF01EB0451294330BD6FEA04046D
:1059E0001F3C1CDA0C340EDC04F11404C4F1200258
:1059F00020FA04F001FA02F340EA030021FA04F36A
:105A000045EA030130BDC4F10C04C4F1200220FAC0
:105A100002F001FA04F340EA0300294630BD21FAFE
:105A200004F0294630BD94F0000F83F4801306BFC4
:105A300081F480110134013D4EE77FEA645C18BFB8
:105A40007FEA655C29D094EA050F08BF90EA020F4F
:105A500005D054EA000C04BF1946104630BD91EA47
:105A6000030F1EBF0021002030BD5FEA545C05D14A
:105A70004000494128BF41F0004130BD14F5800489
:105A80003CBF01F5801130BD01F0004545F0FE41FD
:105A900041F470014FF0000030BD7FEA645C1ABF32
:105AA000194610467FEA655C1CBF0B46024650EA69
:105AB000013406BF52EA033591EA030F41F4002195
:105AC00030BD00BF90F0000F04BF0021704730B51B
:105AD0004FF4806404F132044FF000054FF00001F0
