:020000040800F2
:1000000000000220D1430008610F0008630F0008C0
:10001000650F0008670F0008690F00080000000066
:100020000000000000000000000000006B0F00084E
:100030006D0F0008000000006F0F0008710F00082E
:1000400021440008214400082144000821440008FC
:1000500021440008214400082144000821440008EC
:1000600021440008214400082144000821440008DC
:1000700021440008214400082144000821440008CC
:1000800021440008214400082144000821440008BC
:1000900021440008214400082144000821440008AC
:1000A000214400082144000821440008214400089C
:1000B000214400082144000821440008214400088C
:1000C000214400082144000821440008214400087C
:1000D00021440008790F0008214400082144000849
:1000E000214400082144000821440008214400085C
:1000F000214400082144000821440008214400084C
:10010000214400082144000821440008214400083B
:10011000214400082144000821440008214400082B
:10012000214400082144000821440008214400081B
:10013000214400082144000821440008214400080B
:1001400021440008214400082144000821440008FB
:1001500021440008214400082144000821440008EB
:1001600021440008214400082144000821440008DB
:1001700021440008214400082144000821440008CB
:1001800021440008214400082144000821440008BB
:100190002144000800000000214400082144000818
:1001A000214400082144000821440008214400089B
:1001B000214400082144000821440008214400088B
:1001C000214400082144000821440008214400087B
:0801D00021440008214400084D
:1001E00001F0FF01102A2BDB10F0070F08D010F8E8
:1001F000013B013A8B422DD010F0070F42B3F6D1EC
:10020000F0B441EA012141EA014122F007047FF004
:1002100000070023F0E80256083C85EA010586EA5B
:10022000010685FA47F5A3FA87F586FA47F6A5FA97
:1002300087F68EB9EED1F0BC01F0FF0102F00702A3
:1002400032B110F8013B013A83EA010313B1F8D14E
:100250000020704701387047002D06BF354603382F
:10026000073815F0010F07D1013015F4807F02BF68
:10027000013015F4C03F0130F0BC0138704700BFB9
:10028000034613F8012B002AFBD1181A01387047D6
:1002900081F0004102E000BF83F0004330B54FEA37
:1002A00041044FEA430594EA050F08BF90EA020FA4
:1002B0001FBF54EA000C55EA020C7FEA645C7FEA37
:1002C000655C00F0E2804FEA5454D4EB5555B8BF5A
:1002D0006D420CDD2C4480EA020281EA030382EACB
:1002E000000083EA010180EA020281EA0303362D5D
:1002F00088BF30BD11F0004F4FEA01314FF4801C30
:100300004CEA113102D0404261EB410113F0004F41
:100310004FEA03334CEA133302D0524263EB4303F8
:1003200094EA050F00F0A780A4F10104D5F1200E96
:100330000DDB02FA0EFC22FA05F2801841F10001F1
:1003400003FA0EF2801843FA05F359410EE0A5F1C5
:1003500020050EF1200E012A03FA0EFC28BF4CF0F6
:10036000020C43FA05F3C01851EBE37101F00045AC
:1003700007D54FF0000EDCF1000C7EEB00006EEBB9
:100380000101B1F5801F1BD3B1F5001F0CD3490843
:100390005FEA30004FEA3C0C04F101044FEA44529A
:1003A00012F5800F80F09A80BCF1004F08BF5FEA21
:1003B000500C50F1000041EB045141EA050130BD01
:1003C0005FEA4C0C404141EB0101013C28BFB1F513
:1003D000801FE9D291F0000F04BF01460020B1FA5E
:1003E00081F308BF2033A3F10B03B3F120020CDA31
:1003F0000C3208DD02F1140CC2F10C0201FA0CF00F
:1004000021FA02F10CE002F11402D8BFC2F1200C73
:1004100001FA02F120FA0CFCDCBF41EA0C01904029
:10042000E41AA2BF01EB0451294330BD6FEA040472
:100430001F3C1CDA0C340EDC04F11404C4F120025D
:1004400020FA04F001FA02F340EA030021FA04F36F
:1004500045EA030130BDC4F10C04C4F1200220FAC6
:1004600002F001FA04F340EA0300294630BD21FA04
:1004700004F0294630BD94F0000F83F4801306BFCA
:1004800081F480110134013D4EE77FEA645C18BFBE
:100490007FEA655C29D094EA050F08BF90EA020F55
:1004A00005D054EA000C04BF1946104630BD91EA4D
:1004B000030F1EBF0021002030BD5FEA545C05D150
:1004C0004000494128BF41F0004130BD14F580048F
:1004D0003CBF01F5801130BD01F0004545F0FE4103
:1004E00041F470014FF0000030BD7FEA645C1ABF38
:1004F000194610467FEA655C1CBF0B46024650EA6F
:10050000013406BF52EA033591EA030F41F400219A
:1005100030BD00BF90F0000F04BF0021704730B520
:100520004FF4806404F132044FF000054FF00001F5
:1005300050E700BF90F0000F04BF0021704730B5B6
:100540004FF4806404F1320410F0004548BF40428B
:100550004FF000013EE700BF42004FEAE2014FEAE0
:1005600031014FEA02701FBF12F07F4393F07F4FBB
:1005700081F06051704732F07F4208BF704793F0BE
:100580007F4F04BF41F40021704730B54FF46074D1
:1005900001F0004521F000411CE700BF50EA0102D4
:1005A00008BF704730B54FF000050AE050EA01027D
:1005B00008BF704730B511F0004502D5404261EBED
:1005C00041014FF4806404F132045FEA915C3FF42E
:1005D000D8AE4FF003025FEADC0C18BF03325FEACB
:1005E000DC0C18BF033202EBDC02C2F1200300FA7C
:1005F00003FC20FA02F001FA03FE40EA0E0021FAA1
:1006000002F11444BDE600BF70B54FF0FF0C4CF48E
:10061000E06C1CEA11541DBF1CEA135594EA0C0F40
:1006200095EA0C0F00F0DEF82C4481EA030621EA7B
:100630004C5123EA4C5350EA013518BF52EA0335B6
:1006400041F4801143F4801338D0A0FB02CE4FF068
:100650000005E1FB02E506F00042E0FB03E54FF098
:100660000006E1FB03569CF0000F18BF4EF0010E90
:10067000A4F1FF04B6F5007F64F5407404D25FEA8C
:100680004E0E6D4146EB060642EAC62141EA55513F
:100690004FEAC52040EA5E504FEACE2EB4F1FD0C81
:1006A00088BFBCF5E06F1ED8BEF1004F08BF5FEAFF
:1006B000500E50F1000041EB045170BD06F00046B1
:1006C00046EA010140EA020081EA0301B4EB5C045E
:1006D000C2BFD4EB0C0541EA045170BD41F4801156
:1006E0004FF0000E013C00F3AB8014F1360FDEBF7B
:1006F000002001F0004170BDC4F10004203C35DA57
:100700000C341BDC04F11404C4F1200500FA05F3D9
:1007100020FA04F001FA05F240EA020001F000427A
:1007200021F0004110EBD37021FA04F642EB0601F0
:100730005EEA430E08BF20EAD37070BDC4F10C041A
:10074000C4F1200500FA04F320FA05F001FA04F2DE
:1007500040EA020001F0004110EBD37041F10001CA
:100760005EEA430E08BF20EAD37070BDC4F12005D5
:1007700000FA05F24EEA020E20FA04F301FA05F23D
:1007800043EA020321FA04F001F0004121FA04F2E5
:1007900020EA020000EBD3705EEA430E08BF20EAB5
:1007A000D37070BD94F0000F0FD101F000464000EF
:1007B00041EB010111F4801F08BF013CF7D041EA71
:1007C000060195F0000F18BF704703F00046520075
:1007D00043EB030313F4801F08BF013DF7D043EA46
:1007E0000603704794EA0C0F0CEA135518BF95EAFC
:1007F0000C0F0CD050EA410618BF52EA4306D1D183
:1008000081EA030101F000414FF0000070BD50EAA1
:10081000410606BF1046194652EA430619D094EA2B
:100820000C0F02D150EA013613D195EA0C0F05D115
:1008300052EA03361CBF104619460AD181EA030169
:1008400001F0004141F0FE4141F470014FF0000021
:1008500070BD41F0FE4141F4780170BD70B54FF0BC
:10086000FF0C4CF4E06C1CEA11541DBF1CEA13553C
:1008700094EA0C0F95EA0C0F00F0A7F8A4EB05041E
:1008800081EA030E52EA03354FEA013100F0888015
:100890004FEA03334FF0805545EA131343EA1263DE
:1008A0004FEA022245EA111545EA10654FEA002693
:1008B0000EF000419D4208BF964244F1FD0404F54C
:1008C000407402D25B084FEA3202B61A65EB0305A8
:1008D0005B084FEA32024FF480104FF4002CB6EB65
:1008E000020E75EB030E22BFB61A754640EA0C00E5
:1008F0005B084FEA3202B6EB020E75EB030E22BF25
:10090000B61A754640EA5C005B084FEA3202B6EB65
:10091000020E75EB030E22BFB61A754640EA9C0024
:100920005B084FEA3202B6EB020E75EB030E22BFF4
:10093000B61A754640EADC0055EA060E18D04FEAB2
:10094000051545EA16754FEA06164FEAC30343EA52
:1009500052734FEAC2025FEA1C1CC0D111F4801F1F
:100960000BD141EA00014FF000004FF0004CB6E718
:1009700011F4801F04BF01430020B4F1FD0C88BFB7
:10098000BCF5E06F3FF6AFAEB5EB030C04BFB6EBC2
:10099000020C5FEA500C50F1000041EB045170BDB5
:1009A0000EF0004E4EEA113114EB5C04C2BFD4EBE2
:1009B0000C0541EA045170BD41F480114FF0000E66
:1009C000013C90E645EA060E8DE60CEA135594EAE2
:1009D0000C0F08BF95EA0C0F3FF43BAF94EA0C0FE5
:1009E0000AD150EA01347FF434AF95EA0C0F7FF45A
:1009F00025AF104619462CE795EA0C0F06D152EAAE
:100A000003353FF4FDAE1046194622E750EA410691
:100A100018BF52EA43067FF4C5AE50EA41047FF4A2
:100A20000DAF52EA43057FF4EBAE12E74FF0FF3C07
:100A300006E000BF4FF0010C02E000BF4FF0010CD8
:100A40004DF804CD4FEA410C7FEA6C5C4FEA430C51
:100A500018BF7FEA6C5C1BD001B050EA410C0CBFA0
:100A600052EA430C91EA030F02BF90EA020F002002
:100A7000704710F1000F91EA030F58BF994208BF69
:100A800090422CBFD8176FEAE37040F00100704726
:100A90004FEA410C7FEA6C5C02D150EA013C07D17D
:100AA0004FEA430C7FEA6C5CD6D152EA033CD3D0C8
:100AB0005DF8040B704700BF8446104662468C46C2
:100AC0001946634600E000BF01B5FFF7B7FF0028F5
:100AD00048BF10F1000F01BD4DF808EDFFF7F4FF1E
:100AE0000CBF012000205DF808FB00BF4DF808EDA9
:100AF000FFF7EAFF34BF012000205DF808FB00BFCC
:100B00004DF808EDFFF7E0FF94BF012000205DF8ED
:100B100008FB00BF4DF808EDFFF7CEFF94BF0120A2
:100B200000205DF808FB00BF4DF808EDFFF7C4FF9B
:100B300034BF012000205DF808FB00BF4FEA410CE4
:100B40007FEA6C5C02D150EA013C0AD14FEA430CC7
:100B50007FEA6C5C02D152EA033C02D14FF0000004
:100B600070474FF0010070474FEA410212F5001242
:100B700015D211D56FF47873B3EB625212D94FEAE4
:100B8000C12343F0004343EA505311F0004F23FACE
:100B900002F018BF404270474FF00000704750EA23
:100BA000013005D111F0004008BF6FF000407047E0
:100BB0004FF00000704700BF53B94AB9002908BF81
:100BC00000281CBF4FF0FF314FF0FF3000F00CB891
:100BD000ADF1080C6DE904CE06F0B2FBDDF804E0DF
:100BE000DDE9022304B07047704700BF0348044B9F
:100BF000834202D0034B03B118477047D401002051
:100C0000D4010020000000000548064B1B1AD90F34
:100C100001EBA301491002D0034B03B11847704701
:100C2000D4010020D40100200000000010B5064CC3
:100C3000237843B9FFF7DAFF044B13B10448AFF34D
:100C400000800123237010BDD401002000000000AB
:100C5000FC75000808B5054B1BB105490548AFF305
:100C60000080BDE80840FFF7CFBF00BF00000000D4
:100C7000D8010020FC7500080FB400B585B006AAA5
:100C800052F8043B039200924FF48072002109480D
:100C900004F02BF9002804DC05B05DF804EB04B087
:100CA00070474FF0FF3382B20249034802F0A6FCBE
:100CB000F2E700BFF4010020F402002072B6FEE764
:100CC00000B595B03822002106A804F0DBF8002317
:100CD000019302930393049305934FF4007001F082
:100CE000FFF8022306934FF48072099240220A9281
:100CF0000D930E9301220F920822109211931293DA
:100D00000423139306A800F0E5F978B90F230193A3
:100D1000032302938023039300210491059101A8EA
:100D200000F08EFC20B915B05DF804FBFFF7C6FF9C
:100D3000FFF7C4FF08B500F06BF9FFF7C1FF00F043
:100D400037F800F08BF802F0C9FE02F091FF124C68
:100D5000124A0321204601F079FF01221049204662
:100D600002F0FAFD642000F075F90E4C22460621CF
:100D7000432002F041FF224606213B2002F03CFFC7
:100D80000949B1F90430B1F90220B1F9001007485E
:100D9000FFF772FFE6E700BFF40200209D3B00086A
:100DA0001404002064040020540400201876000875
:100DB00070B58AB0002405940694079408940994A9
:100DC000244BDA6C42F00402DA64DA6C02F00402BA
:100DD0000192019ADA6C42F02002DA64DA6C02F0D5
:100DE00020020292029ADA6C42F00102DA64DA6CB2
:100DF00002F001020392039ADA6C42F00202DA6412
:100E0000DB6C03F002030493049B134E22464FF461
:100E10000051304600F0E0FF224620214FF0904084
:100E200000F0DAFF4FF400530593012506950223E5
:100E30000793089405A9304600F0E4FE20230593AB
:100E400006950795089405A94FF0904000F0DAFE4A
:100E50000AB070BD001002400008004808B51748ED
:100E6000174B0360174B436000238360C36003612B
:100E70000C2242618361C36103624362836202F0B8
:100E80008BFC70B900210D4802F0D4FD60B900213F
:100E90000A4802F0F4FD50B9084802F0ACFD48B928
:100EA00008BDFFF70BFFEDE7FFF708FFEFE7FFF7E0
:100EB00005FFF1E7FFF702FFF2E700BFF4020020B1
:100EC0000038014020A1070010B59CB00446002165
:100ED0001791189119911A911B91542202A803F0AD
:100EE000D1FF22681B4B9A4201D01CB010BD0123D8
:100EF0000293039302A800F0C9FC40BB164B1A6E84
:100F000042F480421A661A6E02F480420092009AFD
:100F1000DA6C42F00402DA64DB6C03F00403019340
:100F2000019B3023179302231893002419941A94D9
:100F300007231B9317A9094800F064FE22462146A7
:100F4000252001F0AFF8252001F0BCF8CDE7FFF730
:100F5000B5FED3E700380140001002400008004809
:100F6000FEE7FEE7FEE7FEE7FEE7704770477047E3
:100F700008B500F05DF808BD08B5024801F0DEFED6
:100F800008BD00BFF402002000B583B00B4B1A6E01
:100F900042F001021A661A6E02F001020092009AF3
:100FA0009A6D42F080529A659B6D03F080530193D5
:100FB000019B01F01BF803B05DF804FB0010024038
:100FC000104B1B680BB90120704710B504464FF455
:100FD0007A70B0FBF3F30C4A1068B0FBF3F001F049
:100FE00075F868B90F2C01D901200AE000222146CA
:100FF0004FF0FF3001F056F8044B1C60002000E079
:10100000012010BD00000020080000200400002086
:1010100010B5032001F034F80F20FFF7D1FF10B115
:101020000124204610BD0446FFF7AEFFF9E700009B
:10103000034A1368034909680B441360704700BFF3
:10104000C003002000000020014B1868704700BF5B
:10105000C003002038B50446FFF7F6FF0546B4F19B
:10106000FF3F02D0044B1B681C44FFF7EDFF401B01
:10107000A042FAD338BD00BF00000020124BDA684E
:1010800002F00302DB68C3F303130133032A11D018
:101090000E48B0FBF3F00C4BDB68C3F3062303FBF5
:1010A00000F0094BDB68C3F3416301335B00B0FB25
:1010B000F3F070470648B0FBF3F0034BDB68C3F373
:1010C000062303FB00F0ECE7001002400024F400CC
:1010D00000366E01002800F04F8270B582B00446E1
:1010E000036813F0010F37D0A44A936803F00C0390
:1010F000D26802F003020C2B23D0082B23D06368A4
:10110000B3F5803F4ED0B3F5A02F51D09B4B1A685A
:1011100022F480321A601A6822F480221A6063680E
:10112000002B52D0FFF790FF0546944B1B6813F439
:10113000003F11D1FFF788FF401B6428F5D9032039
:1011400023E2032AD9D18D4B1B6813F4003F03D04F
:101150006368002B00F01282236813F0020F5DD049
:10116000864A936803F00C03D26802F003020C2B4A
:101170003AD0042B3AD0E368002B75D07F4A13682D
:1011800043F480731360FFF75FFF05467B4B1B68DA
:1011900013F4806F5FD1FFF757FF401B0228F5D98A
:1011A0000320F2E1754A136843F480331360B6E715
:1011B00003F18043A3F53C331A6842F480221A609D
:1011C0001A6842F480321A60A9E7FFF73DFF05462E
:1011D0006A4B1B6813F4003FBED0FFF735FF401B7E
:1011E0006428F5D90320D0E1022AC2D1634B1B68E1
:1011F00013F4806F03D0E368002B00F0C1815F4AD5
:10120000536823F0FE43216943EA016353605C4B5A
:101210001868FFF7D5FE002840F0B481236813F06A
:10122000080F4CD063699BB3544AD2F8943043F012
:101230000103C2F89430FFF707FF05464F4BD3F880
:10124000943013F0020F3AD1FFF7FEFE401B022844
:10125000F4D9032099E1494A536823F0FE432169F8
:1012600043EA01635360D9E7444A136823F4807367
:101270001360FFF7E9FE0546404B1B6813F4806FCF
:10128000CCD0FFF7E1FE401B0228F5D903207CE11A
:101290003A4AD2F8943023F00103C2F89430FFF7B1
:1012A000D3FE0546354BD3F8943013F0020F06D029
:1012B000FFF7CAFE401B0228F4D9032065E123682A
:1012C00013F0040F00F081802C4B9B6D13F0805FB6
:1012D00036D12A4B9A6D42F080529A659B6D03F08D
:1012E00080530193019B0125264B1B6813F4807FDB
:1012F00028D0A368012B39D0052B45D01F4BD3F83C
:10130000902022F00102C3F89020D3F8902022F020
:101310000402C3F89020A368002B43D0FFF794FE8B
:101320000646164BD3F8903013F0020F4CD1FFF75E
:101330008BFE801B41F288339842F2D9032024E1CE
:101340000025D1E70F4A136843F480731360FFF759
:101350007BFE06460B4B1B6813F4807FC9D1FFF759
:1013600073FE801B0228F5D903200EE1034AD2F850
:10137000903043F00103C2F89030CCE700100240F7
:101380000400002000700040884BD3F8902042F009
:101390000402C3F89020D3F8902042F00102C3F871
:1013A0009020B8E7FFF750FE0646804BD3F8903008
:1013B00013F0020F08D0FFF747FE801B41F288337D
:1013C0009842F2D90320E0E0E5B9236813F0200F3A
:1013D00035D0A369E3B1754AD2F8983043F00103E0
:1013E000C2F89830FFF730FE0546704BD3F89830BE
:1013F00013F0020F23D1FFF727FE401B0228F4D978
:101400000320C2E0694A936D23F080539365DCE7C3
:10141000664AD2F8983023F00103C2F89830FFF7FB
:1014200013FE0546614BD3F8983013F0020F06D037
:10143000FFF70AFE401B0228F4D90320A5E0E36968
:10144000002B00F0A180594A926802F00C020C2A8D
:1014500064D0022B13D0554A136823F080731360B5
:10146000FFF7F2FD0446514B1B6813F0007F4ED08E
:10147000FFF7EAFD001B0228F5D9032085E04B4A5F
:10148000136823F080731360FFF7DEFD0546474BBA
:101490001B6813F0007F06D0FFF7D6FD401B022823
:1014A000F5D9032071E0414AD36841491940236AC4
:1014B000606A013843EA0013A06A43EA0023206B04
:1014C0004008013843EA4053606B4008013843EA62
:1014D0004063E06A43EAC0631943D160136843F094
:1014E00080731360D36843F08073D360FFF7ACFD63
:1014F00004462E4B1B6813F0007F06D1FFF7A4FDB6
:10150000001B0228F5D903203FE000203DE0274AD8
:10151000D168284B0B40D360002036E0012B36D039
:10152000224BDB6803F00301226A914231D103F0C0
:10153000F002616A0139B2EB011F2CD103F4FE42C3
:10154000A16AB2EB012F28D103F07842E16AB2EB35
:10155000C16F24D103F4C001226B5208013AB1EBF0
:10156000425F1ED103F0C063626B5208013AB3EBD5
:10157000426F18D1002008E001207047012004E0EC
:10158000012002E0012000E0002002B070BD012037
:10159000FBE70120F9E70120F7E70120F5E701204B
:1015A000F3E70120F1E70120EFE700BF0010024060
:1015B0000C809F01FCFFEEFE1E4B9B6803F00C03AA
:1015C000042B33D01B4B9B6803F00C03082B2FD04C
:1015D000184B9B6803F00C030C2B01D000207047C4
:1015E000144BDA6802F00302DB68C3F30313013320
:1015F000032A11D01048B0FBF3F00E4BDB68C3F3A5
:10160000062303FB00F00B4BDB68C3F3416301339C
:101610005B00B0FBF3F070470848B0FBF3F0054BFC
:10162000DB68C3F3062303FB00F0ECE702487047D6
:1016300002487047001002400024F40000366E019A
:10164000002800F0E680F8B50C460546744B1B6890
:1016500003F00F038B420BD2714A136823F00F0380
:101660000B431360136803F00F038B4240F0D380E9
:101670002E6816F001065FD06B68032B2FD0022B6B
:101680004DD0684B1B6813F4806F00F0C680FFF7E5
:1016900093FF654B98424DD9624A936823F0F0035B
:1016A00043F08003936080265E4A936823F003032F
:1016B00069680B439360FFF7C7FC0746594B9B686B
:1016C00003F00C036A68B3EB820F35D0FFF7BCFC64
:1016D000C01B41F288339842F0D9032078E0514B87
:1016E0001B6813F0007F01D1012071E0FFF7C6FCF9
:1016F0004D4B98421AD94B4B9B6813F0F00F05D015
:101700002E6816F00206CFD0AB688BB9454A9368B5
:1017100023F0F00343F0800393608026C4E7414B3D
:101720001B6813F4003FB2D1012051E00026BBE753
:101730000026B9E70026B7E72B6813F0020F48D060
:1017400013F0040F04D0374A936843F4E0639360C6
:101750002B6813F0080F06D0324A936823F47C53A9
:1017600043F4E06393602F4A936823F0F003A96881
:101770000B4393602A4B1B6803F00F03A34230D83E
:101780002B6813F0040F06D0264A936823F4E06315
:10179000E9680B4393602B6813F0080F07D0214AC8
:1017A000936823F46053296943EAC1039360FFF708
:1017B00003FF1C4B9B68C3F303131C4AD35C03F069
:1017C0001F03D8401A4B18601A4B1868FFF7F8FB34
:1017D000F8BD802ECED1134A936823F0F0039360B6
:1017E000C8E70F4A136823F00F0323431360FFF782
:1017F0002BFC06460A4B1B6803F00F03A342BFD025
:10180000FFF722FC801B41F288339842F2D9032073
:10181000DEE7012070470120DAE70120D8E700BFAA
:10182000002002400010024000B4C40468760008A2
:101830000800002004000020014B1868704700BF1A
:101840000800002008B5FFF7F7FF054B9B68C3F3BE
:101850000223044AD35C03F01F03D84008BD00BF35
:10186000001002406076000808B5FFF7E5FF054B61
:101870009B68C3F3C223044AD35C03F01F03D84020
:1018800008BD00BF0010024060760008F0B583B0CC
:101890000446036813F4002F6ED0354B9B6D13F094
:1018A000805F1ED1324B9A6D42F080529A659B6DDB
:1018B00003F080530193019B01262E4A136843F4E1
:1018C00080731360FFF7C0FB05462A4B1B6813F4B7
:1018D000807F08D1FFF7B8FB401B0228F5D903250C
:1018E00002E00026E9E7002545BB214BD3F8903004
:1018F00013F4407315D0226D9A4212D01C4AD2F8CC
:10190000903023F44073D2F8901041F48031C2F843
:101910009010D2F8901021F48031C2F89010C2F8E3
:10192000903013F0010F10D145B9114AD2F8903020
:1019300023F44073216D0B43C2F89030EEB10C4A92
:10194000936D23F08053936517E0FFF77DFB074607
:10195000074BD3F8903013F0020FE5D1FFF774FB7B
:10196000C01B41F288339842F2D90325DCE700BF5F
:1019700000100240007000400025236813F0010FA2
:1019800008D09F4AD2F8883023F0030361680B43E4
:10199000C2F88830236813F0020F08D0984AD2F8B2
:1019A000883023F00C03A1680B43C2F88830236809
:1019B00013F0040F08D0924AD2F8883023F0300395
:1019C000E1680B43C2F88830236813F0080F08D091
:1019D0008B4AD2F8883023F0C00321690B43C2F848
:1019E0008830236813F0100F08D0854AD2F8883069
:1019F00023F4407361690B43C2F88830236813F005
:101A0000200F08D07E4AD2F8883023F44063A169C1
:101A10000B43C2F88830236813F0400F08D0784A8F
:101A2000D2F8883023F44053E1690B43C2F8883080
:101A3000236813F0800F08D0714AD2F8883023F45D
:101A40004043216A0B43C2F88830236813F4807F37
:101A500008D06B4AD2F8883023F44033616A0B43D4
:101A6000C2F88830236813F4003F08D0644AD2F8E3
:101A70009C3023F00303A16A0B43C2F89C30236817
:101A800013F4007F08D05E4AD2F8883023F4402354
:101A9000E16A0B43C2F88830236813F4806F0CD0DE
:101AA000574AD2F8883023F44013216B0B43C2F815
:101AB0008830236BB3F5801F79D0236813F4006F4F
:101AC0000CD04F4AD2F8883023F44003616B0B43AB
:101AD000C2F88830636BB3F5800F6DD0236813F4C0
:101AE000805F0CD0464AD2F8883023F04073A16B57
:101AF0000B43C2F88830A36BB3F1807F61D02368B9
:101B000013F4005F0CD03E4AD2F8883023F04063D3
:101B1000E16B0B43C2F88830E36BB3F1006F55D033
:101B2000236813F4804F0CD0354AD2F8883023F064
:101B30004063216C0B43C2F88830236CB3F1006F13
:101B400049D0236813F4004F0CD02D4AD2F88830C6
:101B500023F04053616C0B43C2F88830636CB3F1DF
:101B6000805F3DD0236813F4803F0CD0244AD2F824
:101B7000883023F04043A16C0B43C2F88830A36C3B
:101B8000B3F1804F31D0236813F4802F0CD01C4A5E
:101B9000D2F89C3023F44013E16C0B43C2F89C3024
:101BA000E36CB3F5001F25D0284603B0F0BDD36821
:101BB00043F48013D36080E7D36843F48013D36089
:101BC0008CE7D36843F48013D36098E7D36843F479
:101BD0008013D360A4E7D36843F48013D360B0E7E5
:101BE000D36843F48033D360BCE7D36843F48033D5
:101BF000D360C8E7D36843F48013D360D4E700BF51
:101C000000100240F0B583B0002362E085685E00FA
:101C10000324B44025EA0405CC68B4402C43846016
:101C2000456825EA0C054C68C4F300149C402C431D
:101C300044605FE0DD08083550F8254003F0070CEC
:101C40004FEA8C0C4FF00F0E0EFA0CFE24EA0E0E2B
:101C50000C6904FA0CF444EA0E0440F8254060E0F4
:101C6000052400E0002404FA0EF42C430CF1020CCD
:101C7000554D45F82C40554CA568D44325EA02063D
:101C80004F6817F4801F01D042EA05064F4DAE6041
:101C9000ED6804EA05064F6817F4001F01D042EA18
:101CA00005064A4DEE606D6804EA05064F6817F4B4
:101CB000003F01D042EA0506444D6E602D682C407D
:101CC0004E6816F4803F01D042EA05043F4A146092
:101CD00001330A6832FA03F474D04FF0010C0CFAA5
:101CE00003FC1CEA0202F3D04C6804F00304013C3C
:101CF000012C8BD94C6804F00304032C0CD0C4686D
:101D00005D004FF0030C0CFA05FC24EA0C0C8C6807
:101D1000AC4044EA0C04C4604C6804F00304022C98
:101D200088D004684FEA430E4FF0030C0CFA0EFC07
:101D300024EA0C0C4C6804F0030404FA0EF444EAA0
:101D40000C0404604C6814F4403FC1D0204C256E54
:101D500045F001052566246E04F001040194019C00
:101D60004FEA930C0CF10205174C54F8255003F080
:101D7000030E4FEA8E0E0F2404FA0EF425EA040532
:101D8000B0F1904F3FF46EAF124CA04212D004F568
:101D90008064A04210D004F58064A0420ED004F507
:101DA0008064A0420CD004F58064A0423FF458AF98
:101DB000062458E7012456E7022454E7032452E797
:101DC000042450E703B0F0BD0000014000040140CE
:101DD00000100240000400480AB18161704781622E
:101DE0007047436901EA030221EA030141EA024123
:101DF00081617047034690F82520D2B2022A09D0AB
:101E00000422C2630120012283F82520002283F8E6
:101E10002420704701680A6822F00E020A60816C73
:101E20000A6822F480720A6001680A6822F00102DE
:101E30000A60426C02F01F01006C01228A4042607D
:101E4000DA6C196D51605A6D42B1116821F48071DC
:101E500011609A6DD96D51600020D4E70020D2E75F
:101E600008B590F82530DBB2022B09D00423C363F8
:101E7000012380F82530002280F82420184608BD70
:101E80000268136823F00E0313600268136823F0DE
:101E900001031360826C136823F480731360436C36
:101EA00003F01F02016C012393404B60C36C026D71
:101EB0005A60436D33B11A6822F480721A60836DE0
:101EC000C26D5A60012380F82530002380F8243049
:101ED000836B13B198470020D1E70020CFE70000C3
:101EE000002836D13E4B1B6803F4C063B3F5806F06
:101EF00008D03B4AD2F8803023F48073C2F8803097
:101F000000207047364AD2F8803023F48073C2F83C
:101F10008030136823F4C06343F400731360314BC3
:101F20001B68322202FB03F32F4AA2FB03239B0C04
:101F3000013300E0013B2A4A526912F4806F01D05C
:101F4000002BF7D1264B5B6913F4806F44D100203E
:101F50007047B0F5007F08D0214A136823F4C063AE
:101F600043F480631360002070471D4B1B6803F42B
:101F7000C063B3F5806F08D0194AD2F8803043F4BB
:101F80008073C2F8803000207047154AD2F8803044
:101F900043F48073C2F88030136823F4C06343F4C1
:101FA000007313600F4B1B68322202FB03F30E4ACF
:101FB000A2FB03239B0C013300E0013B084A52695A
:101FC00012F4806F01D0002BF7D1054B5B6913F43D
:101FD000806F03D1002070470320704703207047B3
:101FE000007000400800002083DE1B43024A936813
:101FF00043F480439360704700700040002807DB83
:1020000000F01F02400901239340024A42F82030A9
:10201000704700BF00E100E0002808DB0901C9B2F9
:1020200000F1604000F5614080F80013704700F057
:102030000F000901C9B2014B1954704714ED00E0BB
:1020400000B500F00700C0F1070CBCF1040F28BF79
:102050004FF0040C031D062B0FD9C31E4FF0FF3E9B
:102060000EFA0CF021EA000199400EFA03FE22EA72
:102070000E0241EA02005DF804FB0023EEE70000D7
:10208000074AD36823F4E0631B041B0C000200F42E
:10209000E060034343F0BF6343F40033D360704711
:1020A00000ED00E010B50446054BD868C0F30220EF
:1020B000FFF7C6FF01462046FFF7AEFF10BD00BF89
:1020C00000ED00E008B5FFF799FF08BD0138B0F159
:1020D000807F0BD24FF0E0235861054AF02182F84F
:1020E00023100020986107221A6170470120704771
:1020F00000ED00E010B4036A046A24F001040462F5
:10210000846924F0F00C4CEA021223F00A030B431A
:10211000826103625DF8044B704710B4036A046A7D
:1021200024F010040462846924F4704C4CEA0232F6
:1021300023F0A00343EA0113826103625DF8044BBC
:102140007047836823F4401323F070030B4343F07C
:10215000070383607047000003683A4A904216D034
:10216000B0F1804F13D0A2F5943290420FD002F517
:10217000806290420BD002F58062904207D002F557
:102180009432904203D002F5E052904203D123F002
:1021900070034A6813432B4A904222D0B0F1804F1B
:1021A0001FD0A2F5943290421BD002F5806290427B
:1021B00017D002F58062904213D002F5943290421B
:1021C0000FD002F5406290420BD002F5806290423F
:1021D00007D002F58062904203D002F5006290427F
:1021E00003D123F44073CA68134323F080034A6980
:1021F000134303608B68C3620B688362114B984280
:1022000013D003F5006398420FD003F54063984262
:102210000BD003F58063984207D003F580639842A2
:1022200003D003F50063984201D10B6903630123D6
:102230004361036913F0010F03D0036923F0010325
:1022400003617047002C014060B310B5044690F85C
:102250003D3013B3022384F83D30214651F8040B7E
:10226000FFF77AFF012384F8483084F83E3084F881
:102270003F3084F8403084F8413084F8423084F8AC
:10228000433084F8443084F8453084F8463084F88C
:10229000473084F83D30002010BD80F83C3001F01C
:1022A00067FCD7E70120704710B4846824F47F4CA2
:1022B00042EA03220A4342EA0C0282605DF8044BC0
:1022C0007047000090F83C30012B00F09B8010B567
:1022D0000446012380F83C30022380F83D30026838
:1022E0009068494B034093600B68702B61D031D8E4
:1022F000502B78D00CD9602B2AD1CA684968206845
:10230000FFF70BFF60212068FFF71BFF002038E07C
:10231000402B0AD1CA6849682068FFF7EBFE4021CC
:102320002068FFF70EFF00202BE067D8202B07D096
:1023300003D9302B04D0012023E00BB1102B05D1A1
:1023400019462068FFF7FDFE00201AE0012018E082
:10235000012016E0B3F5005F38D00ED92B4A934226
:10236000EED015D92A4A9342EAD010329342E7D0F0
:10237000203A9342E4D0012003E0B3F5805F3FD1DF
:102380000020012384F83D30002384F83C3010BD48
:10239000203A9342D4D004D91E4A9342D0D001208F
:1023A000EFE7B3F5801FCBD0B3F1101FC8D00120E9
:1023B000E7E7CB684A6889682068FFF775FF2268FD
:1023C000936843F0770393600020DAE7CB684A68AC
:1023D00089682068FFF768FF2268936843F48043A8
:1023E00093600020CDE7CA6849682068FFF782FE45
:1023F00050212068FFF7A5FE0020C2E70120C0E7BA
:102400000120BEE7022070478800CEFF4000100088
:10241000600010003000100010B50468A26822F4BB
:10242000401222F070024B68134323F4803323F0F0
:1024300007030A681A43A2604B68602B64D01CD85B
:10244000402B49D008D9502B15D10A6989680068FA
:10245000FFF750FE002031E0202B5CD003D9302B59
:1024600007D001202AE0002B57D0102B57D1002095
:1024700024E0002022E0012020E0702B24D001D2B3
:1024800001201BE0304A93424BD007D92F4A934298
:1024900051D01032934212D100200FE0203A9342E3
:1024A00041D004D92A4A934243D1002006E0B3F533
:1024B000801F3AD0B3F1101F39D1002010BD203A4F
:1024C00093423AD10020F9E70B698A68C96800682D
:1024D000FFF7EAFE0020F1E70B68052B2FD0B3F1E0
:1024E000011F2ED003681C6A1A6A22F001021A62C8
:1024F0000268936923F0F003096943EA01139361C9
:1025000003681C620020D9E70A6989680068FFF740
:1025100004FE0020D2E70020D0E70020CEE7012013
:10252000CCE70020CAE70020C8E70020C6E701206A
:10253000C4E70120C2E70020C0E70120BEE7012078
:10254000BCE70120BAE700BF4000100060001000A7
:102550003000100090F83C30012B22D010B504461A
:10256000012380F83C30022380F83D30FFF754FF10
:1025700080B92268D36823F04003D3602268D3680F
:1025800023F48043D360012384F83D30002384F892
:102590003C3010BD012084F83D00002384F83C301D
:1025A000F7E702207047000090F83C20012A4CD049
:1025B00030B40346012280F83C20022280F83D20FE
:1025C000006842688468224DA84207D005F500657E
:1025D000A84203D005F5E055A84203D122F47002C9
:1025E0004D682A4322F0007222F070020D682A43DF
:1025F00042601A68164882421AD0B2F1804F17D052
:10260000A0F59430824213D000F5806082420FD052
:1026100000F5806082420BD000F59430824207D0F2
:1026200000F54060824203D000F58050824204D120
:1026300024F08004896821439160012283F83D20C1
:10264000002083F83C0030BC70470220704700BF78
:10265000002C0140704770477047704770477047C3
:10266000704770477047026852E8003F23F4907348
:1026700042E800310029F6D1026802F1080353E86C
:10268000003F23F0805323F00103083242E8003179
:102690000029F1D1C36E012B06D02023C0F88C3065
:1026A0000023C36643677047026852E8003F23F087
:1026B000100342E800310029F6D1EEE708B5806A40
:1026C0000023A0F85E30A0F85630D0F8A430984728
:1026D00008BD08B5026852E8003F23F0400342E815
:1026E00000310029F6D12023C0F888300023836709
:1026F000D0F89830984708BD08B5B0F86030D0F8E9
:102700008C20222A05D00268936943F00803936164
:1027100008BD0268516ADBB2826D0B401370836D95
:1027200001338365B0F85E309BB2013B9BB2A0F8E9
:102730005E30B0F85E309BB2002BE9D1026852E8FF
:10274000003F23F4907342E800310029F6D102687B
:1027500002F1080353E8003F23F00103083242E886
:1027600000310029F3D12023C0F88C3000234367C7
:1027700003670368174A93420CD05B6813F4000F99
:1027800008D0026852E8003F23F0806342E800313D
:102790000029F6D1C36E012B03D0D0F8A0309847A2
:1027A000B6E70023C366026852E8003F23F0100337
:1027B00042E800310029F6D10368DA6912F0100FFF
:1027C00001D010221A62D0F8C030B0F85C109847DF
:1027D0009EE700BF0080004008B5B0F86020D0F848
:1027E0008C30222B05D00268936943F00803936173
:1027F00008BD03685B6A816D13400B80836D0233F3
:102800008365B0F85E309BB2013B9BB2A0F85E30AE
:10281000B0F85E309BB2002BEAD1026852E8003F6C
:1028200023F4907342E800310029F6D1026802F1E6
:10283000080353E8003F23F00103083242E8003167
:102840000029F3D12023C0F88C30002343670367AD
:102850000368174A93420CD05B6813F4000F08D04A
:10286000026852E8003F23F0806342E8003100290B
:10287000F6D1C36E012B03D0D0F8A0309847B7E74C
:102880000023C366026852E8003F23F0100342E8C9
:1028900000310029F6D10368DA6912F0100F01D077
:1028A00010221A62D0F8C030B0F85C1098479FE749
:1028B000008000402DE9F843B0F860600368DD69EE
:1028C000D3F80090D3F80880D0F88C20222A05D0C5
:1028D0009A6942F008029A61BDE8F8830446B0F8AC
:1028E00068700EE0D4F8903033B1D4F8A4302046AC
:1028F00098470023C4F89030B4F85E309BB2002BA8
:1029000047D0002F00F0958015F0200F00F0918047
:102910002368596AF3B2A26D0B401370A36D0133A3
:10292000A365B4F85E309BB2013B9BB2A4F85E3065
:102930002368DD6915F0070FDED015F0010F09D00F
:1029400019F4807F06D001221A62D4F89030134324
:10295000C4F8903015F0020F0BD018F0010F08D01A
:10296000236802221A62D4F8903043F00403C4F8BA
:10297000903015F0040FB5D018F0010FB2D02368D5
:1029800004221A62D4F8903043F00203C4F8903065
:10299000A8E7226852E8003F23F4807342E8003140
:1029A0000029F6D1226802F1080353E8003F23F022
:1029B000805323F00103083242E800310029F1D1AD
:1029C0002023C4F88C3000236367236723682A4AD6
:1029D000934203D05B6813F4000F07D1E36E012B21
:1029E0000ED0D4F8A030204698478AE7226852E8F3
:1029F000003F23F0806342E800310029F6D1EDE783
:102A00000023E366226852E8003F23F0100342E807
:102A100000310029F6D12368DA6912F0100F01D0D5
:102A200010221A62D4F8C030B4F85C1020469847DF
:102A300067E7B4F85E309BB2002B3FF44DAFB4F8BB
:102A400068209A427FF648AF226802F1080353E8F3
:102A5000003F23F08053083242E800310029F3D1CF
:102A6000064B6367226852E8003F43F0200342E8C8
:102A700000310029F6D12FE700800040F926000838
:102A80002DE9F843B0F860600368DD69D3F8009081
:102A9000D3F80880D0F88C20222A05D09A6942F019
:102AA00008029A61BDE8F8830446B0F868700EE049
:102AB000D4F8903033B1D4F8A4302046984700239E
:102AC000C4F89030B4F85E309BB2002B46D0002F93
:102AD00000F0948015F0200F00F0908023685B6A6E
:102AE000A26D33401380A36D0233A365B4F85E304A
:102AF0009BB2013B9BB2A4F85E302368DD6915F000
:102B0000070FDFD015F0010F09D019F4807F06D030
:102B100001221A62D4F890301343C4F8903015F0B3
:102B2000020F0BD018F0010F08D0236802221A629E
:102B3000D4F8903043F00403C4F8903015F0040F3B
:102B4000B6D018F0010FB3D0236804221A62D4F86B
:102B5000903043F00203C4F89030A9E7226852E8AD
:102B6000003F23F4807342E800310029F6D1226847
:102B700002F1080353E8003F23F0805323F00103E0
:102B8000083242E800310029F1D12023C4F88C300A
:102B900000236367236723682A4A934203D05B6854
:102BA00013F4000F07D1E36E012B0ED0D4F8A03040
:102BB000204698478BE7226852E8003F23F0806365
:102BC00042E800310029F6D1EDE70023E3662268F0
:102BD00052E8003F23F0100342E800310029F6D10B
:102BE0002368DA6912F0100F01D010221A62D4F8AB
:102BF000C030B4F85C102046984768E7B4F85E30FF
:102C00009BB2002B3FF44EAFB4F868209A427FF697
:102C100049AF226802F1080353E8003F23F08053D4
:102C2000083242E800310029F3D1074B636722687C
:102C300052E8003F43F0200342E800310029F6D17A
:102C400030E700BF00800040D9270008A2B110B4CF
:102C5000D0F88830202B17D0D0F88830002B62D1E4
:102C60000B2958D00C295AD0D0F8903043F04003AB
:102C7000C0F8903001205DE0D0F8903043F0400380
:102C8000C0F89030012070470C293CD8DFE801F0F3
:102C9000070B0F13171B1F23272B2F333700C0F8E9
:102CA0009420084646E0C0F89820002042E0C0F892
:102CB0009C2000203EE0C0F8A02000203AE0C0F8B0
:102CC000A420002036E0C0F8A820002032E0C0F8A0
:102CD000AC2000202EE0C0F8B02000202AE0C0F890
:102CE000B420002026E0C0F8B820002022E0C0F880
:102CF000BC2000201EE0C0F8C42000201AE0C0F86C
:102D0000C820002016E0D0F8903043F04003C0F80F
:102D1000903001200EE0C0F8C42000200AE0C0F886
:102D2000C820002006E0D0F8903043F04003C0F8FF
:102D3000903001205DF8044B7047000070B50446E8
:102D40000268D3691068916840F60F0C13EA0C0F03
:102D50000DD113F0200F10D010F0200F02D111F080
:102D6000805F0AD0636F0BB12046984770BD9A4DC3
:102D70000D4030D1994E30422DD1E56E012D00F03D
:102D8000C78013F4801F03D011F4800F40F06781D7
:102D900013F0800F07D010F0800F40F0688111F41D
:102DA000000F40F0648113F0400F03D010F0400F8B
:102DB00040F0648113F4000F03D010F0804F40F016
:102DC000618113F0807FD1D00028CFDAD4F8B830F9
:102DD00020469847CAE713F0010F09D010F4807F0E
:102DE00006D001261662D4F890203243C4F8902011
:102DF00013F0020F0BD011F0010F08D02268022649
:102E00001662D4F8902042F00402C4F8902013F027
:102E1000040F0BD011F0010F08D0226804261662AF
:102E2000D4F8902042F00202C4F8902013F0080F6A
:102E30000BD010F0200F00D13DB12268082515629B
:102E4000D4F890202A43C4F8902013F4006F0CD0DB
:102E500010F0806F09D022684FF400651562D4F835
:102E6000902042F02002C4F89020D4F89020002A4C
:102E70003FF47CAF13F0200F09D010F0200F02D1E7
:102E800011F0805F03D0636F0BB120469847D4F8F0
:102E9000902023689B6813F0400F02D112F0280F96
:102EA0002ED02046FFF7DFFB23689B6813F0400F0E
:102EB00021D0226802F1080353E8003F23F04003C9
:102EC000083242E800310029F3D1D4F880306BB1E8
:102ED000434A9A63D4F88000FEF7C2FF00283FF40B
:102EE00045AFD4F88000836B98473FE7D4F8A4300F
:102EF000204698473AE7D4F8A4302046984735E76B
:102F0000D4F8A430204698470023C4F890302DE729
:102F100013F0100F3FF435AF10F0100F3FF431AF46
:102F20001023136223689B6813F0400F5AD0D4F823
:102F3000802013685B689BB2002B3FF417AFB4F896
:102F40005C1099427FF612AFA4F85E3013681B68DC
:102F500013F0200F32D1226852E8003F23F480732F
:102F600042E800310029F6D1226802F1080353E853
:102F7000003F23F00103083242E800310029F3D179
:102F8000226802F1080353E8003F23F040030832AF
:102F900042E800310029F3D12023C4F88C3000230B
:102FA000E366226852E8003F23F0100342E8003154
:102FB0000029F6D1D4F88000FEF71CFF0223236716
:102FC000D4F8C020B4F85C10B4F85E309BB2C91AD3
:102FD00089B220469047C9E6010000102001000494
:102FE000BD260008B4F85C10B4F85E309BB2C91A74
:102FF00089B2B4F85E309BB2002B3FF4B7AE002923
:103000003FF4B4AE226852E8003F23F4907342E8E4
:1030100000300028F6D1226802F1080353E8003F8F
:1030200023F0805323F00103083242E800300028E7
:10303000F1D12023C4F88C300023E3666367226853
:1030400052E8003F23F0100342E800300028F6D198
:1030500002232367D4F8C0302046984786E64FF411
:1030600080131362D4F8B430204698477EE6A36FED
:10307000002B3FF47BAE2046984777E62046FFF7CB
:1030800028FB73E6D4F8BC30204698476EE600BFB4
:10309000124BC0F89430124BC0F89830114BC0F866
:1030A0009C30114BC0F8A030104BC0F8A430104B2E
:1030B000C0F8A8300F4BC0F8AC300F4BC0F8B030A0
:1030C0000E4BC0F8B4300E4BC0F8B8300D4BC0F802
:1030D000BC300D4BC0F8C030704700BF5726000809
:1030E000552600085B260008592600085D260008C2
:1030F0005F2600086126000863260008F1390008F1
:10310000F3390008F53900086526000870B5044653
:10311000016883680269134342691343C269134318
:103120000868964A02401A430A602268536823F4EA
:103130004053E1680B435360A1692268904B9A4267
:1031400001D0236A1943936823F06E4323F430635C
:103150000B4393602268D36A23F00F03616A0B4329
:10316000D3622368874A934210D0874A934221D082
:10317000864A934237D0864A93425CD0854A93422E
:103180006BD07F4A93427DD010223AE002F558423C
:10319000D2F8882002F00302032A09D8DFE802F0FF
:1031A0000204870601222CE004222AE0082228E0FB
:1031B000102226E002F5E632D2F8882002F00C0256
:1031C0000C2A0ED8DFE802F0070D0D0D090D0D0DCC
:1031D000750D0D0D0B00002213E0042211E00822F2
:1031E0000FE010220DE002F5E432D2F8882002F060
:1031F0003002202A5FD01AD8002A5ED0102A5ED171
:1032000004225F498B4276D0E069B0F5004F00F0B0
:10321000C980082A00F23481DFE812F0F7001901B2
:10322000F50032011C013201320132011F01302A46
:1032300047D10822E5E702F5E232D2F8882002F011
:10324000C002802A3FD004D8FAB3402A3FD10422DA
:10325000D7E7C02A3DD10822D3E702F5E032D2F801
:10326000882002F44072B2F5007F34D005D8A2B3B2
:10327000B2F5807F33D10422C3E7B2F5407F30D16D
:103280000822BEE702F5C832D2F8882002F4406274
:10329000B2F5006F27D005D83AB3B2F5806F26D1CA
:1032A0000422AEE7B2F5406F23D10822A9E702223B
:1032B000A7E70222A5E70222A3E70022A1E7102246
:1032C0009FE710229DE702229BE7002299E7102248
:1032D00097E7102295E7022293E7002291E7102258
:1032E0008FE710228DE702228BE7002289E7102268
:1032F00087E7102285E7082A00F2B280DFE802F0B3
:1033000008B03BB038B0B0B005004FF4004004E066
:10331000FEF798FA002800F0A580626A1E4B33F889
:103320001220B0FBF2F3656805EB4501994200F20B
:103330009B80B3EB053F00F299800026334631466F
:10334000FDF73AFC090241EA106100026B08C0185F
:103350002A46334641F10001FDF72EFCA0F54072EC
:103360000E4B9A4200F284802368D860304665E0B4
:10337000FEF722F9CEE70A48CFE700BFF369FFCF97
:1033800000800040003801400044004000480040F8
:10339000004C00400050004038760008FFFC0F0051
:1033A0000024F400082A65D8DFE802F00727056446
:1033B0002A6464640B00354803E0FEF743FA0028F2
:1033C0005AD0626A324B33F81230B0FBF3F06268C5
:1033D000530803EB4003B3FBF2F3A3F110014FF6E4
:1033E000EF7291424AD89AB222F00F02C3F342031D
:1033F00013432268D360002020E0FEF735FADEE7B1
:10340000FEF7DAF8DBE7214803E0FEF71BFA0028B5
:1034100038D0626A1E4B33F81230B0FBF3F06368A9
:1034200000EB5300B0FBF3F0A0F110024FF6EF7386
:103430009A4229D8236880B2D86000200123A4F8DA
:103440006A30A4F8683000236367A36770BDFEF795
:103450000BFADCE7FEF7B0F8D9E74FF40040D8E705
:103460000120EBE70020E9E70120E7E70120E5E79D
:103470000120E3E70120E1E70020DFE70120DDE7AD
:103480000120DBE70020D9E70120D7E70024F40082
:1034900038760008836A13F0080F06D00268536874
:1034A00023F40043816B0B435360836A13F0010FD5
:1034B00006D00268536823F40033C16A0B4353609B
:1034C000836A13F0020F06D00268536823F4803336
:1034D000016B0B435360836A13F0040F06D002683C
:1034E000536823F48023416B0B435360836A13F0CA
:1034F000100F06D00268936823F48053C16B0B430E
:103500009360836A13F0200F06D00268936823F457
:103510000053016C0B439360836A13F0400F0AD091
:103520000268536823F48013416C0B435360436C6F
:10353000B3F5801F0BD0836A13F0800F06D00268AA
:10354000536823F40023C16C0B4353607047026837
:10355000536823F4C003816C0B435360EBE72DE900
:10356000F84305460E4617469946DDF820802B683D
:10357000DC6936EA04040CBF01240024BC4236D1C5
:10358000B8F1FF3FF3D0FDF75FFDA0EB0900404528
:1035900030D8B8F1000F2FD02B681A6812F0040F42
:1035A000E5D0802EE3D0402EE1D0DA6912F0080F8A
:1035B00011D1DA6912F4006FD9D04FF400621A62A7
:1035C0002846FFF750F82023C5F89030002385F8EF
:1035D000843003200CE008241C622846FFF743F8DF
:1035E000C5F89040002385F88430012000E00020D9
:1035F000BDE8F8830320FBE70320F9E72DE9F0415C
:1036000082B01E46D0F88830202B5AD104460D4691
:103610009046002959D00AB9012053E00023C0F890
:1036200090302123C0F88830FDF70EFD0746A4F83E
:103630005480A4F85680A368B3F5805F02D04FF0A1
:10364000000816E0236943B34FF0000811E020237F
:10365000C4F88830032035E038F8023B2268C3F311
:1036600008039362B4F8562092B2013A92B2A4F8D9
:103670005620B4F856309BB293B100963B460022D8
:1036800080212046FFF76BFF0028E0D1002DE3D01A
:1036900015F8012B23689A62E4E7A8460025E8E7BD
:1036A00000963B46002240212046FFF758FF18B9FC
:1036B0002023C4F8883005E02023C4F88830032094
:1036C00000E0022002B0BDE8F0810120FAE730B549
:1036D00083B004460023C0F89030FDF7B5FC0546E2
:1036E0002268126812F0080F10D123681B6813F0CB
:1036F000040F28D12023C4F88830C4F88C3000206F
:10370000E066206784F8840003B030BD6FF07E432C
:103710000093034600224FF400112046FFF71FFFDD
:103720000028E2D0226852E8003F23F0800342E8FC
:1037300000310029F6D12023C4F88830002384F812
:1037400084300320E0E76FF07E4300932B46002295
:103750004FF480012046FFF702FF0028CAD02268FC
:1037600052E8003F23F4907342E800310029F6D17B
:10377000226802F1080353E8003F23F001030832F6
:1037800042E800310029F3D12023C4F88C30002313
:1037900084F884300320B7E700283AD010B50446F7
:1037A000D0F888300BB32423C4F88830226813681B
:1037B00023F001031360A36A3BBB2046FFF7A6FC7E
:1037C000012811D02268536823F490435360226883
:1037D000936823F02A0393602268136843F001037F
:1037E00013602046FFF773FF10BD80F88430FFF7A9
:1037F0004FFCD4F8C43023B1D4F8C43020469847E5
:10380000D1E7054BC4F8C430F6E72046FFF742FE87
:10381000D3E70120704700BFC90E000810B48165CE
:10382000A0F85C20A0F85E20002343678368B3F50E
:10383000805F06D0A3B9036973B9FF23A0F8603095
:1038400014E0036923B940F2FF13A0F860300DE0E3
:10385000FF23A0F8603009E07F23A0F8603005E086
:10386000B3F1805F2ED00023A0F860300023C0F8B1
:1038700090302223C0F88C30016801F1080353E82E
:10388000003F43F00103083141E80034002CF3D13C
:10389000436EB3F1005F1FD08368B3F5805F43D000
:1038A000294B43670369002B44D0026852E8003F6C
:1038B00043F4907342E800310029F6D100205DF80E
:1038C000044B704703691BB97F23A0F86030CDE734
:1038D0003F23A0F86030C9E7B0F868309342DBD8E6
:1038E0008368B3F5805F19D0184B4367036943B110
:1038F000026852E8003F43F4807342E80031002937
:10390000F6D1026802F1080353E8003F43F0805308
:10391000083242E800310029F3D1CFE70369002BD8
:10392000E2D10B4B4367E1E70369002BB8D1094BA8
:103930004367B7E7026852E8003F43F0200342E8DC
:1039400000310029F6D1B9E7F9260008B5280008AA
:10395000812A0008D927000838B5D0F88C30202BF0
:1039600017D1C1B1CAB10023C36603680C4CA3428E
:103970000CD05B6813F4000F08D0046854E8003FD3
:1039800043F0806344E80035002DF6D1FFF746FF91
:1039900000E0022038BD0120FCE70120FAE700BF6B
:1039A00000800040436E2BB90123A0F86A30A0F8D4
:1039B0006830704730B403689A68C2F3426299680D
:1039C000490F094D6B5CDB00084C615C93FBF1F324
:1039D000A0F86A30AB5CDB00A25C93FBF2F3A0F8CA
:1039E000683030BC704700BF587600085076000839
:1039F00070477047704790F88430012B18D001232E
:103A000080F884302423C0F8883003681A68196865
:103A100021F00101196022F0005200234366016881
:103A20000A602022C0F8882080F884301846704749
:103A30000220704738B590F88430012B1DD0044621
:103A4000012380F884302423C0F8883003681D687F
:103A50001A6822F001021A600268936823F060433A
:103A600019439160FFF79EFF23681D602023C4F86F
:103A70008830002084F8840038BD0220FCE738B587
:103A800090F88430012B1DD00446012380F8843047
:103A90002423C0F8883003681D681A6822F00102E8
:103AA0001A600268936823F0606319439160FFF71E
:103AB00079FF23681D602023C4F88830002084F833
:103AC000840038BD0220FCE7034AD2F8883043F472
:103AD0007003C2F88830704700ED00E000B58DB08B
:103AE0000023089309930A930B930393049305937C
:103AF000069307930093019302931B481B4A0260AD
:103B0000436083604FF6FF72C2600361436183616B
:103B1000FEF79AFBE0B94FF48053089308A91248C6
:103B2000FEF7D0FBB8B9062303930023049303A93F
:103B30000D48FEF70FFD88B900230093019302930F
:103B400069460948FEF730FD58B90DB05DF804FB31
:103B5000FDF7B4F8DFE7FDF7B1F8E4E7FDF7AEF8FD
:103B6000EAE7FDF7ABF8F0E7C4030020002C0140C2
:103B70000268094B9A4200D0704782B003F5644353
:103B80001A6E42F400621A661B6E03F4006301931E
:103B9000019B02B0704700BF002C014010B50446E5
:103BA000124B1B88124AD25C0A2A0BD001330F4AEF
:103BB00013800E4B1B8801220D4919442046FFF744
:103BC000CBFE10BD01330A4A0021D1541378722B69
:103BD00003D0064B00221A80EBE720214FF09040E3
:103BE000FEF7FFF8034B00221A60F2E710040020F2
:103BF00014040020F001002030B585B005461446BD
:103C0000C82302930191009201230246D021154856
:103C100000F0ACFA3B2D13D0432D0FD123786278FE
:103C200042EA0322104B1A80A178E27842EA01228C
:103C30005A802179627942EA01229A8005B030BD2A
:103C40002378627842EA0322084B1A80A178E2784E
:103C500042EA01225A802179627942EA01229A805D
:103C6000ECE700BFE40400205C04002054040020C2
:103C700008B51248124B0360124B43600023836067
:103C80000122C260036143618361C361036200F08A
:103C900008FA50B90021094800F040FB40B9002162
:103CA000064800F069FB30B908BDFDF707F8F1E7F9
:103CB000FDF704F8F3E7FDF701F8F5E7E404002069
:103CC000005400401A061000F0B59FB004460021D1
:103CD00019911A911B911C911D91542204A801F075
:103CE000D1F82268224B9A4201D01FB0F0BD402388
:103CF000049304A8FDF7CAFD002835D11D4CE36CE0
:103D000043F00103E364E36C03F001030193019BBF
:103D1000E36C43F00203E364E36C03F002030293F9
:103D2000029B4FF40043199312271A9700251B9505
:103D30001C9504261D9619A94FF09040FDF762FFCF
:103D4000802319931A971B951C951D9619A90A484B
:103D5000FDF758FFA36D43F40013A365A36D03F4AF
:103D600000130393039BC0E7FCF7A8FFC6E700BF5F
:103D700000540040001002400004004803689A69A3
:103D800012F0020F01D000229A6203689A6912F0C1
:103D9000010F03D19A6942F001029A61704710B491
:103DA000019CC1F3090141EA02411943214321F079
:103DB000004102685368640D04F4806444F07F7429
:103DC00044F4583444F47F7444F0030423EA0403B5
:103DD0000B4353605DF8044B70472DE9F0410446F6
:103DE00003689E6916F010067CD00D46904610229E
:103DF000DA61002637462368986910F0200F30D129
:103E00007FBBB5F1FF3FF6D0FDF71EF9A0EB080030
:103E1000A84201D8002DEED121684B6803F48043FD
:103E200094F84220D2B2886910F4004F02D00BB946
:103E3000202A0ED123689B6913F0200FDBD1FDF7F8
:103E400003F9A0EB08001928F4D946F02006012751
:103E5000D1E74B6843F480434B60FDF7F5F88046AB
:103E6000E8E70FB92022DA6146F00406012522684E
:103E7000936913F4807F05D046F001064FF48071FA
:103E8000D161012513F4806F06D046F00806226840
:103E90004FF48061D161012513F4007F24D046F0F6
:103EA000020623684FF40072DA6101252046FFF70D
:103EB00065FF2268536823F0FF7323F48B3323F4E8
:103EC000FF7323F001035360636C33436364202367
:103ED00084F84130002384F8423084F8403028468A
:103EE000BDE8F0810025C2E7002DF8D0DEE770B50F
:103EF00004460D46164623689B6913F0020F22D133
:103F0000324629462046FFF768FFF0B9B5F1FF3F7A
:103F1000F1D0FDF799F8801BA84201D8002DEAD115
:103F200023689B6913F0020FE5D1636C43F0200313
:103F30006364202384F84130002384F8423084F8FD
:103F40004030012000E0002070BD0120FCE72DE999
:103F5000F8430546884617461E46DDF820902B6834
:103F60009C6938EA04040CBF01230023BB4227D11B
:103F70004A4631462846FFF730FF20BBB6F1FF3FE7
:103F8000EDD0FDF761F8A0EB0900B04201D8002E9A
:103F9000E5D12B689B6938EA03030CBF012300239A
:103FA000BB42DCD16B6C43F020036B64202385F8AB
:103FB0004130002385F8423085F84030012000E090
:103FC0000020BDE8F8830120FBE700002DE9F04167
:103FD00082B0044690461D46089E099F184B0093E8
:103FE0000023EAB2FFF7DBFE3A4631462046FFF7F0
:103FF0007EFFF8B9012D0ED123685FFA88F29A622C
:1040000000973346002240212046FFF7A0FFA8B9C1
:1040100002B0BDE8F08123684FEA18229A623A465E
:1040200031462046FFF763FF30B923685FFA88F214
:104030009A62E5E70120EBE70120E9E70120E7E7E5
:104040000020008070B504460D46164604E0236843
:104050009B6913F0200F12D023689B6913F0200F87
:104060001BD1324629462046FFF7B7FEB8B9FCF708
:10407000EBFF801BA842EAD8002DEDD1E7E7636C87
:1040800043F020036364202384F84130002384F844
:10409000423084F84030012000E0002070BD012053
:1040A000FCE700285FD010B5044690F84130002BA3
:1040B00048D0242384F841302268136823F0010398
:1040C00013606368226823F0706313612268936849
:1040D00023F400439360E368012B38D0A36822687F
:1040E00043F404439360E368022B36D0226853689C
:1040F00023F4006353602268536843F0007343F471
:10410000004353602268D36823F40043D3602369DB
:1041100062691343A169226843EA0123D360E3691A
:10412000216A22680B4313602268136843F001037D
:10413000136000206064202384F84130206384F8F9
:10414000420010BD80F84030FFF7BEFDB1E7A36824
:10415000226843F400439360C5E72268536843F440
:1041600000635360C7E70120704700002DE9F04F5E
:1041700083B00E46BDF834A00E9D90F84110C9B230
:10418000202940F0BC800446904699460C9BCBB158
:10419000BAF1000F16D090F84030012B00F0B38038
:1041A0004FF0010B80F840B0FCF74EFF074600903F
:1041B00019235A464FF400412046FFF7C8FE30B19C
:1041C00001209DE04FF400736364012098E02223F6
:1041D00084F84130402384F84230002363640C9A11
:1041E0006262A4F82AA06363019700954B46424699
:1041F00031462046FFF7EAFE70B9638D9BB2FF2B74
:104200000FD9FF222285444B00934FF08073314633
:104210002046FFF7C4FD21E0002384F840305846D3
:104220006EE0628D92B222853B4B00934FF000739B
:10423000D2B231462046FFF7B2FD0FE0628D92B256
:104240002285002300934FF00073D2B231462046FE
:10425000FFF7A5FD638D9BB2002B34D000972B4652
:10426000002204212046FFF772FE00284DD123686A
:104270005A6A636A1A70636A01336362228D013A73
:1042800092B22285638D9BB2013B9BB26385638DA5
:104290009BB2002BDED0002ADCD100972B46802178
:1042A0002046FFF754FE90BB638D9BB2FF2BC5D910
:1042B000FF222285002300934FF080733146204671
:1042C000FFF76DFDC6E73A4629462046FFF7BAFEDE
:1042D000F8B923682022DA6121684B6823F0FF7364
:1042E00023F48B3323F4FF7323F001034B6084F832
:1042F0004120002384F8423084F8403000E002205E
:1043000003B0BDE8F08F0220FAE70120F8E70120B2
:10431000F6E70120F4E700BF00240080034690F890
:104320004120D2B2202A23D190F84020012A21D066
:10433000012280F84020242280F841200068026891
:1043400022F0010202601868026822F480520260C2
:10435000186802681143016019680A6842F0010296
:104360000A60202283F84120002083F84000704733
:104370000220704702207047034690F84120D2B2D5
:10438000202A21D190F84020012A1FD0012280F854
:104390004020242280F841200068026822F00102B7
:1043A00002601868026822F4706242EA0122026028
:1043B00019680A6842F001020A60202283F841204D
:1043C000002083F8400070470220704702207047A9
:1043D0000D488546FFF778FB0C480D490D4A002330
:1043E00002E0D458C4500433C4188C42F9D30A4AAA
:1043F0000A4C002301E013600432A242FBD300F018
:104400004DFDFCF797FCFEE70000022000000020B5
:10441000D4010020487A0008D4010020880600203A
:10442000FEE72DE9F04F85B057EC106BDDE90E9BF0
:10443000002F0C4690461946B8BF32463B462BF03B
:10444000200ABBBF07F100431F4600232D23B8BF3E
:104450001646BAF1460F0B7005D0BAF1450F00D1E0
:104460000134022100E0032103AB019302AB00936E
:1044700047EC106B4B46224600F0D6FDBBF1670FB0
:10448000054619D118F0010F0ED005EB04080022E3
:10449000002330463946FCF71FFB08B1CDF80C80ED
:1044A0003022039B434521D3039B109A5B1B284674
:1044B000136005B0BDE8F08FBBF1470FE2D0BAF151
:1044C000460F00EB0408E2D10378302B0AD100221A
:1044D000002330463946FCF7FFFA18B9C4F101044D
:1044E000C9F80040D9F800309844D0E7591C03912E
:1044F0001A70D6E7F7B50029BABF49422D232B23FE
:1045000009290270437029DD0DF107031D460A27B2
:104510001A46B1FBF7F607FB1614303402F8014CCB
:104520000C46632C03F1FF333146F1DC3031941E2D
:1045300003F8011C411C2346AB420AD30DF10903C9
:104540009B1AAC4288BF002302330344181A03B0FD
:10455000F0BD13F8016B01F8016FEDE73023303146
:104560008370C170031DF1E72DE9F04F8DB00C464B
:10457000DDF8588016461F46054600F08BFC0368A0
:1045800004931846FBF77CFE00230A93D8F800300A
:104590000590073323F0070303F1080294F818A0ED
:1045A000D4F800B0C8F80020D3E9008929F000430E
:1045B0000793CDF81880C4E91289DDE90601A04B04
:1045C0004FF0FF32FCF7BAFA70BBDDE906019C4BF5
:1045D0004FF0FF32FCF794FA30BB00220023404634
:1045E0004946FCF783FA10B12D2384F84330954AED
:1045F000954BBAF1470F94BF904698460323236129
:104600002BF0040323604FF00009009733460BAAF8
:104610002146284600F0DAF9013040F096804FF04C
:10462000FF300DB0BDE8F08F42464B46404649464C
:10463000FCF784FA40B14B46002BBCBF2D2384F815
:104640004330824A824BD4E763685A1C26D1062342
:1046500063604BF480620023226003930AABCDE9D0
:1046600001A309AB0093616849EC108B0DF12303A2
:104670002846FFF7D6FEBAF1670F0999804615D193
:10468000CB1C3BDB6368994238DC0A9B994255DBC3
:1046900023682161D80745D54B1C42E00AF0DF02B0
:1046A000472AD6D1002BD4D10123D1E7BAF1470F45
:1046B00007D1C81C25DB63688B4222DB4FF0670AF9
:1046C000E3E7BAF1650F1FD80139524604F15000F3
:1046D0000991FFF70FFF0A9A1318012A81462361F7
:1046E00002DC2268D20701D5013323619DF8233013
:1046F000002B8AD02D2384F8433086E74FF0650ADB
:10470000E2E74FF0450ADFE7BAF1660FBDD10029B5
:1047100063680BDD216113B92268D00702D501332C
:104720000B442361A1654FF00009DFE713B922684C
:10473000D20701D50233F4E70123F2E70029D4BF01
:10474000C1F1020201221344EBE723685A0507D4A2
:104750002369424631462846B84701302BD15EE7EF
:10476000BAF1650F40F2DC80D4E912010022002387
:10477000FCF7B2F9002833D0364A012331462846E7
:10478000B84701303FF44BAFDDE90938434502DB60
:104790002368D8070FD5DDE9042331462846B847FA
:1047A00001303FF43CAF4FF0000908F1FF3804F14D
:1047B0001A0AC84509DC23689B0700F10281E068FA
:1047C0000B9B9842B8BF18462BE70123524631464F
:1047D0002846B84701303FF422AF09F10109E8E764
:1047E000099B002B38DC1B4A012331462846B84779
:1047F00001303FF414AFDDE9093959EA030302D16E
:104800002368D907D7D5DDE9042331462846B847C0
:1048100001303FF404AF4FF0000A04F11A0B099B7A
:104820005B42534501DC4B4693E701235A46314630
:104830002846B84701303FF4F2AE0AF1010AEEE72C
:10484000FFFFEF7F787600087C760008807600080E
:104850008476000888760008A36DDDF828A053450B
:10486000A8BF5346002B994636DC4FF0000B29EACF
:10487000E97904F11A02A36D0693A3EB09035B45E2
:1048800031DC099B9A453ADC2368DA0737D4099B67
:10489000AAEB0309069BAAEB03039945A8BF994617
:1048A000B9F1000F33DC4FF0000829EAE97904F18F
:1048B0001A0B099BAAEB0303A3EB090343457FF7FC
:1048C0007AAF01235A4631462846B84701303FF4B3
:1048D000A6AE08F10108ECE7424631462846B84743
:1048E0000130C2D19BE60123314628460692B847E3
:1048F00001303FF494AE069A0BF1010BBBE7DDE902
:10490000042331462846B8470130C0D187E6069ACD
:104910004B46424431462846B8470130C3D17EE673
:10492000DDF828A0BAF1010F01DCDB0736D5012341
:10493000424631462846B84701303FF470AEDDE9C3
:10494000042331462846B84701303FF468AED4E925
:104950001201002200230AF1FF3AFCF7BDF8C0B9AA
:10496000534608F1010231462846B84701300CD1C0
:1049700055E601235A4631462846B84701303FF4F0
:104980004EAE08F10108D045F3DB4B4604F150026E
:10499000E0E64FF0000804F11A0BF4E70123424669
:1049A000E1E701234A4631462846B84701303FF443
:1049B00036AE08F10108E3680B995B1A4345F0DC59
:1049C000FDE64FF0000804F11909F4E72DE9F0477E
:1049D000164698468A680B69DDF820909342B8BF66
:1049E0001346336091F8432007460C460AB1013361
:1049F00033602368990642BF336802333360256809
:104A000015F0060506D104F1190AE36832689B1A0D
:104A1000AB4226DC94F843302268003B18BF0123E8
:104A200092062BD404F1430241463846C847013070
:104A30001ED02368226903F00603042B02BFE56839
:104A40003368ED1AA3680CBF25EAE575002593428B
:104A5000C4BF9B1AED1800261A34B5421AD10020A3
:104A600008E00123524641463846C847013003D189
:104A70004FF0FF30BDE8F0870135C6E7E1185A1C5A
:104A8000302081F84300224494F8451082F8431006
:104A90000233C7E70123224641463846C847013062
:104AA000E6D00136D9E700002DE9FF470F7E0C9EC6
:104AB000782F914680460C469A4601F1430207D86A
:104AC000622F0AD8002F00F0DD80582F00F0C3803D
:104AD00004F1420684F842703AE0A7F16303152B13
:104AE000F6D801A151F823F0414B0008554B0008BE
:104AF000D14A0008D14A0008D14A0008D14A00082A
:104B0000554B0008D14A0008D14A0008D14A000894
:104B1000D14A00086B4C0008E34B0008234C000806
:104B2000D14A0008D14A00088D4C0008D14A00083B
:104B3000E34B0008D14A0008D14A00082B4C00087A
:104B400033681A1D1B68326004F1420684F8423053
:104B50000123A8E031682368081D30601E0601D5D6
:104B60000D6803E05D06FBD5B1F900506168002DCA
:104B700078DA2D20002984F84300A1602DDA5E4800
:104B80006D420A231646B5FBF3F103FB1157C75DCF
:104B900006F8017D2F46BB420D46F4D9082B0BD1F8
:104BA0002368DF0708D5236961689942DEBF302397
:104BB00006F8013C06F1FF36921B2261CDF800A0F9
:104BC0004B4603AA21464046FFF700FF01306FD154
:104BD0004FF0FF3004B0BDE8F08723F004032360FA
:104BE000CDE721683368080653F8045B02D4490610
:104BF00048BFADB26F2F4048336014BF0A2308236B
:104C0000002184F843106668A660002EBADB216894
:104C100021F004012160002DB4D1002EB2D116463E
:104C2000BCE7236843F0200323603448782784F8E6
:104C30004570236831681F0651F8045B02D45F0693
:104C400048BFADB23160D90744BF43F020032360B1
:104C50001DB11023D4E72848E9E7236823F0200397
:104C60002360F6E724480A23CDE7336825686169A5
:104C7000181D30602E061B6801D5196002E0680619
:104C8000FBD5198000232361164697E733681A1D68
:104C900032601E68626800213046FBF7A1FA08B155
:104CA000801B606063682361002384F8433085E7DC
:104CB0002369324649464046D047013088D02368B0
:104CC0009B0714D4E068039B9842B8BF184681E75D
:104CD0000123324649464046D04701303FF478AF81
:104CE0000135E36803995B1AAB42F1DCEAE7002582
:104CF00004F11906F5E700BF8A7600089B760008E4
:104D0000002310B50446C0E90033C0E904338360D2
:104D100081814366C2818361194608225C3000F0BC
:104D2000B1F80D4B63620D4BA3620D4BE3620D4B6B
:104D300023630D4B24629C4206D003F16802944227
:104D400002D0D0339C4205D104F15800BDE8104098
:104D500000F0C8B810BD00BF5166000873660008B7
:104D6000AB660008CF66000838050020024A0349F8
:104D7000034800F069B800BF0C000020DD5E0008A9
:104D80001C00002041680C4B994210B5044601D02C
:104D900001F0A4F8A168094B994202D0204601F025
:104DA0009DF8E168064B994204D02046BDE81040CA
:104DB00001F094B810BD00BF38050020A005002008
:104DC0000806002010B50B4B0B4C0C4A1A6020460D
:104DD00000220421FFF794FF04F168000122092159
:104DE000FFF78EFF04F1D0000222BDE8104012212F
:104DF000FFF786BF70060020380500206D4D0008C3
:104E0000014800F070B800BF75060020014800F0AE
:104E10006BB800BF7506002010B50446FFF7F0FF21
:104E2000236A1BB1BDE81040FFF7F0BF044B2362BB
:104E3000044B1B68002BF5D1FFF7C4FFF2E700BF5E
:104E4000854D0008700600202DE9F8430746884686
:104E500014460026D4E90195B9F1010905D5246865
:104E6000002CF7D13046BDE8F883AB89012B07D978
:104E7000B5F90E30013303D029463846C047064302
:104E80006835E9E702440346934200D1704703F8CE
:104E9000011BF9E7004870475801002070B50D4D1F
:104EA0000D4C641BA4100026A64209D10B4D0C4CDE
:104EB00002F0A4FB641BA4100026A64205D170BD1D
:104EC00055F8043B98470136EEE755F8043B984700
:104ED0000136F2E7407A0008407A0008407A00087C
:104EE000447A000870477047704710B5141E194681
:104EF000029B04DABDE810401A4601F03BBC0A46AA
:104F0000214601F013FC002803DBA04201D301F08D
:104F10009FFC10BD2DE9F74F03690C69A3420746BA
:104F20007EDB013C01F11408A30000F1140500939D
:104F300005EB8403019358F8243055F824200133FD
:104F40009A4208EB8409B2FBF3F62ED34FF0000A25
:104F5000C446AE46D3465CF8043B98B206FB00A0BC
:104F6000020C1B0C06FB0323DEF8002080B292B279
:104F7000121A5A44DEF800004FEA134A9BB2C3EB00
:104F8000224303EB104392B242EA0342E1454EF85A
:104F9000042B4FEA234BDED2009BEB582BB9019B2D
:104FA000043B9D421A462FD33C61384601F048FA33
:104FB000002825DB2946002058F8042BD1F800C032
:104FC0001FFA82FE1FFA8CF3A3EB0E030344120CAC
:104FD000C2EB234202EB1C429BB243EA0243C145AF
:104FE00041F8043B4FEA2240E6D255F8242005EB75
:104FF000840322B9043B9D421A460BD33C6101361F
:10500000304603B0BDE8F08F1268043B002ACBD1D4
:10501000013CC6E71268043B002AEFD1013CEAE7F5
:105020000020EEE7000000002DE9F04FC76997B0BF
:105030008DED000B55EC104B209E089183460C9291
:1050400012937FB9102000F01BFE0246CBF81C0023
:1050500020B9A74BEF21A74801F01EFCC0E901775A
:105060000760C760DBF81C30196859B15A684A609C
:10507000012393408B60584600F0A4FFDBF81C30FE
:1050800000221A602B1EB9BF23F0004301930023B6
:105090003360019F984BBCBF01223260BB4319D1E2
:1050A000129A42F20F731360C7F31303234300F005
:1050B000DD85219B53B9914B21E0914B039308333C
:1050C000219A1360039817B0BDE8F08F8B4B0393C0
:1050D0000333F5E79DED007B002251EC170B002315
:1050E0008DED0A7BFBF7F8FC804650B1129A012344
:1050F0001360219B13B1219A824B1360824B03935F
:10510000E0E79DED0A0B14AA15A9584601F048FAEC
:10511000C7F30A560290002E78D00B9BCDF84C8036
:10512000C3F31303DDE90A0143F07F5343F4401353
:10513000A6F2FF3619460022744BFBF7ADF866A3C2
:10514000D3E90023FBF760FA65A3D3E90023FBF75B
:10515000A5F8044630460D46FBF7ECF962A3D3E907
:105160000023FBF751FA02460B4620462946FBF77F
:1051700095F804460D46FBF7F7FC0022074600238E
:1051800020462946FBF7B2FC40B13846FBF7D2F97E
:1051900022462B46FBF7A0FC00B9013F162F52D840
:1051A0005B4B03EBC703D3E90023DDE90A01FBF7FF
:1051B0009DFC002849D0013F00231193149B9B1BA9
:1051C0005A1E45BFC3F10103069300230023079233
:1051D00054BF06930793002F39DB079B10973B447E
:1051E000079300230993089B092B66D8052BC4BF9E
:1051F000043B0893089BA3F10203CCBF00240124C5
:10520000032B65D8DFE803F02B383657DDE914634C
:105210001E4406F23243202BC1BFC3F140039F401E
:1052200006F2124324FA03F3D6BFC3F1200347EA80
:10523000030004FA03F0FBF76DF90122A1F1F87302
:10524000013E139276E70123B7E71190B6E7069B7C
:10525000DB1B06937B42099300231093C3E70023D3
:105260000D930C9B002B57DC0123049399461A469F
:105270000C920CE00123F3E700230D930C9BFB1829
:1052800003F1010904934B46012BB8BF0123DBF85E
:105290001C000021042202F114059D4240D9416006
:1052A000584600F04FFE039000283CD1194B0246AF
:1052B00040F2AF11CFE60123DFE70124002308937A
:1052C0000D944FF0FF330493994600221223CFE749
:1052D00001230D93F5E700BF61436F63A787D23FBA
:1052E000B3C8608B288AC63FFB799F501344D33FD5
:1052F000B9760008D07600080000F07FB576000887
:10530000AC76000889760008887600080000F83F2F
:10531000E8770008397700080C9B04939946B6E7B4
:1053200001315200B7E7DBF81C30039A1A60B9F17B
:105330000E0F6FD8002C6DD0002F36DDA14B07F07B
:105340000F0203EBC20393ED007BF8058DED0E7B9E
:105350004FEA271417D59C4BDDE90A01D3E908234E
:10536000FBF77CFACDE9000104F00F044FF00308CD
:10537000954D5CB9DDE90E23DDE90001FBF76EFA1E
:10538000CDE900012BE04FF00208F1E7E10709D574
:10539000DDE90E01D5E90023FBF736F9CDE90E0171
:1053A00008F1010864100835E3E700F007817C424A
:1053B000844B854D04F00F0203EBC203D3E90023B5
:1053C000DDE90A01FBF720F9CDE9000124110023F2
:1053D0004FF00208002C40F0E580002BD0D1119B4B
:1053E000DDE90045002B00F04C81784B002220467F
:1053F0002946FBF77BFB002800F04381B9F1000F41
:1054000000F03F81049B002B00F3E480DDE90A34C7
:10541000CDE90034159B002B02DB0E2F40F34282B6
:105420000D9A002A40F06782099CDDF8188000255B
:10543000B8F1000F0DD0079B002B0ADD4345069AFB
:10544000A8BF4346D21A0692079AA8EB0308D31ABC
:105450000793099B0BB30D9B002B00F0A682002C39
:1054600000F0A18229462246584600F023FF029A06
:1054700001460546584600F073FE02990646584616
:1054800000F0A0FD099B1B1B099300F09182099A73
:105490003146584600F00EFF02900121584600F0B8
:1054A00049FE109B0446002B00F084821A460146F8
:1054B000584600F0FFFE089B012B044603DC009BCE
:1054C000002B00F07C820026236904EB830318691B
:1054D00000F0E0FD1096C0F12000079B184410F08A
:1054E0001F0000F09182C0F12003042B40F3818261
:1054F000069BC0F11C0003440693079B03448044B1
:105500000793069B002B05DD02991A46584600F0CA
:105510002BFF0290079B002B05DD21461A465846BB
:1055200000F022FF0446119B002B00F076820298C7
:10553000214600F085FF002880F26F820023029947
:105540000A22584600F060FD0D9B02907E1E002B43
:1055500000F05C82002329460A22584600F054FDE0
:10556000049B002B054603DC089B022B00F35E82A4
:10557000B8F1000F05DD29464246584600F0F4FE1A
:105580000546109B002B00F0D0826968584600F059
:10559000D9FC0746002840F07F820D4B024640F2BE
:1055A000EF2158E5E20706D5D5E90023FBF72CF8F3
:1055B00008F101080123641008350BE74FF00208D9
:1055C0000DE700BFE8770008C07700080000F03F53
:1055D000397700082046AD4B00222946FBF714F826
:1055E000CDE90001049C7E1E08F101084046FAF74F
:1055F000A1FFDDE90023FBF707F8A54B0022FAF72E
:105600004DFEA1F15073CDE90E010F93002C3BD15B
:10561000DDE900019F4B0022FAF73EFE02460B46F1
:10562000CDE90023DDE90E23FBF77EFA002840F0E8
:105630005781DDE90E2101F10043DDE90001FBF7AF
:1056400055FA00283FF4E2AE002425460C9BDDF815
:105650000CA0DE434FF000082146584600F0B2FC93
:10566000002D00F0A980B8F1000F05D0A84503D0A7
:105670004146584600F0A6FC2946584600F0A2FCD8
:105680009AE03E464C46B1E7834B03EBC40353E933
:105690000201039B1C440D9B002B4AD002460B4683
:1056A00000207E49FBF7DAF8DDE90E23FAF7F4FD76
:1056B000CDE90E01DDF80CA0DDE90001FBF754FA9D
:1056C0000546FAF737FF02460B46DDE90001FAF717
:1056D000E3FD3035CDE9000102460B460AF8015BD7
:1056E000DDE90E01FBF720FA002865D1DDE9002392
:1056F0006B490020FAF7D0FD02460B46DDE90E01AA
:10570000FBF712FA002840F00D81A24500F0EA8074
:10571000DDE90E015D4B0022FAF776FF5B4BCDE928
:105720000E010022DDE90001FAF76EFFCDE900016C
:10573000C2E7DDE90E23FAF767FFCDE90E01DDF8D8
:105740000CA0A046DDE90001FBF70EFA0546FAF7CA
:10575000F1FE02460B46DDE90001FAF79DFD30350A
:105760000AF8015B02460B46A245CDE900234FF043
:10577000000223D1494BDDE90E01FAF78FFD024605
:105780000B46DDE90001FBF7CFF9002840F0CA80A5
:10579000DDE90E2341490020FAF77EFD02460B4663
:1057A000DDE90001FBF7A2F970B1C24608F1FF384C
:1057B0001AF8013C302BF8D0374655E0334BFAF756
:1057C00023FFCDE90001BDE7DDE90A34CDE900346E
:1057D000159B002BFFF628AE0E2F3FF725AE2E4B64
:1057E00003EBC70393ED007B0C9B002B8DED047B3B
:1057F00002DAB9F1000F64D0DDE90045DDF80CA054
:10580000DDE9042320462946FBF728F8FBF7ACF92D
:105810000646FAF78FFEDDE90423FAF7F5FE0246A5
:105820000B462046294606F13004FAF735FD0AF802
:10583000014B039CAAEB0404A14502460B4640F031
:105840008280FAF72BFDDDE9042304460D46FBF7C1
:105850006BF9002865D1DDE9042320462946FBF7D2
:105860003BF908B1F3075CD40299584600F0AAFB53
:1058700000238AF80030129B01371F60219B002B08
:105880003FF420ACC3F800A01CE400BF000024409B
:1058900000001C4000001440E87700080000E03FD2
:1058A0000000F03FA24B03EBC70393ED007B0C9B82
:1058B000002B8DED047B9FDAB9F1000F9CDC7FF4A7
:1058C000C3AE9C4B0022DDE90401FAF79DFEDDE941
:1058D0000023FBF71FF9044600287FF4B5AE3E46CF
:1058E0002546B4E0DDE90A34CDE90034159B002BF0
:1058F00001DB0E2FD6DD089A012A36DC139A82B31B
:1059000003F23343099CDDF81880069A1A44069284
:10591000079A01211A445846079200F00BFC0546ED
:1059200086E53E4653469A4613F8012D392A06D19C
:10593000039A9A42F7D10399302201360A701A78F5
:1059400001321A7038E77C4B0022FAF75DFE002224
:10595000002304460D46FBF7BFF800283FF450AF84
:1059600082E7149BC3F13603CCE7099B09F1FF34AE
:10597000A34208DBB9F1000FA3EB04040EDBDDF852
:1059800018804B46C1E7099B109A0994E31A1A4400
:10599000DDF8188010924B460024B6E7069BA3EB77
:1059A00009080023B1E7029E71E5099A029970E5A2
:1059B000029672E5089B012B17DC009BABB9019B9B
:1059C000C3F313039BB9019B23F00046360D360544
:1059D00036B1069B01330693079B013307930126DB
:1059E000109B002B7FF470AD1096012075E500260A
:1059F000F6E73FF486AD069A1C331A440692079ADE
:105A00001A44984407927CE50346F4E7049B002B74
:105A10002BDC089B022B09DC27E0B9F1000F1DDC11
:105A2000089B022B1ADDCDF810903E46049B002BFC
:105A30007FF40CAE21460522584600F0E5FA0146F7
:105A40000446029800F0FCFC00287FF7FFADDDF86B
:105A50000CA031230AF8013B0136FBE50D9BCDF884
:105A600010903E46002B7FF483AD039F02982146A1
:105A7000FFF750FA00F1300907F8019B039B049AE5
:105A8000FB1A9A4240F3CB80029900230A2258461F
:105A900000F0BAFA0290E9E72A690232920005F1B1
:105AA0000C010C3000F0C6FE01223946584600F0C9
:105AB0005BFC039B03F1010ADDE903231344079315
:105AC000009B03F00103A846099305460AF1FF3342
:105AD000214602980493FFF71DFA4146069000F113
